{
  "contractName": "Kittycontract",
  "abi": [
    {
      "anonymous": false,
      "inputs": [
        {
          "indexed": true,
          "internalType": "address",
          "name": "owner",
          "type": "address"
        },
        {
          "indexed": true,
          "internalType": "address",
          "name": "approved",
          "type": "address"
        },
        {
          "indexed": true,
          "internalType": "uint256",
          "name": "tokenId",
          "type": "uint256"
        }
      ],
      "name": "Approval",
      "type": "event"
    },
    {
      "anonymous": false,
      "inputs": [
        {
          "indexed": true,
          "internalType": "address",
          "name": "owner",
          "type": "address"
        },
        {
          "indexed": true,
          "internalType": "address",
          "name": "operator",
          "type": "address"
        },
        {
          "indexed": false,
          "internalType": "bool",
          "name": "approved",
          "type": "bool"
        }
      ],
      "name": "ApprovalForAll",
      "type": "event"
    },
    {
      "anonymous": false,
      "inputs": [
        {
          "indexed": false,
          "internalType": "address",
          "name": "owner",
          "type": "address"
        },
        {
          "indexed": false,
          "internalType": "uint256",
          "name": "kittenId",
          "type": "uint256"
        },
        {
          "indexed": false,
          "internalType": "uint256",
          "name": "mumId",
          "type": "uint256"
        },
        {
          "indexed": false,
          "internalType": "uint256",
          "name": "dadId",
          "type": "uint256"
        },
        {
          "indexed": false,
          "internalType": "uint256",
          "name": "genes",
          "type": "uint256"
        }
      ],
      "name": "Birth",
      "type": "event"
    },
    {
      "anonymous": false,
      "inputs": [
        {
          "indexed": true,
          "internalType": "address",
          "name": "previousOwner",
          "type": "address"
        },
        {
          "indexed": true,
          "internalType": "address",
          "name": "newOwner",
          "type": "address"
        }
      ],
      "name": "OwnershipTransferred",
      "type": "event"
    },
    {
      "anonymous": false,
      "inputs": [
        {
          "indexed": true,
          "internalType": "address",
          "name": "from",
          "type": "address"
        },
        {
          "indexed": true,
          "internalType": "address",
          "name": "to",
          "type": "address"
        },
        {
          "indexed": true,
          "internalType": "uint256",
          "name": "tokenId",
          "type": "uint256"
        }
      ],
      "name": "Transfer",
      "type": "event"
    },
    {
      "inputs": [],
      "name": "Gen0_Kitties_created",
      "outputs": [
        {
          "internalType": "uint256",
          "name": "",
          "type": "uint256"
        }
      ],
      "stateMutability": "view",
      "type": "function",
      "constant": true
    },
    {
      "inputs": [],
      "name": "Gen0_limit",
      "outputs": [
        {
          "internalType": "uint256",
          "name": "",
          "type": "uint256"
        }
      ],
      "stateMutability": "view",
      "type": "function",
      "constant": true
    },
    {
      "inputs": [
        {
          "internalType": "uint256",
          "name": "",
          "type": "uint256"
        }
      ],
      "name": "_kittyApprovals",
      "outputs": [
        {
          "internalType": "address",
          "name": "",
          "type": "address"
        }
      ],
      "stateMutability": "view",
      "type": "function",
      "constant": true
    },
    {
      "inputs": [
        {
          "internalType": "address",
          "name": "",
          "type": "address"
        }
      ],
      "name": "_kittyBalance",
      "outputs": [
        {
          "internalType": "uint256",
          "name": "",
          "type": "uint256"
        }
      ],
      "stateMutability": "view",
      "type": "function",
      "constant": true
    },
    {
      "inputs": [],
      "name": "_name",
      "outputs": [
        {
          "internalType": "string",
          "name": "",
          "type": "string"
        }
      ],
      "stateMutability": "view",
      "type": "function",
      "constant": true
    },
    {
      "inputs": [],
      "name": "_symbol",
      "outputs": [
        {
          "internalType": "string",
          "name": "",
          "type": "string"
        }
      ],
      "stateMutability": "view",
      "type": "function",
      "constant": true
    },
    {
      "inputs": [],
      "name": "owner",
      "outputs": [
        {
          "internalType": "address",
          "name": "",
          "type": "address"
        }
      ],
      "stateMutability": "view",
      "type": "function",
      "constant": true
    },
    {
      "inputs": [],
      "name": "renounceOwnership",
      "outputs": [],
      "stateMutability": "nonpayable",
      "type": "function"
    },
    {
      "inputs": [
        {
          "internalType": "address",
          "name": "newOwner",
          "type": "address"
        }
      ],
      "name": "transferOwnership",
      "outputs": [],
      "stateMutability": "nonpayable",
      "type": "function"
    },
    {
      "inputs": [
        {
          "internalType": "uint256",
          "name": "_genes",
          "type": "uint256"
        }
      ],
      "name": "createKittyGen0",
      "outputs": [
        {
          "internalType": "uint256",
          "name": "",
          "type": "uint256"
        }
      ],
      "stateMutability": "nonpayable",
      "type": "function"
    },
    {
      "inputs": [
        {
          "internalType": "address",
          "name": "_owner",
          "type": "address"
        }
      ],
      "name": "getKittyByOwner",
      "outputs": [
        {
          "internalType": "uint256[]",
          "name": "",
          "type": "uint256[]"
        }
      ],
      "stateMutability": "view",
      "type": "function",
      "constant": true
    },
    {
      "inputs": [
        {
          "internalType": "uint256",
          "name": "_id",
          "type": "uint256"
        }
      ],
      "name": "getKitty",
      "outputs": [
        {
          "internalType": "uint256",
          "name": "_genes",
          "type": "uint256"
        },
        {
          "internalType": "uint256",
          "name": "_birthTime",
          "type": "uint256"
        },
        {
          "internalType": "uint256",
          "name": "_mumId",
          "type": "uint256"
        },
        {
          "internalType": "uint256",
          "name": "_dadId",
          "type": "uint256"
        },
        {
          "internalType": "uint256",
          "name": "_generation",
          "type": "uint256"
        }
      ],
      "stateMutability": "view",
      "type": "function",
      "constant": true
    },
    {
      "inputs": [
        {
          "internalType": "uint256",
          "name": "_dadId",
          "type": "uint256"
        },
        {
          "internalType": "uint256",
          "name": "_mumId",
          "type": "uint256"
        }
      ],
      "name": "breedKitty",
      "outputs": [
        {
          "internalType": "uint256",
          "name": "",
          "type": "uint256"
        }
      ],
      "stateMutability": "nonpayable",
      "type": "function"
    },
    {
      "inputs": [
        {
          "internalType": "address",
          "name": "_owner",
          "type": "address"
        }
      ],
      "name": "balanceOf",
      "outputs": [
        {
          "internalType": "uint256",
          "name": "",
          "type": "uint256"
        }
      ],
      "stateMutability": "view",
      "type": "function",
      "constant": true
    },
    {
      "inputs": [],
      "name": "totalSupply",
      "outputs": [
        {
          "internalType": "uint256",
          "name": "total",
          "type": "uint256"
        }
      ],
      "stateMutability": "view",
      "type": "function",
      "constant": true
    },
    {
      "inputs": [],
      "name": "name",
      "outputs": [
        {
          "internalType": "string",
          "name": "",
          "type": "string"
        }
      ],
      "stateMutability": "pure",
      "type": "function",
      "constant": true
    },
    {
      "inputs": [],
      "name": "symbol",
      "outputs": [
        {
          "internalType": "string",
          "name": "",
          "type": "string"
        }
      ],
      "stateMutability": "pure",
      "type": "function",
      "constant": true
    },
    {
      "inputs": [
        {
          "internalType": "uint256",
          "name": "_tokenId",
          "type": "uint256"
        }
      ],
      "name": "ownerOf",
      "outputs": [
        {
          "internalType": "address",
          "name": "",
          "type": "address"
        }
      ],
      "stateMutability": "view",
      "type": "function",
      "constant": true
    },
    {
      "inputs": [
        {
          "internalType": "address",
          "name": "_to",
          "type": "address"
        },
        {
          "internalType": "uint256",
          "name": "_tokenId",
          "type": "uint256"
        }
      ],
      "name": "transfer",
      "outputs": [],
      "stateMutability": "nonpayable",
      "type": "function"
    },
    {
      "inputs": [
        {
          "internalType": "address",
          "name": "_to",
          "type": "address"
        },
        {
          "internalType": "uint256",
          "name": "_tokenId",
          "type": "uint256"
        }
      ],
      "name": "approve",
      "outputs": [],
      "stateMutability": "nonpayable",
      "type": "function"
    },
    {
      "inputs": [
        {
          "internalType": "address",
          "name": "_operator",
          "type": "address"
        },
        {
          "internalType": "bool",
          "name": "_approved",
          "type": "bool"
        }
      ],
      "name": "setApprovalForAll",
      "outputs": [],
      "stateMutability": "nonpayable",
      "type": "function"
    },
    {
      "inputs": [
        {
          "internalType": "uint256",
          "name": "_tokenId",
          "type": "uint256"
        }
      ],
      "name": "getApproved",
      "outputs": [
        {
          "internalType": "address",
          "name": "",
          "type": "address"
        }
      ],
      "stateMutability": "view",
      "type": "function",
      "constant": true
    },
    {
      "inputs": [
        {
          "internalType": "address",
          "name": "_owner",
          "type": "address"
        },
        {
          "internalType": "address",
          "name": "_operator",
          "type": "address"
        }
      ],
      "name": "isApprovedForAll",
      "outputs": [
        {
          "internalType": "bool",
          "name": "",
          "type": "bool"
        }
      ],
      "stateMutability": "view",
      "type": "function",
      "constant": true
    },
    {
      "inputs": [
        {
          "internalType": "address",
          "name": "_from",
          "type": "address"
        },
        {
          "internalType": "address",
          "name": "_to",
          "type": "address"
        },
        {
          "internalType": "uint256",
          "name": "_tokenId",
          "type": "uint256"
        }
      ],
      "name": "transferFrom",
      "outputs": [],
      "stateMutability": "nonpayable",
      "type": "function"
    },
    {
      "inputs": [
        {
          "internalType": "address",
          "name": "_from",
          "type": "address"
        },
        {
          "internalType": "address",
          "name": "_to",
          "type": "address"
        },
        {
          "internalType": "uint256",
          "name": "_tokenId",
          "type": "uint256"
        }
      ],
      "name": "safeTransferFrom",
      "outputs": [],
      "stateMutability": "nonpayable",
      "type": "function"
    },
    {
      "inputs": [
        {
          "internalType": "address",
          "name": "_from",
          "type": "address"
        },
        {
          "internalType": "address",
          "name": "_to",
          "type": "address"
        },
        {
          "internalType": "uint256",
          "name": "_tokenId",
          "type": "uint256"
        },
        {
          "internalType": "bytes",
          "name": "_data",
          "type": "bytes"
        }
      ],
      "name": "safeTransferFrom",
      "outputs": [],
      "stateMutability": "nonpayable",
      "type": "function"
    },
    {
      "inputs": [
        {
          "internalType": "bytes4",
          "name": "_interfaceId",
          "type": "bytes4"
        }
      ],
      "name": "supportsInterface",
      "outputs": [
        {
          "internalType": "bool",
          "name": "",
          "type": "bool"
        }
      ],
      "stateMutability": "pure",
      "type": "function",
      "constant": true
    }
  ],
  "bytecode": "0x608060405234801561001057600080fd5b5060006100216100c460201b60201c565b9050806000806101000a81548173ffffffffffffffffffffffffffffffffffffffff021916908373ffffffffffffffffffffffffffffffffffffffff1602179055508073ffffffffffffffffffffffffffffffffffffffff16600073ffffffffffffffffffffffffffffffffffffffff167f8be0079c531659141344cd1fd0a4f28419497f9722a3daafe3b4186f6b6457e060405160405180910390a3506100cc565b600033905090565b612dfc80620000dc6000396000f3fe608060405234801561001057600080fd5b50600436106101a95760003560e01c80638da5cb5b116100f9578063b88d4fde11610097578063e23b07af11610071578063e23b07af146104d0578063e985e9c514610500578063e98b7f4d14610530578063f2fde38b14610564576101a9565b8063b88d4fde14610466578063d28d885214610482578063d5a776ca146104a0576101a9565b8063a22cb465116100d3578063a22cb465146103e0578063a9059cbb146103fc578063b043d19c14610418578063b09f126614610448576101a9565b80638da5cb5b1461037457806395d89b411461039257806395e6c62f146103b0576101a9565b806323b872dd116101665780636352211e116101405780636352211e146102da57806370a082311461030a578063715018a61461033a5780637371925114610344576101a9565b806323b872dd146102845780633cd331f5146102a057806342842e0e146102be576101a9565b806301ffc9a7146101ae57806306fdde03146101de578063081812fc146101fc578063095ea7b31461022c57806318160ddd146102485780631d94ab0414610266575b600080fd5b6101c860048036038101906101c391906120f4565b610580565b6040516101d591906124f6565b60405180910390f35b6101e6610620565b6040516101f39190612511565b60405180910390f35b6102166004803603810190610211919061214e565b61065d565b604051610223919061241a565b60405180910390f35b610246600480360381019061024191906120b4565b6106f3565b005b6102506107de565b60405161025d9190612653565b60405180910390f35b61026e6107eb565b60405161027b9190612653565b60405180910390f35b61029e60048036038101906102999190611f99565b6107f1565b005b6102a861084c565b6040516102b59190612653565b60405180910390f35b6102d860048036038101906102d39190611f99565b610851565b005b6102f460048036038101906102ef919061214e565b610861565b604051610301919061241a565b60405180910390f35b610324600480360381019061031f9190611f2c565b610913565b6040516103319190612653565b60405180910390f35b6103426109cb565b005b61035e6004803603810190610359919061214e565b610b05565b60405161036b919061241a565b60405180910390f35b61037c610b38565b604051610389919061241a565b60405180910390f35b61039a610b61565b6040516103a79190612511565b60405180910390f35b6103ca60048036038101906103c59190611f2c565b610b9e565b6040516103d791906124d4565b60405180910390f35b6103fa60048036038101906103f59190612074565b610cf1565b005b610416600480360381019061041191906120b4565b610e27565b005b610432600480360381019061042d919061217b565b610ebc565b60405161043f9190612653565b60405180910390f35b6104506110ed565b60405161045d9190612511565b60405180910390f35b610480600480360381019061047b9190611fec565b611126565b005b61048a6111c8565b6040516104979190612511565b60405180910390f35b6104ba60048036038101906104b5919061214e565b611201565b6040516104c79190612653565b60405180910390f35b6104ea60048036038101906104e59190611f2c565b6112bc565b6040516104f79190612653565b60405180910390f35b61051a60048036038101906105159190611f59565b6112d4565b60405161052791906124f6565b60405180910390f35b61054a6004803603810190610545919061214e565b611368565b60405161055b95949392919061266e565b60405180910390f35b61057e60048036038101906105799190611f2c565b61141e565b005b60006380ac58cd60e01b7bffffffffffffffffffffffffffffffffffffffffffffffffffffffff1916827bffffffffffffffffffffffffffffffffffffffffffffffffffffffff1916148061061957506301ffc9a760e01b7bffffffffffffffffffffffffffffffffffffffffffffffffffffffff1916827bffffffffffffffffffffffffffffffffffffffffffffffffffffffff1916145b9050919050565b60606040518060400160405280600a81526020017f4b69747479437574696500000000000000000000000000000000000000000000815250905090565b6000610668826115c7565b6106a7576040517f08c379a000000000000000000000000000000000000000000000000000000000815260040161069e90612553565b60405180910390fd5b60018054905082106106b857600080fd5b6004600083815260200190815260200160002060009054906101000a900473ffffffffffffffffffffffffffffffffffffffff169050919050565b6106fd3382611633565b61070657600080fd5b3373ffffffffffffffffffffffffffffffffffffffff168273ffffffffffffffffffffffffffffffffffffffff161415610775576040517f08c379a000000000000000000000000000000000000000000000000000000000815260040161076c906125b3565b60405180910390fd5b61077f828261169f565b808273ffffffffffffffffffffffffffffffffffffffff163373ffffffffffffffffffffffffffffffffffffffff167f8c5be1e5ebec7d5bd14f71427d1e84f3dd0314c0f7b2291e5b200ac8c7c3b92560405160405180910390a45050565b6000600180549050905090565b60065481565b6107fd338484846116f5565b61083c576040517f08c379a0000000000000000000000000000000000000000000000000000000008152600401610833906125f3565b60405180910390fd5b61084783838361184a565b505050565b601481565b61085c838383610851565b505050565b6000806003600084815260200190815260200160002060009054906101000a900473ffffffffffffffffffffffffffffffffffffffff169050600073ffffffffffffffffffffffffffffffffffffffff168173ffffffffffffffffffffffffffffffffffffffff16141561090a576040517f08c379a000000000000000000000000000000000000000000000000000000000815260040161090190612593565b60405180910390fd5b80915050919050565b60008073ffffffffffffffffffffffffffffffffffffffff168273ffffffffffffffffffffffffffffffffffffffff161415610984576040517f08c379a000000000000000000000000000000000000000000000000000000000815260040161097b90612573565b60405180910390fd5b600260008373ffffffffffffffffffffffffffffffffffffffff1673ffffffffffffffffffffffffffffffffffffffff168152602001908152602001600020549050919050565b6109d3611a11565b73ffffffffffffffffffffffffffffffffffffffff166109f1610b38565b73ffffffffffffffffffffffffffffffffffffffff1614610a47576040517f08c379a0000000000000000000000000000000000000000000000000000000008152600401610a3e906125d3565b60405180910390fd5b600073ffffffffffffffffffffffffffffffffffffffff1660008054906101000a900473ffffffffffffffffffffffffffffffffffffffff1673ffffffffffffffffffffffffffffffffffffffff167f8be0079c531659141344cd1fd0a4f28419497f9722a3daafe3b4186f6b6457e060405160405180910390a360008060006101000a81548173ffffffffffffffffffffffffffffffffffffffff021916908373ffffffffffffffffffffffffffffffffffffffff160217905550565b60046020528060005260406000206000915054906101000a900473ffffffffffffffffffffffffffffffffffffffff1681565b60008060009054906101000a900473ffffffffffffffffffffffffffffffffffffffff16905090565b60606040518060400160405280600481526020017f4b54435400000000000000000000000000000000000000000000000000000000815250905090565b60606000600260008473ffffffffffffffffffffffffffffffffffffffff1673ffffffffffffffffffffffffffffffffffffffff1681526020019081526020016000205467ffffffffffffffff811115610bfb57610bfa612a96565b5b604051908082528060200260200182016040528015610c295781602001602082028036833780820191505090505b5090506000805b600180549050811015610ce6578473ffffffffffffffffffffffffffffffffffffffff166003600083815260200190815260200160002060009054906101000a900473ffffffffffffffffffffffffffffffffffffffff1673ffffffffffffffffffffffffffffffffffffffff161415610cd35780838381518110610cb857610cb7612a67565b5b6020026020010181815250508180610ccf9061298f565b9250505b8080610cde9061298f565b915050610c30565b508192505050919050565b3373ffffffffffffffffffffffffffffffffffffffff168273ffffffffffffffffffffffffffffffffffffffff161415610d2a57600080fd5b80600560003373ffffffffffffffffffffffffffffffffffffffff1673ffffffffffffffffffffffffffffffffffffffff16815260200190815260200160002060008473ffffffffffffffffffffffffffffffffffffffff1673ffffffffffffffffffffffffffffffffffffffff16815260200190815260200160002060006101000a81548160ff0219169083151502179055508173ffffffffffffffffffffffffffffffffffffffff163373ffffffffffffffffffffffffffffffffffffffff167f17307eab39ab6107e8899845ad3d59bd9653f200f220920489ca2b5937696c3183604051610e1b91906124f6565b60405180910390a35050565b8173ffffffffffffffffffffffffffffffffffffffff163073ffffffffffffffffffffffffffffffffffffffff161415610e6057600080fd5b8173ffffffffffffffffffffffffffffffffffffffff16600073ffffffffffffffffffffffffffffffffffffffff161415610e9a57600080fd5b610ea43382611633565b610ead57600080fd5b610eb833838361184a565b5050565b60008073ffffffffffffffffffffffffffffffffffffffff163373ffffffffffffffffffffffffffffffffffffffff161415610f2d576040517f08c379a0000000000000000000000000000000000000000000000000000000008152600401610f2490612573565b60405180910390fd5b610f373384611633565b610f76576040517f08c379a0000000000000000000000000000000000000000000000000000000008152600401610f6d90612633565b60405180910390fd5b610f803383611633565b610fbf576040517f08c379a0000000000000000000000000000000000000000000000000000000008152600401610fb690612633565b60405180910390fd5b600061101560018581548110610fd857610fd7612a67565b5b90600052602060002090600202016000015460018581548110610ffe57610ffd612a67565b5b906000526020600020906002020160000154611a19565b905060006001858154811061102d5761102c612a67565b5b906000526020600020906002020160010160109054906101000a900461ffff16905060006001858154811061106557611064612a67565b5b906000526020600020906002020160010160109054906101000a900461ffff16905060008082846110969190612732565b61ffff1611156110cb576001600283856110b09190612732565b6110ba91906127c0565b6110c49190612732565b90506110d0565b600190505b6110e186888361ffff168733611b65565b94505050505092915050565b6040518060400160405280600481526020017f4b5443540000000000000000000000000000000000000000000000000000000081525081565b611132338686866116f5565b611171576040517f08c379a0000000000000000000000000000000000000000000000000000000008152600401611168906125f3565b60405180910390fd5b6111c185858585858080601f016020809104026020016040519081016040528093929190818152602001838380828437600081840152601f19601f82011690508083019250505050505050611cf1565b5050505050565b6040518060400160405280600a81526020017f4b6974747943757469650000000000000000000000000000000000000000000081525081565b600061120b611a11565b73ffffffffffffffffffffffffffffffffffffffff16611229610b38565b73ffffffffffffffffffffffffffffffffffffffff161461127f576040517f08c379a0000000000000000000000000000000000000000000000000000000008152600401611276906125d3565b60405180910390fd5b60146006541061128e57600080fd5b600660008154809291906112a19061298f565b91905055506112b560008060008533611b65565b9050919050565b60026020528060005260406000206000915090505481565b6000600560008473ffffffffffffffffffffffffffffffffffffffff1673ffffffffffffffffffffffffffffffffffffffff16815260200190815260200160002060008373ffffffffffffffffffffffffffffffffffffffff1673ffffffffffffffffffffffffffffffffffffffff16815260200190815260200160002060009054906101000a900460ff16905092915050565b6000806000806000806001878154811061138557611384612a67565b5b90600052602060002090600202019050806000015495508060010160009054906101000a900467ffffffffffffffff1667ffffffffffffffff1694508060010160089054906101000a900463ffffffff1663ffffffff16935080600101600c9054906101000a900463ffffffff1663ffffffff1692508060010160109054906101000a900461ffff1661ffff1691505091939590929450565b611426611a11565b73ffffffffffffffffffffffffffffffffffffffff16611444610b38565b73ffffffffffffffffffffffffffffffffffffffff161461149a576040517f08c379a0000000000000000000000000000000000000000000000000000000008152600401611491906125d3565b60405180910390fd5b600073ffffffffffffffffffffffffffffffffffffffff168173ffffffffffffffffffffffffffffffffffffffff16141561150a576040517f08c379a000000000000000000000000000000000000000000000000000000000815260040161150190612533565b60405180910390fd5b8073ffffffffffffffffffffffffffffffffffffffff1660008054906101000a900473ffffffffffffffffffffffffffffffffffffffff1673ffffffffffffffffffffffffffffffffffffffff167f8be0079c531659141344cd1fd0a4f28419497f9722a3daafe3b4186f6b6457e060405160405180910390a3806000806101000a81548173ffffffffffffffffffffffffffffffffffffffff021916908373ffffffffffffffffffffffffffffffffffffffff16021790555050565b60008073ffffffffffffffffffffffffffffffffffffffff166003600084815260200190815260200160002060009054906101000a900473ffffffffffffffffffffffffffffffffffffffff1673ffffffffffffffffffffffffffffffffffffffff1614159050919050565b60008273ffffffffffffffffffffffffffffffffffffffff166003600084815260200190815260200160002060009054906101000a900473ffffffffffffffffffffffffffffffffffffffff1673ffffffffffffffffffffffffffffffffffffffff1614905092915050565b816004600083815260200190815260200160002060006101000a81548173ffffffffffffffffffffffffffffffffffffffff021916908373ffffffffffffffffffffffffffffffffffffffff1602179055505050565b6000611700826115c7565b61173f576040517f08c379a000000000000000000000000000000000000000000000000000000000815260040161173690612553565b60405180910390fd5b6117498483611633565b611788576040517f08c379a000000000000000000000000000000000000000000000000000000000815260040161177f90612613565b60405180910390fd5b600073ffffffffffffffffffffffffffffffffffffffff168373ffffffffffffffffffffffffffffffffffffffff1614156117c257600080fd5b8373ffffffffffffffffffffffffffffffffffffffff168573ffffffffffffffffffffffffffffffffffffffff16148061182f57508473ffffffffffffffffffffffffffffffffffffffff166118178361065d565b73ffffffffffffffffffffffffffffffffffffffff16145b80611840575061183f84866112d4565b5b9050949350505050565b600260008373ffffffffffffffffffffffffffffffffffffffff1673ffffffffffffffffffffffffffffffffffffffff168152602001908152602001600020600081548092919061189a9061298f565b9190505550816003600083815260200190815260200160002060006101000a81548173ffffffffffffffffffffffffffffffffffffffff021916908373ffffffffffffffffffffffffffffffffffffffff160217905550600073ffffffffffffffffffffffffffffffffffffffff168373ffffffffffffffffffffffffffffffffffffffff16146119b157600260008473ffffffffffffffffffffffffffffffffffffffff1673ffffffffffffffffffffffffffffffffffffffff168152602001908152602001600020600081548092919061197590612965565b91905055506004600082815260200190815260200160002060006101000a81549073ffffffffffffffffffffffffffffffffffffffff02191690555b808273ffffffffffffffffffffffffffffffffffffffff168473ffffffffffffffffffffffffffffffffffffffff167fddf252ad1be2c89b69c2b068fc378daa952ba7f163c4a11628f55a4df523b3ef60405160405180910390a4505050565b600033905090565b6000611a23611e4a565b600060ff42611a3291906129d8565b9050600060019050600060079050600191505b60808211611af8576000828460ff161614611a8b57606486611a6791906129d8565b60ff16848260088110611a7d57611a7c612a67565b5b602002018181525050611ab8565b606487611a9891906129d8565b60ff16848260088110611aae57611aad612a67565b5b6020020181815250505b606486611ac591906127f1565b9550606487611ad491906127f1565b96508080611ae190612965565b915050600282611af19190612822565b9150611a45565b60008092505b6008831015611b5757848360088110611b1a57611b19612a67565b5b602002015181611b2a919061276a565b905060078314611b4457606481611b419190612822565b90505b8280611b4f9061298f565b935050611afe565b809550505050505092915050565b6000806040518060a001604052808581526020014267ffffffffffffffff1681526020018863ffffffff1681526020018763ffffffff1681526020018661ffff16815250905060018190806001815401808255809150506001900390600052602060002090600202016000909190919091506000820151816000015560208201518160010160006101000a81548167ffffffffffffffff021916908367ffffffffffffffff16021790555060408201518160010160086101000a81548163ffffffff021916908363ffffffff160217905550606082015181600101600c6101000a81548163ffffffff021916908363ffffffff16021790555060808201518160010160106101000a81548161ffff021916908361ffff1602179055505050600060018080549050611c96919061287c565b90507f0a5311bd2a6608f08a180df2ee7c5946819a649b204b554bb8e39825b2c50ad584828a8a89604051611ccf959493929190612481565b60405180910390a1611ce36000858361184a565b809250505095945050505050565b611cfc84848461184a565b611d0884848484611d17565b611d1157600080fd5b50505050565b6000611d2284611e31565b611d2f5760019050611e29565b60008473ffffffffffffffffffffffffffffffffffffffff1663150b7a02338887876040518563ffffffff1660e01b8152600401611d709493929190612435565b602060405180830381600087803b158015611d8a57600080fd5b505af1158015611d9e573d6000803e3d6000fd5b505050506040513d601f19601f82011682018060405250810190611dc29190612121565b90507f150b7a023d4804d13e8c85fb27262cb750cf6ba9f9dd3bb30d90f482ceeb4b1f7bffffffffffffffffffffffffffffffffffffffffffffffffffffffff1916817bffffffffffffffffffffffffffffffffffffffffffffffffffffffff1916149150505b949350505050565b600080823b905060008163ffffffff1611915050919050565b604051806101000160405280600890602082028036833780820191505090505090565b600081359050611e7c81612d6a565b92915050565b600081359050611e9181612d81565b92915050565b600081359050611ea681612d98565b92915050565b600081519050611ebb81612d98565b92915050565b60008083601f840112611ed757611ed6612aca565b5b8235905067ffffffffffffffff811115611ef457611ef3612ac5565b5b602083019150836001820283011115611f1057611f0f612acf565b5b9250929050565b600081359050611f2681612daf565b92915050565b600060208284031215611f4257611f41612ad9565b5b6000611f5084828501611e6d565b91505092915050565b60008060408385031215611f7057611f6f612ad9565b5b6000611f7e85828601611e6d565b9250506020611f8f85828601611e6d565b9150509250929050565b600080600060608486031215611fb257611fb1612ad9565b5b6000611fc086828701611e6d565b9350506020611fd186828701611e6d565b9250506040611fe286828701611f17565b9150509250925092565b60008060008060006080868803121561200857612007612ad9565b5b600061201688828901611e6d565b955050602061202788828901611e6d565b945050604061203888828901611f17565b935050606086013567ffffffffffffffff81111561205957612058612ad4565b5b61206588828901611ec1565b92509250509295509295909350565b6000806040838503121561208b5761208a612ad9565b5b600061209985828601611e6d565b92505060206120aa85828601611e82565b9150509250929050565b600080604083850312156120cb576120ca612ad9565b5b60006120d985828601611e6d565b92505060206120ea85828601611f17565b9150509250929050565b60006020828403121561210a57612109612ad9565b5b600061211884828501611e97565b91505092915050565b60006020828403121561213757612136612ad9565b5b600061214584828501611eac565b91505092915050565b60006020828403121561216457612163612ad9565b5b600061217284828501611f17565b91505092915050565b6000806040838503121561219257612191612ad9565b5b60006121a085828601611f17565b92505060206121b185828601611f17565b9150509250929050565b60006121c783836123fc565b60208301905092915050565b6121dc816128b0565b82525050565b60006121ed826126d1565b6121f781856126ff565b9350612202836126c1565b8060005b8381101561223357815161221a88826121bb565b9750612225836126f2565b925050600181019050612206565b5085935050505092915050565b612249816128c2565b82525050565b600061225a826126dc565b6122648185612710565b9350612274818560208601612932565b61227d81612ade565b840191505092915050565b6000612293826126e7565b61229d8185612721565b93506122ad818560208601612932565b6122b681612ade565b840191505092915050565b60006122ce602683612721565b91506122d982612aef565b604082019050919050565b60006122f1602c83612721565b91506122fc82612b3e565b604082019050919050565b6000612314602a83612721565b915061231f82612b8d565b604082019050919050565b6000612337602983612721565b915061234282612bdc565b604082019050919050565b600061235a602b83612721565b915061236582612c2b565b604082019050919050565b600061237d602083612721565b915061238882612c7a565b602082019050919050565b60006123a0603183612721565b91506123ab82612ca3565b604082019050919050565b60006123c3602683612721565b91506123ce82612cf2565b604082019050919050565b60006123e6601c83612721565b91506123f182612d41565b602082019050919050565b61240581612928565b82525050565b61241481612928565b82525050565b600060208201905061242f60008301846121d3565b92915050565b600060808201905061244a60008301876121d3565b61245760208301866121d3565b612464604083018561240b565b8181036060830152612476818461224f565b905095945050505050565b600060a08201905061249660008301886121d3565b6124a3602083018761240b565b6124b0604083018661240b565b6124bd606083018561240b565b6124ca608083018461240b565b9695505050505050565b600060208201905081810360008301526124ee81846121e2565b905092915050565b600060208201905061250b6000830184612240565b92915050565b6000602082019050818103600083015261252b8184612288565b905092915050565b6000602082019050818103600083015261254c816122c1565b9050919050565b6000602082019050818103600083015261256c816122e4565b9050919050565b6000602082019050818103600083015261258c81612307565b9050919050565b600060208201905081810360008301526125ac8161232a565b9050919050565b600060208201905081810360008301526125cc8161234d565b9050919050565b600060208201905081810360008301526125ec81612370565b9050919050565b6000602082019050818103600083015261260c81612393565b9050919050565b6000602082019050818103600083015261262c816123b6565b9050919050565b6000602082019050818103600083015261264c816123d9565b9050919050565b6000602082019050612668600083018461240b565b92915050565b600060a082019050612683600083018861240b565b612690602083018761240b565b61269d604083018661240b565b6126aa606083018561240b565b6126b7608083018461240b565b9695505050505050565b6000819050602082019050919050565b600081519050919050565b600081519050919050565b600081519050919050565b6000602082019050919050565b600082825260208201905092915050565b600082825260208201905092915050565b600082825260208201905092915050565b600061273d826128fa565b9150612748836128fa565b92508261ffff0382111561275f5761275e612a09565b5b828201905092915050565b600061277582612928565b915061278083612928565b9250827fffffffffffffffffffffffffffffffffffffffffffffffffffffffffffffffff038211156127b5576127b4612a09565b5b828201905092915050565b60006127cb826128fa565b91506127d6836128fa565b9250826127e6576127e5612a38565b5b828204905092915050565b60006127fc82612928565b915061280783612928565b92508261281757612816612a38565b5b828204905092915050565b600061282d82612928565b915061283883612928565b9250817fffffffffffffffffffffffffffffffffffffffffffffffffffffffffffffffff048311821515161561287157612870612a09565b5b828202905092915050565b600061288782612928565b915061289283612928565b9250828210156128a5576128a4612a09565b5b828203905092915050565b60006128bb82612908565b9050919050565b60008115159050919050565b60007fffffffff0000000000000000000000000000000000000000000000000000000082169050919050565b600061ffff82169050919050565b600073ffffffffffffffffffffffffffffffffffffffff82169050919050565b6000819050919050565b60005b83811015612950578082015181840152602081019050612935565b8381111561295f576000848401525b50505050565b600061297082612928565b9150600082141561298457612983612a09565b5b600182039050919050565b600061299a82612928565b91507fffffffffffffffffffffffffffffffffffffffffffffffffffffffffffffffff8214156129cd576129cc612a09565b5b600182019050919050565b60006129e382612928565b91506129ee83612928565b9250826129fe576129fd612a38565b5b828206905092915050565b7f4e487b7100000000000000000000000000000000000000000000000000000000600052601160045260246000fd5b7f4e487b7100000000000000000000000000000000000000000000000000000000600052601260045260246000fd5b7f4e487b7100000000000000000000000000000000000000000000000000000000600052603260045260246000fd5b7f4e487b7100000000000000000000000000000000000000000000000000000000600052604160045260246000fd5b600080fd5b600080fd5b600080fd5b600080fd5b600080fd5b6000601f19601f8301169050919050565b7f4f776e61626c653a206e6577206f776e657220697320746865207a65726f206160008201527f6464726573730000000000000000000000000000000000000000000000000000602082015250565b7f4552433732313a206f70657261746f7220717565727920666f72206e6f6e657860008201527f697374656e7420746f6b656e0000000000000000000000000000000000000000602082015250565b7f4552433732313a2062616c616e636520717565727920666f7220746865207a6560008201527f726f206164647265737300000000000000000000000000000000000000000000602082015250565b7f4552433732313a206f776e657220717565727920666f72206e6f6e657869737460008201527f656e7420746f6b656e0000000000000000000000000000000000000000000000602082015250565b7f4164647265737320746f20617070726f76652069732073616d65206173206f7760008201527f6e65722061646472657373000000000000000000000000000000000000000000602082015250565b7f4f776e61626c653a2063616c6c6572206973206e6f7420746865206f776e6572600082015250565b7f4552433732313a207472616e736665722063616c6c6572206973206e6f74206f60008201527f776e6572206e6f7220617070726f766564000000000000000000000000000000602082015250565b7f4552433732313a2053656e64657220646f6573206e6f74206f776e207468697360008201527f20746f6b656e0000000000000000000000000000000000000000000000000000602082015250565b7f4552433732313a2062726565646572206973206e6f74206f776e657200000000600082015250565b612d73816128b0565b8114612d7e57600080fd5b50565b612d8a816128c2565b8114612d9557600080fd5b50565b612da1816128ce565b8114612dac57600080fd5b50565b612db881612928565b8114612dc357600080fd5b5056fea2646970667358221220495af5e326d4227c6a2bf65bb6e011ae28ca68d0e5c76bee4d2b98ab7fec702f64736f6c63430008060033",
  "immutableReferences": {},
  "source": "// SPDX-License-Identifier: MIT\r\npragma solidity ^0.8.0;\r\n\r\nimport \"./IERC721.sol\";\r\nimport \"./IERC721Receiver.sol\";\r\nimport \"../node_modules/@openzeppelin/contracts/utils/math/SafeMath.sol\";\r\nimport \"../node_modules/@openzeppelin/contracts/access/Ownable.sol\";\r\n\r\ncontract Kittycontract is IERC721, Ownable{\r\n    using SafeMath for uint256;\r\n    \r\n    string public constant _name = \"KittyCutie\";\r\n    string public constant _symbol = \"KTCT\";\r\n    uint public constant Gen0_limit = 20;\r\n\r\n    bytes4 internal constant MAGIC_ERC721_RECEIVED = bytes4(keccak256(\"onERC721Received(address,address,uint256,bytes)\"));\r\n\r\n    //interfaces supported\r\n    bytes4 private constant _INTERFACE_ID_ERC721 = 0x80ac58cd;\r\n    bytes4 private constant _INTERFACE_ID_ERC165 = 0x01ffc9a7;\r\n\r\n    event Birth(address owner, uint256 kittenId, uint256 mumId, uint256 dadId, uint256 genes);\r\n    \r\n    \r\n    struct Kitty {\r\n        uint256 genes;\r\n        uint64 birthTime;\r\n        uint32 mumId;\r\n        uint32 dadId;\r\n        uint16 generation;\r\n    }\r\n\r\n    Kitty[] kitties;\r\n\r\n    mapping(address => uint256) public _kittyBalance;\r\n    mapping(uint256 => address) _kittyOwners;\r\n    mapping(uint256 => address) public _kittyApprovals; //owner approve a specific address to transfer a specific kitty (token) \r\n    mapping(address => mapping(address => bool)) private _operatorApprovals; //owner approve a specific address to transfer all kities owned\r\n\r\n    uint256 public Gen0_Kitties_created;\r\n\r\n    function createKittyGen0(uint256 _genes) public onlyOwner returns(uint256) {\r\n        require(Gen0_Kitties_created < Gen0_limit);\r\n        Gen0_Kitties_created ++;\r\n\r\n        return _createKitty(0, 0, 0, _genes, msg.sender);\r\n    }\r\n\r\n    function _createKitty(uint256 _mumId, uint256 _dadId, uint256 _generation, uint256 _genes, address _owner) private returns (uint256) {\r\n        Kitty memory _kitty = Kitty({\r\n            genes: _genes,\r\n            birthTime: uint64(block.timestamp),\r\n            mumId: uint32(_mumId),\r\n            dadId: uint32(_dadId),\r\n            generation: uint16(_generation)\r\n        });\r\n\r\n        kitties.push(_kitty);\r\n        uint256 newKittenId = kitties.length - 1;\r\n\r\n        emit Birth(_owner, newKittenId, _mumId, _dadId, _genes);\r\n        _transfer(address(0), _owner, newKittenId); //transfer from nowhere(address(0)) means Creation of a Kitty\r\n\r\n        return newKittenId;\r\n    }\r\n\r\n    function getKittyByOwner(address _owner) external view returns(uint[] memory) {\r\n        uint[] memory result = new uint[](_kittyBalance[_owner]);\r\n        uint counter = 0;\r\n        for (uint i = 0; i < kitties.length; i++) {\r\n            if (_kittyOwners[i] == _owner) {\r\n                result[counter] = i;\r\n                counter++;\r\n            }\r\n        }\r\n        return result;\r\n    }\r\n\r\n    function getKitty(uint256 _id) public view returns (\r\n        uint256 _genes,\r\n        uint256 _birthTime,\r\n        uint256 _mumId,\r\n        uint256 _dadId,\r\n        uint256 _generation\r\n    ) \r\n    {\r\n        Kitty storage kitty = kitties[_id];\r\n\r\n        _genes = kitty.genes;\r\n        _birthTime = uint256(kitty.birthTime);\r\n        _mumId = uint256(kitty.mumId);\r\n        _dadId = uint256(kitty.dadId);\r\n        _generation = uint256(kitty.generation);       \r\n    }\r\n\r\n    function breedKitty(uint256 _dadId, uint256 _mumId) public returns (uint256) {\r\n        //Check ownership\r\n        require(msg.sender != address(0), \"ERC721: balance query for the zero address\");\r\n        require(_ownedBy(msg.sender, _dadId), \"ERC721: breeder is not owner\");\r\n        require(_ownedBy(msg.sender, _mumId), \"ERC721: breeder is not owner\");\r\n\r\n        //DNA is here\r\n        uint256 kittyDna = _mixDna(kitties[_dadId].genes, kitties[_mumId].genes);\r\n\r\n        //Figure out the generation\r\n        uint16 dadGen = kitties[_dadId].generation;\r\n        uint16 mumGen = kitties[_mumId].generation;\r\n        uint16 kittyGen = 0;\r\n        \r\n        if((dadGen + mumGen) > 0) {\r\n            kittyGen = (dadGen + mumGen)/2 + 1;\r\n        } else {\r\n            kittyGen = 1;\r\n        }\r\n\r\n        //Create a new kitty with the new properties, give it to msg.sender\r\n        return _createKitty(_mumId, _dadId, kittyGen, kittyDna, msg.sender);\r\n    }\r\n    \r\n    function balanceOf(address _owner) external view override returns (uint256) {\r\n        require(_owner != address(0), \"ERC721: balance query for the zero address\");\r\n        return _kittyBalance[_owner];\r\n    }\r\n\r\n    function totalSupply() public view override returns (uint256 total) {\r\n        return kitties.length;\r\n    }\r\n\r\n    function name() public pure override returns (string memory) {\r\n        return _name;\r\n    }\r\n\r\n    function symbol() public pure override returns (string memory) {\r\n        return _symbol;\r\n    }\r\n\r\n    function ownerOf(uint256 _tokenId) external view override returns (address) {\r\n        address owner = _kittyOwners[_tokenId];\r\n        require(owner != address(0), \"ERC721: owner query for nonexistent token\");\r\n        return owner;\r\n    }\r\n\r\n    function transfer(address _to, uint256 _tokenId) external override {\r\n        require(address(this) != _to);\r\n        require(address(0) != _to);\r\n        require(_ownedBy(msg.sender, _tokenId));\r\n\r\n        _transfer(msg.sender, _to, _tokenId);\r\n    }\r\n\r\n    function approve(address _to, uint256 _tokenId) external override {\r\n        require(_ownedBy(msg.sender, _tokenId));\r\n        require(_to != msg.sender, \"Address to approve is same as owner address\");\r\n\r\n        _approve(_to, _tokenId);\r\n        emit Approval(msg.sender, _to, _tokenId);\r\n    }\r\n\r\n    function setApprovalForAll(address _operator, bool _approved) external override {\r\n        require(_operator != msg.sender);\r\n\r\n        _operatorApprovals[msg.sender][_operator] = _approved;\r\n        emit ApprovalForAll(msg.sender, _operator, _approved);\r\n    }\r\n\r\n    function getApproved(uint256 _tokenId) public view override returns (address){\r\n        require(_exists(_tokenId), \"ERC721: operator query for nonexistent token\"); //added\r\n        require(_tokenId < kitties.length);\r\n        return _kittyApprovals[_tokenId];\r\n    }\r\n\r\n    function isApprovedForAll(address _owner, address _operator) public view override returns (bool) {\r\n        return _operatorApprovals[_owner][_operator];\r\n    }\r\n\r\n    function transferFrom(address _from, address _to, uint256 _tokenId) public override {\r\n        require(_isApprovedOrOwner(msg.sender, _from, _to, _tokenId), \"ERC721: transfer caller is not owner nor approved\");\r\n\r\n        _transfer(_from, _to, _tokenId);\r\n    }\r\n\r\n    function safeTransferFrom(address _from, address _to, uint256 _tokenId) public override {\r\n        safeTransferFrom(_from, _to, _tokenId);\r\n    }\r\n    \r\n    function safeTransferFrom(address _from, address _to, uint256 _tokenId, bytes calldata _data) public override{\r\n        require(_isApprovedOrOwner(msg.sender, _from, _to, _tokenId), \"ERC721: transfer caller is not owner nor approved\");\r\n        _safeTransfer(_from, _to, _tokenId, _data);\r\n    }\r\n\r\n    function supportsInterface(bytes4 _interfaceId) external pure returns (bool) {\r\n        return (_interfaceId == _INTERFACE_ID_ERC721 || _interfaceId == _INTERFACE_ID_ERC165);\r\n    }\r\n\r\n//re-usable functions\r\n    function _ownedBy(address claimant, uint256 _tokenId) internal view returns(bool) {\r\n        return _kittyOwners[_tokenId] == claimant;\r\n    }\r\n\r\n    function _transfer(address _from, address _to, uint256 _tokenId) internal {\r\n        _kittyBalance[_to]++;\r\n        _kittyOwners[_tokenId] = _to;\r\n        \r\n        if(_from != address(0)){\r\n            _kittyBalance[_from]--;\r\n            delete _kittyApprovals[_tokenId]; //remove approval when token is transferred to another owner\r\n        }\r\n        \r\n        emit Transfer(_from, _to, _tokenId);\r\n    }\r\n\r\n    function _approve(address _to, uint256 _tokenId) internal { \r\n        _kittyApprovals[_tokenId] = _to;\r\n    }\r\n\r\n    function _isApprovedOrOwner(address _spender, address _from, address _to, uint256 _tokenId) internal view returns (bool) {\r\n        require(_exists(_tokenId), \"ERC721: operator query for nonexistent token\");\r\n        require(_ownedBy(_from, _tokenId), \"ERC721: Sender does not own this token\");\r\n        require(_to != address(0));\r\n        return (_spender == _from || getApproved(_tokenId) == _spender || isApprovedForAll(_from, _spender));\r\n    }\r\n\r\n    function _exists(uint256 _tokenId) internal view returns (bool) {\r\n        return _kittyOwners[_tokenId] != address(0);\r\n    }\r\n\r\n    function _safeTransfer(address _from, address _to, uint256 _tokenId, bytes memory _data) internal {\r\n        _transfer(_from, _to, _tokenId);\r\n        require(_checkERC721Support(_from, _to, _tokenId, _data) );\r\n    }\r\n\r\n    function _checkERC721Support(address _from, address _to, uint256 _tokenId, bytes memory _data) internal returns(bool) {\r\n        //checks if receiver is a contract\r\n        if(!_isContract(_to) ){\r\n            return true;\r\n        }\r\n        //Call onERC721Received in the _to contract\r\n        bytes4 returnData = IERC721Receiver(_to).onERC721Received(msg.sender, _from, _tokenId, _data);\r\n        //check return value\r\n        return returnData == MAGIC_ERC721_RECEIVED;\r\n    }\r\n\r\n    function _isContract(address _to) internal view returns (bool){\r\n        uint32 size;\r\n        assembly{\r\n            size := extcodesize(_to)\r\n        }\r\n        return size > 0;\r\n    }\r\n\r\n    function _mixDna(uint256 _dadDna, uint256 _mumDna) internal view returns (uint256) {\r\n        uint256[8] memory geneArray;\r\n\r\n        //pseudo-random: Not used for betting and monetary stuff\r\n        //binary 8bit between 00000000 to 11111111\r\n        uint8 random = uint8( block.timestamp % 255);\r\n\r\n        //1, 2, 4, 8, 16, 32, 64, 128, loop through 8 times\r\n        //values of the 8 numbers above in binary\r\n        //00000001, 00000010, 00000100, 00001000,\r\n        //00010000, 00100000, 01000000, 10000000\r\n        //bitwise operator &\r\n        uint256 i = 1;\r\n        uint256 index = 7;\r\n        for(i = 1; i <= 128; i*=2) {\r\n            if(random & i != 0) {\r\n                geneArray[index] = uint8( _mumDna % 100); //last pair\r\n            } else {\r\n                geneArray[index] = uint8( _dadDna % 100);\r\n            }\r\n            //now remove last pair from dna\r\n            _mumDna /= 100;\r\n            _dadDna /= 100;\r\n\r\n            //reduce index to set position to previous (e.g. from 7 to 6)\r\n            index --;\r\n        }\r\n\r\n        //create DNA into a full number\r\n        uint256 newGene;\r\n        for (i = 0; i < 8; i++) {\r\n            newGene += geneArray[i]; //add first pair to mewGene\r\n            if(i != 7) { //to not add 2 zeroes after the last pair\r\n                newGene *= 100; //adds two zeroes (00), at the end of each pair\r\n            }\r\n        }\r\n        return newGene;\r\n    }\r\n}",
  "sourcePath": "C:/Users/Xyz Fiegalan/OneDrive/Desktop/My Projects/crypto-kitties-clone/Cloning-CryptoKitties/contracts/Kittycontract.sol",
  "compiler": {
    "name": "solc",
    "version": "0.8.6+commit.11564f7e.Emscripten.clang"
  },
  "schemaVersion": "3.3.4",
  "updatedAt": "2021-07-18T16:19:29.362Z",
  "networkType": "ethereum",
  "devdoc": {
    "kind": "dev",
    "methods": {
      "balanceOf(address)": {
        "details": "Returns the number of tokens in ``owner``'s account."
      },
      "getApproved(uint256)": {
        "details": "Throws if `_tokenId` is not a valid NFT.",
        "params": {
          "_tokenId": "The NFT to find the approved address for"
        },
        "returns": {
          "_0": "The approved address for this NFT, or the zero address if there is none"
        }
      },
      "isApprovedForAll(address,address)": {
        "params": {
          "_operator": "The address that acts on behalf of the owner",
          "_owner": "The address that owns the NFTs"
        },
        "returns": {
          "_0": "True if `_operator` is an approved operator for `_owner`, false otherwise"
        }
      },
      "owner()": {
        "details": "Returns the address of the current owner."
      },
      "ownerOf(uint256)": {
        "details": "Returns the owner of the `tokenId` token. Requirements: - `tokenId` must exist."
      },
      "renounceOwnership()": {
        "details": "Leaves the contract without owner. It will not be possible to call `onlyOwner` functions anymore. Can only be called by the current owner. NOTE: Renouncing ownership will leave the contract without an owner, thereby removing any functionality that is only available to the owner."
      },
      "safeTransferFrom(address,address,uint256)": {
        "details": "This works identically to the other function with an extra data parameter,  except this function just sets data to \"\".",
        "params": {
          "_from": "The current owner of the NFT",
          "_to": "The new owner",
          "_tokenId": "The NFT to transfer"
        }
      },
      "setApprovalForAll(address,bool)": {
        "details": "Emits the ApprovalForAll event. The contract MUST allow  multiple operators per owner.",
        "params": {
          "_approved": "True if the operator is approved, false to revoke approval",
          "_operator": "Address to add to the set of authorized operators"
        }
      },
      "transferFrom(address,address,uint256)": {
        "details": "Throws unless `msg.sender` is the current owner, an authorized  operator, or the approved address for this NFT. Throws if `_from` is  not the current owner. Throws if `_to` is the zero address. Throws if  `_tokenId` is not a valid NFT.",
        "params": {
          "_from": "The current owner of the NFT",
          "_to": "The new owner",
          "_tokenId": "The NFT to transfer"
        }
      },
      "transferOwnership(address)": {
        "details": "Transfers ownership of the contract to a new account (`newOwner`). Can only be called by the current owner."
      }
    },
    "version": 1
  },
  "userdoc": {
    "kind": "user",
    "methods": {
      "getApproved(uint256)": {
        "notice": "Get the approved address for a single NFT"
      },
      "isApprovedForAll(address,address)": {
        "notice": "Query if an address is an authorized operator for another address"
      },
      "safeTransferFrom(address,address,uint256)": {
        "notice": "Transfers the ownership of an NFT from one address to another address"
      },
      "setApprovalForAll(address,bool)": {
        "notice": "Enable or disable approval for a third party (\"operator\") to manage  all of `msg.sender`'s assets"
      },
      "transferFrom(address,address,uint256)": {
        "notice": "Transfer ownership of an NFT -- THE CALLER IS RESPONSIBLE  TO CONFIRM THAT `_to` IS CAPABLE OF RECEIVING NFTS OR ELSE  THEY MAY BE PERMANENTLY LOST"
      }
    },
    "version": 1
  }
}