{
  "contractName": "Kittycontract",
  "abi": [
    {
      "anonymous": false,
      "inputs": [
        {
          "indexed": true,
          "internalType": "address",
          "name": "owner",
          "type": "address"
        },
        {
          "indexed": true,
          "internalType": "address",
          "name": "approved",
          "type": "address"
        },
        {
          "indexed": true,
          "internalType": "uint256",
          "name": "tokenId",
          "type": "uint256"
        }
      ],
      "name": "Approval",
      "type": "event"
    },
    {
      "anonymous": false,
      "inputs": [
        {
          "indexed": true,
          "internalType": "address",
          "name": "owner",
          "type": "address"
        },
        {
          "indexed": true,
          "internalType": "address",
          "name": "operator",
          "type": "address"
        },
        {
          "indexed": false,
          "internalType": "bool",
          "name": "approved",
          "type": "bool"
        }
      ],
      "name": "ApprovalForAll",
      "type": "event"
    },
    {
      "anonymous": false,
      "inputs": [
        {
          "indexed": false,
          "internalType": "address",
          "name": "owner",
          "type": "address"
        },
        {
          "indexed": false,
          "internalType": "uint256",
          "name": "kittenId",
          "type": "uint256"
        },
        {
          "indexed": false,
          "internalType": "uint256",
          "name": "mumId",
          "type": "uint256"
        },
        {
          "indexed": false,
          "internalType": "uint256",
          "name": "dadId",
          "type": "uint256"
        },
        {
          "indexed": false,
          "internalType": "uint256",
          "name": "genes",
          "type": "uint256"
        }
      ],
      "name": "Birth",
      "type": "event"
    },
    {
      "anonymous": false,
      "inputs": [
        {
          "indexed": true,
          "internalType": "address",
          "name": "previousOwner",
          "type": "address"
        },
        {
          "indexed": true,
          "internalType": "address",
          "name": "newOwner",
          "type": "address"
        }
      ],
      "name": "OwnershipTransferred",
      "type": "event"
    },
    {
      "anonymous": false,
      "inputs": [
        {
          "indexed": true,
          "internalType": "address",
          "name": "from",
          "type": "address"
        },
        {
          "indexed": true,
          "internalType": "address",
          "name": "to",
          "type": "address"
        },
        {
          "indexed": true,
          "internalType": "uint256",
          "name": "tokenId",
          "type": "uint256"
        }
      ],
      "name": "Transfer",
      "type": "event"
    },
    {
      "inputs": [],
      "name": "Gen0_Kitties_created",
      "outputs": [
        {
          "internalType": "uint256",
          "name": "",
          "type": "uint256"
        }
      ],
      "stateMutability": "view",
      "type": "function",
      "constant": true
    },
    {
      "inputs": [],
      "name": "Gen0_limit",
      "outputs": [
        {
          "internalType": "uint256",
          "name": "",
          "type": "uint256"
        }
      ],
      "stateMutability": "view",
      "type": "function",
      "constant": true
    },
    {
      "inputs": [
        {
          "internalType": "uint256",
          "name": "",
          "type": "uint256"
        }
      ],
      "name": "_kittyApprovals",
      "outputs": [
        {
          "internalType": "address",
          "name": "",
          "type": "address"
        }
      ],
      "stateMutability": "view",
      "type": "function",
      "constant": true
    },
    {
      "inputs": [
        {
          "internalType": "address",
          "name": "",
          "type": "address"
        }
      ],
      "name": "_kittyBalance",
      "outputs": [
        {
          "internalType": "uint256",
          "name": "",
          "type": "uint256"
        }
      ],
      "stateMutability": "view",
      "type": "function",
      "constant": true
    },
    {
      "inputs": [],
      "name": "_name",
      "outputs": [
        {
          "internalType": "string",
          "name": "",
          "type": "string"
        }
      ],
      "stateMutability": "view",
      "type": "function",
      "constant": true
    },
    {
      "inputs": [],
      "name": "_symbol",
      "outputs": [
        {
          "internalType": "string",
          "name": "",
          "type": "string"
        }
      ],
      "stateMutability": "view",
      "type": "function",
      "constant": true
    },
    {
      "inputs": [],
      "name": "owner",
      "outputs": [
        {
          "internalType": "address",
          "name": "",
          "type": "address"
        }
      ],
      "stateMutability": "view",
      "type": "function",
      "constant": true
    },
    {
      "inputs": [],
      "name": "renounceOwnership",
      "outputs": [],
      "stateMutability": "nonpayable",
      "type": "function"
    },
    {
      "inputs": [
        {
          "internalType": "address",
          "name": "newOwner",
          "type": "address"
        }
      ],
      "name": "transferOwnership",
      "outputs": [],
      "stateMutability": "nonpayable",
      "type": "function"
    },
    {
      "inputs": [
        {
          "internalType": "uint256",
          "name": "_genes",
          "type": "uint256"
        }
      ],
      "name": "createKittyGen0",
      "outputs": [
        {
          "internalType": "uint256",
          "name": "",
          "type": "uint256"
        }
      ],
      "stateMutability": "nonpayable",
      "type": "function"
    },
    {
      "inputs": [
        {
          "internalType": "address",
          "name": "_owner",
          "type": "address"
        }
      ],
      "name": "getKittyByOwner",
      "outputs": [
        {
          "internalType": "uint256[]",
          "name": "",
          "type": "uint256[]"
        }
      ],
      "stateMutability": "view",
      "type": "function",
      "constant": true
    },
    {
      "inputs": [
        {
          "internalType": "uint256",
          "name": "_id",
          "type": "uint256"
        }
      ],
      "name": "getKitty",
      "outputs": [
        {
          "internalType": "uint256",
          "name": "_genes",
          "type": "uint256"
        },
        {
          "internalType": "uint256",
          "name": "_birthTime",
          "type": "uint256"
        },
        {
          "internalType": "uint256",
          "name": "_mumId",
          "type": "uint256"
        },
        {
          "internalType": "uint256",
          "name": "_dadId",
          "type": "uint256"
        },
        {
          "internalType": "uint256",
          "name": "_generation",
          "type": "uint256"
        }
      ],
      "stateMutability": "view",
      "type": "function",
      "constant": true
    },
    {
      "inputs": [
        {
          "internalType": "uint256",
          "name": "_dadId",
          "type": "uint256"
        },
        {
          "internalType": "uint256",
          "name": "_mumId",
          "type": "uint256"
        }
      ],
      "name": "breedKitty",
      "outputs": [
        {
          "internalType": "uint256",
          "name": "",
          "type": "uint256"
        }
      ],
      "stateMutability": "nonpayable",
      "type": "function"
    },
    {
      "inputs": [
        {
          "internalType": "address",
          "name": "_owner",
          "type": "address"
        }
      ],
      "name": "balanceOf",
      "outputs": [
        {
          "internalType": "uint256",
          "name": "",
          "type": "uint256"
        }
      ],
      "stateMutability": "view",
      "type": "function",
      "constant": true
    },
    {
      "inputs": [],
      "name": "totalSupply",
      "outputs": [
        {
          "internalType": "uint256",
          "name": "total",
          "type": "uint256"
        }
      ],
      "stateMutability": "view",
      "type": "function",
      "constant": true
    },
    {
      "inputs": [],
      "name": "name",
      "outputs": [
        {
          "internalType": "string",
          "name": "",
          "type": "string"
        }
      ],
      "stateMutability": "pure",
      "type": "function",
      "constant": true
    },
    {
      "inputs": [],
      "name": "symbol",
      "outputs": [
        {
          "internalType": "string",
          "name": "",
          "type": "string"
        }
      ],
      "stateMutability": "pure",
      "type": "function",
      "constant": true
    },
    {
      "inputs": [
        {
          "internalType": "uint256",
          "name": "_tokenId",
          "type": "uint256"
        }
      ],
      "name": "ownerOf",
      "outputs": [
        {
          "internalType": "address",
          "name": "",
          "type": "address"
        }
      ],
      "stateMutability": "view",
      "type": "function",
      "constant": true
    },
    {
      "inputs": [
        {
          "internalType": "address",
          "name": "_to",
          "type": "address"
        },
        {
          "internalType": "uint256",
          "name": "_tokenId",
          "type": "uint256"
        }
      ],
      "name": "transfer",
      "outputs": [],
      "stateMutability": "nonpayable",
      "type": "function"
    },
    {
      "inputs": [
        {
          "internalType": "address",
          "name": "_to",
          "type": "address"
        },
        {
          "internalType": "uint256",
          "name": "_tokenId",
          "type": "uint256"
        }
      ],
      "name": "approve",
      "outputs": [],
      "stateMutability": "nonpayable",
      "type": "function"
    },
    {
      "inputs": [
        {
          "internalType": "address",
          "name": "_operator",
          "type": "address"
        },
        {
          "internalType": "bool",
          "name": "_approved",
          "type": "bool"
        }
      ],
      "name": "setApprovalForAll",
      "outputs": [],
      "stateMutability": "nonpayable",
      "type": "function"
    },
    {
      "inputs": [
        {
          "internalType": "uint256",
          "name": "_tokenId",
          "type": "uint256"
        }
      ],
      "name": "getApproved",
      "outputs": [
        {
          "internalType": "address",
          "name": "",
          "type": "address"
        }
      ],
      "stateMutability": "view",
      "type": "function",
      "constant": true
    },
    {
      "inputs": [
        {
          "internalType": "address",
          "name": "_owner",
          "type": "address"
        },
        {
          "internalType": "address",
          "name": "_operator",
          "type": "address"
        }
      ],
      "name": "isApprovedForAll",
      "outputs": [
        {
          "internalType": "bool",
          "name": "",
          "type": "bool"
        }
      ],
      "stateMutability": "view",
      "type": "function",
      "constant": true
    },
    {
      "inputs": [
        {
          "internalType": "address",
          "name": "_from",
          "type": "address"
        },
        {
          "internalType": "address",
          "name": "_to",
          "type": "address"
        },
        {
          "internalType": "uint256",
          "name": "_tokenId",
          "type": "uint256"
        }
      ],
      "name": "transferFrom",
      "outputs": [],
      "stateMutability": "nonpayable",
      "type": "function"
    },
    {
      "inputs": [
        {
          "internalType": "address",
          "name": "_from",
          "type": "address"
        },
        {
          "internalType": "address",
          "name": "_to",
          "type": "address"
        },
        {
          "internalType": "uint256",
          "name": "_tokenId",
          "type": "uint256"
        }
      ],
      "name": "safeTransferFrom",
      "outputs": [],
      "stateMutability": "nonpayable",
      "type": "function"
    },
    {
      "inputs": [
        {
          "internalType": "address",
          "name": "_from",
          "type": "address"
        },
        {
          "internalType": "address",
          "name": "_to",
          "type": "address"
        },
        {
          "internalType": "uint256",
          "name": "_tokenId",
          "type": "uint256"
        },
        {
          "internalType": "bytes",
          "name": "_data",
          "type": "bytes"
        }
      ],
      "name": "safeTransferFrom",
      "outputs": [],
      "stateMutability": "nonpayable",
      "type": "function"
    },
    {
      "inputs": [
        {
          "internalType": "bytes4",
          "name": "_interfaceId",
          "type": "bytes4"
        }
      ],
      "name": "supportsInterface",
      "outputs": [
        {
          "internalType": "bool",
          "name": "",
          "type": "bool"
        }
      ],
      "stateMutability": "pure",
      "type": "function",
      "constant": true
    }
  ],
  "bytecode": "0x608060405234801561001057600080fd5b5060006100216100c460201b60201c565b9050806000806101000a81548173ffffffffffffffffffffffffffffffffffffffff021916908373ffffffffffffffffffffffffffffffffffffffff1602179055508073ffffffffffffffffffffffffffffffffffffffff16600073ffffffffffffffffffffffffffffffffffffffff167f8be0079c531659141344cd1fd0a4f28419497f9722a3daafe3b4186f6b6457e060405160405180910390a3506100cc565b600033905090565b612e7480620000dc6000396000f3fe608060405234801561001057600080fd5b50600436106101a95760003560e01c80638da5cb5b116100f9578063b88d4fde11610097578063e23b07af11610071578063e23b07af146104d0578063e985e9c514610500578063e98b7f4d14610530578063f2fde38b14610564576101a9565b8063b88d4fde14610466578063d28d885214610482578063d5a776ca146104a0576101a9565b8063a22cb465116100d3578063a22cb465146103e0578063a9059cbb146103fc578063b043d19c14610418578063b09f126614610448576101a9565b80638da5cb5b1461037457806395d89b411461039257806395e6c62f146103b0576101a9565b806323b872dd116101665780636352211e116101405780636352211e146102da57806370a082311461030a578063715018a61461033a5780637371925114610344576101a9565b806323b872dd146102845780633cd331f5146102a057806342842e0e146102be576101a9565b806301ffc9a7146101ae57806306fdde03146101de578063081812fc146101fc578063095ea7b31461022c57806318160ddd146102485780631d94ab0414610266575b600080fd5b6101c860048036038101906101c3919061211f565b610580565b6040516101d59190612564565b60405180910390f35b6101e6610620565b6040516101f3919061257f565b60405180910390f35b61021660048036038101906102119190612179565b61065d565b6040516102239190612488565b60405180910390f35b610246600480360381019061024191906120df565b6106f3565b005b6102506107de565b60405161025d91906126c1565b60405180910390f35b61026e6107eb565b60405161027b91906126c1565b60405180910390f35b61029e60048036038101906102999190611fc4565b6107f1565b005b6102a861084c565b6040516102b591906126c1565b60405180910390f35b6102d860048036038101906102d39190611fc4565b610851565b005b6102f460048036038101906102ef9190612179565b610861565b6040516103019190612488565b60405180910390f35b610324600480360381019061031f9190611f57565b610913565b60405161033191906126c1565b60405180910390f35b6103426109cb565b005b61035e60048036038101906103599190612179565b610b05565b60405161036b9190612488565b60405180910390f35b61037c610b38565b6040516103899190612488565b60405180910390f35b61039a610b61565b6040516103a7919061257f565b60405180910390f35b6103ca60048036038101906103c59190611f57565b610b9e565b6040516103d79190612542565b60405180910390f35b6103fa60048036038101906103f5919061209f565b610cf1565b005b610416600480360381019061041191906120df565b610e27565b005b610432600480360381019061042d91906121a6565b610ebc565b60405161043f91906126c1565b60405180910390f35b6104506110ed565b60405161045d919061257f565b60405180910390f35b610480600480360381019061047b9190612017565b611126565b005b61048a6111c8565b604051610497919061257f565b60405180910390f35b6104ba60048036038101906104b59190612179565b611201565b6040516104c791906126c1565b60405180910390f35b6104ea60048036038101906104e59190611f57565b6112bc565b6040516104f791906126c1565b60405180910390f35b61051a60048036038101906105159190611f84565b6112d4565b6040516105279190612564565b60405180910390f35b61054a60048036038101906105459190612179565b611368565b60405161055b9594939291906126dc565b60405180910390f35b61057e60048036038101906105799190611f57565b61141e565b005b60006380ac58cd60e01b7bffffffffffffffffffffffffffffffffffffffffffffffffffffffff1916827bffffffffffffffffffffffffffffffffffffffffffffffffffffffff1916148061061957506301ffc9a760e01b7bffffffffffffffffffffffffffffffffffffffffffffffffffffffff1916827bffffffffffffffffffffffffffffffffffffffffffffffffffffffff1916145b9050919050565b60606040518060400160405280600a81526020017f4b69747479437574696500000000000000000000000000000000000000000000815250905090565b6000610668826115c7565b6106a7576040517f08c379a000000000000000000000000000000000000000000000000000000000815260040161069e906125c1565b60405180910390fd5b60018054905082106106b857600080fd5b6004600083815260200190815260200160002060009054906101000a900473ffffffffffffffffffffffffffffffffffffffff169050919050565b6106fd3382611633565b61070657600080fd5b3373ffffffffffffffffffffffffffffffffffffffff168273ffffffffffffffffffffffffffffffffffffffff161415610775576040517f08c379a000000000000000000000000000000000000000000000000000000000815260040161076c90612621565b60405180910390fd5b61077f828261169f565b808273ffffffffffffffffffffffffffffffffffffffff163373ffffffffffffffffffffffffffffffffffffffff167f8c5be1e5ebec7d5bd14f71427d1e84f3dd0314c0f7b2291e5b200ac8c7c3b92560405160405180910390a45050565b6000600180549050905090565b60065481565b6107fd338484846116f5565b61083c576040517f08c379a000000000000000000000000000000000000000000000000000000000815260040161083390612661565b60405180910390fd5b61084783838361184a565b505050565b601481565b61085c838383610851565b505050565b6000806003600084815260200190815260200160002060009054906101000a900473ffffffffffffffffffffffffffffffffffffffff169050600073ffffffffffffffffffffffffffffffffffffffff168173ffffffffffffffffffffffffffffffffffffffff16141561090a576040517f08c379a000000000000000000000000000000000000000000000000000000000815260040161090190612601565b60405180910390fd5b80915050919050565b60008073ffffffffffffffffffffffffffffffffffffffff168273ffffffffffffffffffffffffffffffffffffffff161415610984576040517f08c379a000000000000000000000000000000000000000000000000000000000815260040161097b906125e1565b60405180910390fd5b600260008373ffffffffffffffffffffffffffffffffffffffff1673ffffffffffffffffffffffffffffffffffffffff168152602001908152602001600020549050919050565b6109d3611a11565b73ffffffffffffffffffffffffffffffffffffffff166109f1610b38565b73ffffffffffffffffffffffffffffffffffffffff1614610a47576040517f08c379a0000000000000000000000000000000000000000000000000000000008152600401610a3e90612641565b60405180910390fd5b600073ffffffffffffffffffffffffffffffffffffffff1660008054906101000a900473ffffffffffffffffffffffffffffffffffffffff1673ffffffffffffffffffffffffffffffffffffffff167f8be0079c531659141344cd1fd0a4f28419497f9722a3daafe3b4186f6b6457e060405160405180910390a360008060006101000a81548173ffffffffffffffffffffffffffffffffffffffff021916908373ffffffffffffffffffffffffffffffffffffffff160217905550565b60046020528060005260406000206000915054906101000a900473ffffffffffffffffffffffffffffffffffffffff1681565b60008060009054906101000a900473ffffffffffffffffffffffffffffffffffffffff16905090565b60606040518060400160405280600481526020017f4b54435400000000000000000000000000000000000000000000000000000000815250905090565b60606000600260008473ffffffffffffffffffffffffffffffffffffffff1673ffffffffffffffffffffffffffffffffffffffff1681526020019081526020016000205467ffffffffffffffff811115610bfb57610bfa612b0e565b5b604051908082528060200260200182016040528015610c295781602001602082028036833780820191505090505b5090506000805b600180549050811015610ce6578473ffffffffffffffffffffffffffffffffffffffff166003600083815260200190815260200160002060009054906101000a900473ffffffffffffffffffffffffffffffffffffffff1673ffffffffffffffffffffffffffffffffffffffff161415610cd35780838381518110610cb857610cb7612adf565b5b6020026020010181815250508180610ccf906129fd565b9250505b8080610cde906129fd565b915050610c30565b508192505050919050565b3373ffffffffffffffffffffffffffffffffffffffff168273ffffffffffffffffffffffffffffffffffffffff161415610d2a57600080fd5b80600560003373ffffffffffffffffffffffffffffffffffffffff1673ffffffffffffffffffffffffffffffffffffffff16815260200190815260200160002060008473ffffffffffffffffffffffffffffffffffffffff1673ffffffffffffffffffffffffffffffffffffffff16815260200190815260200160002060006101000a81548160ff0219169083151502179055508173ffffffffffffffffffffffffffffffffffffffff163373ffffffffffffffffffffffffffffffffffffffff167f17307eab39ab6107e8899845ad3d59bd9653f200f220920489ca2b5937696c3183604051610e1b9190612564565b60405180910390a35050565b8173ffffffffffffffffffffffffffffffffffffffff163073ffffffffffffffffffffffffffffffffffffffff161415610e6057600080fd5b8173ffffffffffffffffffffffffffffffffffffffff16600073ffffffffffffffffffffffffffffffffffffffff161415610e9a57600080fd5b610ea43382611633565b610ead57600080fd5b610eb833838361184a565b5050565b60008073ffffffffffffffffffffffffffffffffffffffff163373ffffffffffffffffffffffffffffffffffffffff161415610f2d576040517f08c379a0000000000000000000000000000000000000000000000000000000008152600401610f24906125e1565b60405180910390fd5b610f373384611633565b610f76576040517f08c379a0000000000000000000000000000000000000000000000000000000008152600401610f6d906126a1565b60405180910390fd5b610f803383611633565b610fbf576040517f08c379a0000000000000000000000000000000000000000000000000000000008152600401610fb6906126a1565b60405180910390fd5b600061101560018581548110610fd857610fd7612adf565b5b90600052602060002090600202016000015460018581548110610ffe57610ffd612adf565b5b906000526020600020906002020160000154611a19565b905060006001858154811061102d5761102c612adf565b5b906000526020600020906002020160010160109054906101000a900461ffff16905060006001858154811061106557611064612adf565b5b906000526020600020906002020160010160109054906101000a900461ffff169050600080828461109691906127a0565b61ffff1611156110cb576001600283856110b091906127a0565b6110ba919061282e565b6110c491906127a0565b90506110d0565b600190505b6110e186888361ffff168733611b90565b94505050505092915050565b6040518060400160405280600481526020017f4b5443540000000000000000000000000000000000000000000000000000000081525081565b611132338686866116f5565b611171576040517f08c379a000000000000000000000000000000000000000000000000000000000815260040161116890612661565b60405180910390fd5b6111c185858585858080601f016020809104026020016040519081016040528093929190818152602001838380828437600081840152601f19601f82011690508083019250505050505050611d1c565b5050505050565b6040518060400160405280600a81526020017f4b6974747943757469650000000000000000000000000000000000000000000081525081565b600061120b611a11565b73ffffffffffffffffffffffffffffffffffffffff16611229610b38565b73ffffffffffffffffffffffffffffffffffffffff161461127f576040517f08c379a000000000000000000000000000000000000000000000000000000000815260040161127690612641565b60405180910390fd5b60146006541061128e57600080fd5b600660008154809291906112a1906129fd565b91905055506112b560008060008533611b90565b9050919050565b60026020528060005260406000206000915090505481565b6000600560008473ffffffffffffffffffffffffffffffffffffffff1673ffffffffffffffffffffffffffffffffffffffff16815260200190815260200160002060008373ffffffffffffffffffffffffffffffffffffffff1673ffffffffffffffffffffffffffffffffffffffff16815260200190815260200160002060009054906101000a900460ff16905092915050565b6000806000806000806001878154811061138557611384612adf565b5b90600052602060002090600202019050806000015495508060010160009054906101000a900467ffffffffffffffff1667ffffffffffffffff1694508060010160089054906101000a900463ffffffff1663ffffffff16935080600101600c9054906101000a900463ffffffff1663ffffffff1692508060010160109054906101000a900461ffff1661ffff1691505091939590929450565b611426611a11565b73ffffffffffffffffffffffffffffffffffffffff16611444610b38565b73ffffffffffffffffffffffffffffffffffffffff161461149a576040517f08c379a000000000000000000000000000000000000000000000000000000000815260040161149190612641565b60405180910390fd5b600073ffffffffffffffffffffffffffffffffffffffff168173ffffffffffffffffffffffffffffffffffffffff16141561150a576040517f08c379a0000000000000000000000000000000000000000000000000000000008152600401611501906125a1565b60405180910390fd5b8073ffffffffffffffffffffffffffffffffffffffff1660008054906101000a900473ffffffffffffffffffffffffffffffffffffffff1673ffffffffffffffffffffffffffffffffffffffff167f8be0079c531659141344cd1fd0a4f28419497f9722a3daafe3b4186f6b6457e060405160405180910390a3806000806101000a81548173ffffffffffffffffffffffffffffffffffffffff021916908373ffffffffffffffffffffffffffffffffffffffff16021790555050565b60008073ffffffffffffffffffffffffffffffffffffffff166003600084815260200190815260200160002060009054906101000a900473ffffffffffffffffffffffffffffffffffffffff1673ffffffffffffffffffffffffffffffffffffffff1614159050919050565b60008273ffffffffffffffffffffffffffffffffffffffff166003600084815260200190815260200160002060009054906101000a900473ffffffffffffffffffffffffffffffffffffffff1673ffffffffffffffffffffffffffffffffffffffff1614905092915050565b816004600083815260200190815260200160002060006101000a81548173ffffffffffffffffffffffffffffffffffffffff021916908373ffffffffffffffffffffffffffffffffffffffff1602179055505050565b6000611700826115c7565b61173f576040517f08c379a0000000000000000000000000000000000000000000000000000000008152600401611736906125c1565b60405180910390fd5b6117498483611633565b611788576040517f08c379a000000000000000000000000000000000000000000000000000000000815260040161177f90612681565b60405180910390fd5b600073ffffffffffffffffffffffffffffffffffffffff168373ffffffffffffffffffffffffffffffffffffffff1614156117c257600080fd5b8373ffffffffffffffffffffffffffffffffffffffff168573ffffffffffffffffffffffffffffffffffffffff16148061182f57508473ffffffffffffffffffffffffffffffffffffffff166118178361065d565b73ffffffffffffffffffffffffffffffffffffffff16145b80611840575061183f84866112d4565b5b9050949350505050565b600260008373ffffffffffffffffffffffffffffffffffffffff1673ffffffffffffffffffffffffffffffffffffffff168152602001908152602001600020600081548092919061189a906129fd565b9190505550816003600083815260200190815260200160002060006101000a81548173ffffffffffffffffffffffffffffffffffffffff021916908373ffffffffffffffffffffffffffffffffffffffff160217905550600073ffffffffffffffffffffffffffffffffffffffff168373ffffffffffffffffffffffffffffffffffffffff16146119b157600260008473ffffffffffffffffffffffffffffffffffffffff1673ffffffffffffffffffffffffffffffffffffffff1681526020019081526020016000206000815480929190611975906129d3565b91905055506004600082815260200190815260200160002060006101000a81549073ffffffffffffffffffffffffffffffffffffffff02191690555b808273ffffffffffffffffffffffffffffffffffffffff168473ffffffffffffffffffffffffffffffffffffffff167fddf252ad1be2c89b69c2b068fc378daa952ba7f163c4a11628f55a4df523b3ef60405160405180910390a4505050565b600033905090565b6000611a23611e75565b600060ff4244604051602001611a3a92919061245c565b6040516020818303038152906040528051906020012060001c611a5d9190612a50565b9050600060019050600060079050600191505b60808211611b23576000828460ff161614611ab657606486611a929190612a50565b60ff16848260088110611aa857611aa7612adf565b5b602002018181525050611ae3565b606487611ac39190612a50565b60ff16848260088110611ad957611ad8612adf565b5b6020020181815250505b606486611af0919061285f565b9550606487611aff919061285f565b96508080611b0c906129d3565b915050600282611b1c9190612890565b9150611a70565b60008092505b6008831015611b8257848360088110611b4557611b44612adf565b5b602002015181611b5591906127d8565b905060078314611b6f57606481611b6c9190612890565b90505b8280611b7a906129fd565b935050611b29565b809550505050505092915050565b6000806040518060a001604052808581526020014267ffffffffffffffff1681526020018863ffffffff1681526020018763ffffffff1681526020018661ffff16815250905060018190806001815401808255809150506001900390600052602060002090600202016000909190919091506000820151816000015560208201518160010160006101000a81548167ffffffffffffffff021916908367ffffffffffffffff16021790555060408201518160010160086101000a81548163ffffffff021916908363ffffffff160217905550606082015181600101600c6101000a81548163ffffffff021916908363ffffffff16021790555060808201518160010160106101000a81548161ffff021916908361ffff1602179055505050600060018080549050611cc191906128ea565b90507f0a5311bd2a6608f08a180df2ee7c5946819a649b204b554bb8e39825b2c50ad584828a8a89604051611cfa9594939291906124ef565b60405180910390a1611d0e6000858361184a565b809250505095945050505050565b611d2784848461184a565b611d3384848484611d42565b611d3c57600080fd5b50505050565b6000611d4d84611e5c565b611d5a5760019050611e54565b60008473ffffffffffffffffffffffffffffffffffffffff1663150b7a02338887876040518563ffffffff1660e01b8152600401611d9b94939291906124a3565b602060405180830381600087803b158015611db557600080fd5b505af1158015611dc9573d6000803e3d6000fd5b505050506040513d601f19601f82011682018060405250810190611ded919061214c565b90507f150b7a023d4804d13e8c85fb27262cb750cf6ba9f9dd3bb30d90f482ceeb4b1f7bffffffffffffffffffffffffffffffffffffffffffffffffffffffff1916817bffffffffffffffffffffffffffffffffffffffffffffffffffffffff1916149150505b949350505050565b600080823b905060008163ffffffff1611915050919050565b604051806101000160405280600890602082028036833780820191505090505090565b600081359050611ea781612de2565b92915050565b600081359050611ebc81612df9565b92915050565b600081359050611ed181612e10565b92915050565b600081519050611ee681612e10565b92915050565b60008083601f840112611f0257611f01612b42565b5b8235905067ffffffffffffffff811115611f1f57611f1e612b3d565b5b602083019150836001820283011115611f3b57611f3a612b47565b5b9250929050565b600081359050611f5181612e27565b92915050565b600060208284031215611f6d57611f6c612b51565b5b6000611f7b84828501611e98565b91505092915050565b60008060408385031215611f9b57611f9a612b51565b5b6000611fa985828601611e98565b9250506020611fba85828601611e98565b9150509250929050565b600080600060608486031215611fdd57611fdc612b51565b5b6000611feb86828701611e98565b9350506020611ffc86828701611e98565b925050604061200d86828701611f42565b9150509250925092565b60008060008060006080868803121561203357612032612b51565b5b600061204188828901611e98565b955050602061205288828901611e98565b945050604061206388828901611f42565b935050606086013567ffffffffffffffff81111561208457612083612b4c565b5b61209088828901611eec565b92509250509295509295909350565b600080604083850312156120b6576120b5612b51565b5b60006120c485828601611e98565b92505060206120d585828601611ead565b9150509250929050565b600080604083850312156120f6576120f5612b51565b5b600061210485828601611e98565b925050602061211585828601611f42565b9150509250929050565b60006020828403121561213557612134612b51565b5b600061214384828501611ec2565b91505092915050565b60006020828403121561216257612161612b51565b5b600061217084828501611ed7565b91505092915050565b60006020828403121561218f5761218e612b51565b5b600061219d84828501611f42565b91505092915050565b600080604083850312156121bd576121bc612b51565b5b60006121cb85828601611f42565b92505060206121dc85828601611f42565b9150509250929050565b60006121f28383612427565b60208301905092915050565b6122078161291e565b82525050565b60006122188261273f565b612222818561276d565b935061222d8361272f565b8060005b8381101561225e57815161224588826121e6565b975061225083612760565b925050600181019050612231565b5085935050505092915050565b61227481612930565b82525050565b60006122858261274a565b61228f818561277e565b935061229f8185602086016129a0565b6122a881612b56565b840191505092915050565b60006122be82612755565b6122c8818561278f565b93506122d88185602086016129a0565b6122e181612b56565b840191505092915050565b60006122f960268361278f565b915061230482612b67565b604082019050919050565b600061231c602c8361278f565b915061232782612bb6565b604082019050919050565b600061233f602a8361278f565b915061234a82612c05565b604082019050919050565b600061236260298361278f565b915061236d82612c54565b604082019050919050565b6000612385602b8361278f565b915061239082612ca3565b604082019050919050565b60006123a860208361278f565b91506123b382612cf2565b602082019050919050565b60006123cb60318361278f565b91506123d682612d1b565b604082019050919050565b60006123ee60268361278f565b91506123f982612d6a565b604082019050919050565b6000612411601c8361278f565b915061241c82612db9565b602082019050919050565b61243081612996565b82525050565b61243f81612996565b82525050565b61245661245182612996565b612a46565b82525050565b60006124688285612445565b6020820191506124788284612445565b6020820191508190509392505050565b600060208201905061249d60008301846121fe565b92915050565b60006080820190506124b860008301876121fe565b6124c560208301866121fe565b6124d26040830185612436565b81810360608301526124e4818461227a565b905095945050505050565b600060a08201905061250460008301886121fe565b6125116020830187612436565b61251e6040830186612436565b61252b6060830185612436565b6125386080830184612436565b9695505050505050565b6000602082019050818103600083015261255c818461220d565b905092915050565b6000602082019050612579600083018461226b565b92915050565b6000602082019050818103600083015261259981846122b3565b905092915050565b600060208201905081810360008301526125ba816122ec565b9050919050565b600060208201905081810360008301526125da8161230f565b9050919050565b600060208201905081810360008301526125fa81612332565b9050919050565b6000602082019050818103600083015261261a81612355565b9050919050565b6000602082019050818103600083015261263a81612378565b9050919050565b6000602082019050818103600083015261265a8161239b565b9050919050565b6000602082019050818103600083015261267a816123be565b9050919050565b6000602082019050818103600083015261269a816123e1565b9050919050565b600060208201905081810360008301526126ba81612404565b9050919050565b60006020820190506126d66000830184612436565b92915050565b600060a0820190506126f16000830188612436565b6126fe6020830187612436565b61270b6040830186612436565b6127186060830185612436565b6127256080830184612436565b9695505050505050565b6000819050602082019050919050565b600081519050919050565b600081519050919050565b600081519050919050565b6000602082019050919050565b600082825260208201905092915050565b600082825260208201905092915050565b600082825260208201905092915050565b60006127ab82612968565b91506127b683612968565b92508261ffff038211156127cd576127cc612a81565b5b828201905092915050565b60006127e382612996565b91506127ee83612996565b9250827fffffffffffffffffffffffffffffffffffffffffffffffffffffffffffffffff0382111561282357612822612a81565b5b828201905092915050565b600061283982612968565b915061284483612968565b92508261285457612853612ab0565b5b828204905092915050565b600061286a82612996565b915061287583612996565b92508261288557612884612ab0565b5b828204905092915050565b600061289b82612996565b91506128a683612996565b9250817fffffffffffffffffffffffffffffffffffffffffffffffffffffffffffffffff04831182151516156128df576128de612a81565b5b828202905092915050565b60006128f582612996565b915061290083612996565b92508282101561291357612912612a81565b5b828203905092915050565b600061292982612976565b9050919050565b60008115159050919050565b60007fffffffff0000000000000000000000000000000000000000000000000000000082169050919050565b600061ffff82169050919050565b600073ffffffffffffffffffffffffffffffffffffffff82169050919050565b6000819050919050565b60005b838110156129be5780820151818401526020810190506129a3565b838111156129cd576000848401525b50505050565b60006129de82612996565b915060008214156129f2576129f1612a81565b5b600182039050919050565b6000612a0882612996565b91507fffffffffffffffffffffffffffffffffffffffffffffffffffffffffffffffff821415612a3b57612a3a612a81565b5b600182019050919050565b6000819050919050565b6000612a5b82612996565b9150612a6683612996565b925082612a7657612a75612ab0565b5b828206905092915050565b7f4e487b7100000000000000000000000000000000000000000000000000000000600052601160045260246000fd5b7f4e487b7100000000000000000000000000000000000000000000000000000000600052601260045260246000fd5b7f4e487b7100000000000000000000000000000000000000000000000000000000600052603260045260246000fd5b7f4e487b7100000000000000000000000000000000000000000000000000000000600052604160045260246000fd5b600080fd5b600080fd5b600080fd5b600080fd5b600080fd5b6000601f19601f8301169050919050565b7f4f776e61626c653a206e6577206f776e657220697320746865207a65726f206160008201527f6464726573730000000000000000000000000000000000000000000000000000602082015250565b7f4552433732313a206f70657261746f7220717565727920666f72206e6f6e657860008201527f697374656e7420746f6b656e0000000000000000000000000000000000000000602082015250565b7f4552433732313a2062616c616e636520717565727920666f7220746865207a6560008201527f726f206164647265737300000000000000000000000000000000000000000000602082015250565b7f4552433732313a206f776e657220717565727920666f72206e6f6e657869737460008201527f656e7420746f6b656e0000000000000000000000000000000000000000000000602082015250565b7f4164647265737320746f20617070726f76652069732073616d65206173206f7760008201527f6e65722061646472657373000000000000000000000000000000000000000000602082015250565b7f4f776e61626c653a2063616c6c6572206973206e6f7420746865206f776e6572600082015250565b7f4552433732313a207472616e736665722063616c6c6572206973206e6f74206f60008201527f776e6572206e6f7220617070726f766564000000000000000000000000000000602082015250565b7f4552433732313a2053656e64657220646f6573206e6f74206f776e207468697360008201527f20746f6b656e0000000000000000000000000000000000000000000000000000602082015250565b7f4552433732313a2062726565646572206973206e6f74206f776e657200000000600082015250565b612deb8161291e565b8114612df657600080fd5b50565b612e0281612930565b8114612e0d57600080fd5b50565b612e198161293c565b8114612e2457600080fd5b50565b612e3081612996565b8114612e3b57600080fd5b5056fea2646970667358221220f5aaeb143f9c9c9b9714ba2669dac316faa2818e057aa243abc3c8f8b537c9ae64736f6c63430008060033",
  "immutableReferences": {},
  "source": "// SPDX-License-Identifier: MIT\r\npragma solidity ^0.8.0;\r\n\r\nimport \"./IERC721.sol\";\r\nimport \"./IERC721Receiver.sol\";\r\nimport \"../node_modules/@openzeppelin/contracts/utils/math/SafeMath.sol\";\r\nimport \"../node_modules/@openzeppelin/contracts/access/Ownable.sol\";\r\n\r\ncontract Kittycontract is IERC721, Ownable {\r\n    using SafeMath for uint256;\r\n\r\n    string public constant _name = \"KittyCutie\";\r\n    string public constant _symbol = \"KTCT\";\r\n    uint256 public constant Gen0_limit = 20;\r\n\r\n    bytes4 internal constant MAGIC_ERC721_RECEIVED =\r\n        bytes4(keccak256(\"onERC721Received(address,address,uint256,bytes)\"));\r\n\r\n    //interfaces supported\r\n    bytes4 private constant _INTERFACE_ID_ERC721 = 0x80ac58cd;\r\n    bytes4 private constant _INTERFACE_ID_ERC165 = 0x01ffc9a7;\r\n\r\n    event Birth(\r\n        address owner,\r\n        uint256 kittenId,\r\n        uint256 mumId,\r\n        uint256 dadId,\r\n        uint256 genes\r\n    );\r\n\r\n    struct Kitty {\r\n        uint256 genes;\r\n        uint64 birthTime;\r\n        uint32 mumId;\r\n        uint32 dadId;\r\n        uint16 generation;\r\n    }\r\n\r\n    Kitty[] kitties;\r\n\r\n    mapping(address => uint256) public _kittyBalance;\r\n    mapping(uint256 => address) _kittyOwners;\r\n    mapping(uint256 => address) public _kittyApprovals; //owner approve a specific address to transfer a specific kitty (token)\r\n    mapping(address => mapping(address => bool)) private _operatorApprovals; //owner approve a specific address to transfer all kities owned\r\n\r\n    uint256 public Gen0_Kitties_created;\r\n\r\n    function createKittyGen0(uint256 _genes)\r\n        public\r\n        onlyOwner\r\n        returns (uint256)\r\n    {\r\n        require(Gen0_Kitties_created < Gen0_limit);\r\n        Gen0_Kitties_created++;\r\n\r\n        return _createKitty(0, 0, 0, _genes, msg.sender);\r\n    }\r\n\r\n    function _createKitty(\r\n        uint256 _mumId,\r\n        uint256 _dadId,\r\n        uint256 _generation,\r\n        uint256 _genes,\r\n        address _owner\r\n    ) private returns (uint256) {\r\n        Kitty memory _kitty = Kitty({\r\n            genes: _genes,\r\n            birthTime: uint64(block.timestamp),\r\n            mumId: uint32(_mumId),\r\n            dadId: uint32(_dadId),\r\n            generation: uint16(_generation)\r\n        });\r\n\r\n        kitties.push(_kitty);\r\n        uint256 newKittenId = kitties.length - 1;\r\n\r\n        emit Birth(_owner, newKittenId, _mumId, _dadId, _genes);\r\n        _transfer(address(0), _owner, newKittenId); //transfer from nowhere(address(0)) means Creation of a Kitty\r\n\r\n        return newKittenId;\r\n    }\r\n\r\n    function getKittyByOwner(address _owner)\r\n        external\r\n        view\r\n        returns (uint256[] memory)\r\n    {\r\n        uint256[] memory result = new uint256[](_kittyBalance[_owner]);\r\n        uint256 counter = 0;\r\n        for (uint256 i = 0; i < kitties.length; i++) {\r\n            if (_kittyOwners[i] == _owner) {\r\n                result[counter] = i;\r\n                counter++;\r\n            }\r\n        }\r\n        return result;\r\n    }\r\n\r\n    function getKitty(uint256 _id)\r\n        public\r\n        view\r\n        returns (\r\n            uint256 _genes,\r\n            uint256 _birthTime,\r\n            uint256 _mumId,\r\n            uint256 _dadId,\r\n            uint256 _generation\r\n        )\r\n    {\r\n        Kitty storage kitty = kitties[_id];\r\n\r\n        _genes = kitty.genes;\r\n        _birthTime = uint256(kitty.birthTime);\r\n        _mumId = uint256(kitty.mumId);\r\n        _dadId = uint256(kitty.dadId);\r\n        _generation = uint256(kitty.generation);\r\n    }\r\n\r\n    function breedKitty(uint256 _dadId, uint256 _mumId)\r\n        public\r\n        returns (uint256)\r\n    {\r\n        //Check ownership\r\n        require(\r\n            msg.sender != address(0),\r\n            \"ERC721: balance query for the zero address\"\r\n        );\r\n        require(_ownedBy(msg.sender, _dadId), \"ERC721: breeder is not owner\");\r\n        require(_ownedBy(msg.sender, _mumId), \"ERC721: breeder is not owner\");\r\n\r\n        //DNA is here\r\n        uint256 kittyDna = _mixDna(\r\n            kitties[_dadId].genes,\r\n            kitties[_mumId].genes\r\n        );\r\n\r\n        //Figure out the generation\r\n        uint16 dadGen = kitties[_dadId].generation;\r\n        uint16 mumGen = kitties[_mumId].generation;\r\n        uint16 kittyGen = 0;\r\n\r\n        if ((dadGen + mumGen) > 0) {\r\n            kittyGen = (dadGen + mumGen) / 2 + 1;\r\n        } else {\r\n            kittyGen = 1;\r\n        }\r\n\r\n        //Create a new kitty with the new properties, give it to msg.sender\r\n        return _createKitty(_mumId, _dadId, kittyGen, kittyDna, msg.sender);\r\n    }\r\n\r\n    function balanceOf(address _owner)\r\n        external\r\n        view\r\n        override\r\n        returns (uint256)\r\n    {\r\n        require(\r\n            _owner != address(0),\r\n            \"ERC721: balance query for the zero address\"\r\n        );\r\n        return _kittyBalance[_owner];\r\n    }\r\n\r\n    function totalSupply() public view override returns (uint256 total) {\r\n        return kitties.length;\r\n    }\r\n\r\n    function name() public pure override returns (string memory) {\r\n        return _name;\r\n    }\r\n\r\n    function symbol() public pure override returns (string memory) {\r\n        return _symbol;\r\n    }\r\n\r\n    function ownerOf(uint256 _tokenId)\r\n        external\r\n        view\r\n        override\r\n        returns (address)\r\n    {\r\n        address owner = _kittyOwners[_tokenId];\r\n        require(\r\n            owner != address(0),\r\n            \"ERC721: owner query for nonexistent token\"\r\n        );\r\n        return owner;\r\n    }\r\n\r\n    function transfer(address _to, uint256 _tokenId) external override {\r\n        require(address(this) != _to);\r\n        require(address(0) != _to);\r\n        require(_ownedBy(msg.sender, _tokenId));\r\n\r\n        _transfer(msg.sender, _to, _tokenId);\r\n    }\r\n\r\n    function approve(address _to, uint256 _tokenId) external override {\r\n        require(_ownedBy(msg.sender, _tokenId));\r\n        require(\r\n            _to != msg.sender,\r\n            \"Address to approve is same as owner address\"\r\n        );\r\n\r\n        _approve(_to, _tokenId);\r\n        emit Approval(msg.sender, _to, _tokenId);\r\n    }\r\n\r\n    function setApprovalForAll(address _operator, bool _approved)\r\n        external\r\n        override\r\n    {\r\n        require(_operator != msg.sender);\r\n\r\n        _operatorApprovals[msg.sender][_operator] = _approved;\r\n        emit ApprovalForAll(msg.sender, _operator, _approved);\r\n    }\r\n\r\n    function getApproved(uint256 _tokenId)\r\n        public\r\n        view\r\n        override\r\n        returns (address)\r\n    {\r\n        require(\r\n            _exists(_tokenId),\r\n            \"ERC721: operator query for nonexistent token\"\r\n        ); //added\r\n        require(_tokenId < kitties.length);\r\n        return _kittyApprovals[_tokenId];\r\n    }\r\n\r\n    function isApprovedForAll(address _owner, address _operator)\r\n        public\r\n        view\r\n        override\r\n        returns (bool)\r\n    {\r\n        return _operatorApprovals[_owner][_operator];\r\n    }\r\n\r\n    function transferFrom(\r\n        address _from,\r\n        address _to,\r\n        uint256 _tokenId\r\n    ) public override {\r\n        require(\r\n            _isApprovedOrOwner(msg.sender, _from, _to, _tokenId),\r\n            \"ERC721: transfer caller is not owner nor approved\"\r\n        );\r\n\r\n        _transfer(_from, _to, _tokenId);\r\n    }\r\n\r\n    function safeTransferFrom(\r\n        address _from,\r\n        address _to,\r\n        uint256 _tokenId\r\n    ) public override {\r\n        safeTransferFrom(_from, _to, _tokenId);\r\n    }\r\n\r\n    function safeTransferFrom(\r\n        address _from,\r\n        address _to,\r\n        uint256 _tokenId,\r\n        bytes calldata _data\r\n    ) public override {\r\n        require(\r\n            _isApprovedOrOwner(msg.sender, _from, _to, _tokenId),\r\n            \"ERC721: transfer caller is not owner nor approved\"\r\n        );\r\n        _safeTransfer(_from, _to, _tokenId, _data);\r\n    }\r\n\r\n    function supportsInterface(bytes4 _interfaceId)\r\n        external\r\n        pure\r\n        returns (bool)\r\n    {\r\n        return (_interfaceId == _INTERFACE_ID_ERC721 ||\r\n            _interfaceId == _INTERFACE_ID_ERC165);\r\n    }\r\n\r\n    //re-usable functions\r\n    function _ownedBy(address claimant, uint256 _tokenId)\r\n        internal\r\n        view\r\n        returns (bool)\r\n    {\r\n        return _kittyOwners[_tokenId] == claimant;\r\n    }\r\n\r\n    function _transfer(\r\n        address _from,\r\n        address _to,\r\n        uint256 _tokenId\r\n    ) internal {\r\n        _kittyBalance[_to]++;\r\n        _kittyOwners[_tokenId] = _to;\r\n\r\n        if (_from != address(0)) {\r\n            _kittyBalance[_from]--;\r\n            delete _kittyApprovals[_tokenId]; //remove approval when token is transferred to another owner\r\n        }\r\n\r\n        emit Transfer(_from, _to, _tokenId);\r\n    }\r\n\r\n    function _approve(address _to, uint256 _tokenId) internal {\r\n        _kittyApprovals[_tokenId] = _to;\r\n    }\r\n\r\n    function _isApprovedOrOwner(\r\n        address _spender,\r\n        address _from,\r\n        address _to,\r\n        uint256 _tokenId\r\n    ) internal view returns (bool) {\r\n        require(\r\n            _exists(_tokenId),\r\n            \"ERC721: operator query for nonexistent token\"\r\n        );\r\n        require(\r\n            _ownedBy(_from, _tokenId),\r\n            \"ERC721: Sender does not own this token\"\r\n        );\r\n        require(_to != address(0));\r\n        return (_spender == _from ||\r\n            getApproved(_tokenId) == _spender ||\r\n            isApprovedForAll(_from, _spender));\r\n    }\r\n\r\n    function _exists(uint256 _tokenId) internal view returns (bool) {\r\n        return _kittyOwners[_tokenId] != address(0);\r\n    }\r\n\r\n    function _safeTransfer(\r\n        address _from,\r\n        address _to,\r\n        uint256 _tokenId,\r\n        bytes memory _data\r\n    ) internal {\r\n        _transfer(_from, _to, _tokenId);\r\n        require(_checkERC721Support(_from, _to, _tokenId, _data));\r\n    }\r\n\r\n    function _checkERC721Support(\r\n        address _from,\r\n        address _to,\r\n        uint256 _tokenId,\r\n        bytes memory _data\r\n    ) internal returns (bool) {\r\n        //checks if receiver is a contract\r\n        if (!_isContract(_to)) {\r\n            return true;\r\n        }\r\n        //Call onERC721Received in the _to contract\r\n        bytes4 returnData = IERC721Receiver(_to).onERC721Received(\r\n            msg.sender,\r\n            _from,\r\n            _tokenId,\r\n            _data\r\n        );\r\n        //check return value\r\n        return returnData == MAGIC_ERC721_RECEIVED;\r\n    }\r\n\r\n    function _isContract(address _to) internal view returns (bool) {\r\n        uint32 size;\r\n        assembly {\r\n            size := extcodesize(_to)\r\n        }\r\n        return size > 0;\r\n    }\r\n\r\n    function _mixDna(uint256 _dadDna, uint256 _mumDna)\r\n        internal\r\n        view\r\n        returns (uint256)\r\n    {\r\n        uint256[8] memory geneArray;\r\n\r\n        //pseudo-random: Not used for betting and monetary stuff\r\n        //binary 8bit between 00000000 to 11111111\r\n        uint8 random = uint8(\r\n            uint256(\r\n                keccak256(abi.encodePacked(block.timestamp, block.difficulty))\r\n            ) % 255\r\n        );\r\n\r\n        //1, 2, 4, 8, 16, 32, 64, 128, loop through 8 times\r\n        //values of the 8 numbers above in binary\r\n        //00000001, 00000010, 00000100, 00001000,\r\n        //00010000, 00100000, 01000000, 10000000\r\n        //bitwise operator &\r\n        uint256 i = 1;\r\n        uint256 index = 7;\r\n        for (i = 1; i <= 128; i *= 2) {\r\n            if (random & i != 0) {\r\n                geneArray[index] = uint8(_mumDna % 100); //last pair\r\n            } else {\r\n                geneArray[index] = uint8(_dadDna % 100);\r\n            }\r\n            //now remove last pair from dna\r\n            _mumDna /= 100;\r\n            _dadDna /= 100;\r\n\r\n            //reduce index to set position to previous (e.g. from 7 to 6)\r\n            index--;\r\n        }\r\n\r\n        //create DNA into a full number\r\n        uint256 newGene;\r\n        for (i = 0; i < 8; i++) {\r\n            newGene += geneArray[i]; //add first pair to mewGene\r\n            if (i != 7) {\r\n                //to not add 2 zeroes after the last pair\r\n                newGene *= 100; //adds two zeroes (00), at the end of each pair\r\n            }\r\n        }\r\n        return newGene;\r\n    }\r\n}\r\n",
  "sourcePath": "C:/Users/Xyz Fiegalan/OneDrive/Desktop/My Projects/crypto-kitties-clone/Cloning-CryptoKitties/contracts/Kittycontract.sol",
  "compiler": {
    "name": "solc",
    "version": "0.8.6+commit.11564f7e.Emscripten.clang"
  },
  "schemaVersion": "3.3.4",
  "updatedAt": "2021-07-18T20:50:39.844Z",
  "networkType": "ethereum",
  "devdoc": {
    "kind": "dev",
    "methods": {
      "balanceOf(address)": {
        "details": "Returns the number of tokens in ``owner``'s account."
      },
      "getApproved(uint256)": {
        "details": "Throws if `_tokenId` is not a valid NFT.",
        "params": {
          "_tokenId": "The NFT to find the approved address for"
        },
        "returns": {
          "_0": "The approved address for this NFT, or the zero address if there is none"
        }
      },
      "isApprovedForAll(address,address)": {
        "params": {
          "_operator": "The address that acts on behalf of the owner",
          "_owner": "The address that owns the NFTs"
        },
        "returns": {
          "_0": "True if `_operator` is an approved operator for `_owner`, false otherwise"
        }
      },
      "owner()": {
        "details": "Returns the address of the current owner."
      },
      "ownerOf(uint256)": {
        "details": "Returns the owner of the `tokenId` token. Requirements: - `tokenId` must exist."
      },
      "renounceOwnership()": {
        "details": "Leaves the contract without owner. It will not be possible to call `onlyOwner` functions anymore. Can only be called by the current owner. NOTE: Renouncing ownership will leave the contract without an owner, thereby removing any functionality that is only available to the owner."
      },
      "safeTransferFrom(address,address,uint256)": {
        "details": "This works identically to the other function with an extra data parameter,  except this function just sets data to \"\".",
        "params": {
          "_from": "The current owner of the NFT",
          "_to": "The new owner",
          "_tokenId": "The NFT to transfer"
        }
      },
      "setApprovalForAll(address,bool)": {
        "details": "Emits the ApprovalForAll event. The contract MUST allow  multiple operators per owner.",
        "params": {
          "_approved": "True if the operator is approved, false to revoke approval",
          "_operator": "Address to add to the set of authorized operators"
        }
      },
      "transferFrom(address,address,uint256)": {
        "details": "Throws unless `msg.sender` is the current owner, an authorized  operator, or the approved address for this NFT. Throws if `_from` is  not the current owner. Throws if `_to` is the zero address. Throws if  `_tokenId` is not a valid NFT.",
        "params": {
          "_from": "The current owner of the NFT",
          "_to": "The new owner",
          "_tokenId": "The NFT to transfer"
        }
      },
      "transferOwnership(address)": {
        "details": "Transfers ownership of the contract to a new account (`newOwner`). Can only be called by the current owner."
      }
    },
    "version": 1
  },
  "userdoc": {
    "kind": "user",
    "methods": {
      "getApproved(uint256)": {
        "notice": "Get the approved address for a single NFT"
      },
      "isApprovedForAll(address,address)": {
        "notice": "Query if an address is an authorized operator for another address"
      },
      "safeTransferFrom(address,address,uint256)": {
        "notice": "Transfers the ownership of an NFT from one address to another address"
      },
      "setApprovalForAll(address,bool)": {
        "notice": "Enable or disable approval for a third party (\"operator\") to manage  all of `msg.sender`'s assets"
      },
      "transferFrom(address,address,uint256)": {
        "notice": "Transfer ownership of an NFT -- THE CALLER IS RESPONSIBLE  TO CONFIRM THAT `_to` IS CAPABLE OF RECEIVING NFTS OR ELSE  THEY MAY BE PERMANENTLY LOST"
      }
    },
    "version": 1
  }
}