{
  "contractName": "Kittycontract",
  "abi": [
    {
      "anonymous": false,
      "inputs": [
        {
          "indexed": true,
          "internalType": "address",
          "name": "owner",
          "type": "address"
        },
        {
          "indexed": true,
          "internalType": "address",
          "name": "approved",
          "type": "address"
        },
        {
          "indexed": true,
          "internalType": "uint256",
          "name": "tokenId",
          "type": "uint256"
        }
      ],
      "name": "Approval",
      "type": "event"
    },
    {
      "anonymous": false,
      "inputs": [
        {
          "indexed": false,
          "internalType": "address",
          "name": "owner",
          "type": "address"
        },
        {
          "indexed": false,
          "internalType": "uint256",
          "name": "kittenId",
          "type": "uint256"
        },
        {
          "indexed": false,
          "internalType": "uint256",
          "name": "mumId",
          "type": "uint256"
        },
        {
          "indexed": false,
          "internalType": "uint256",
          "name": "dadId",
          "type": "uint256"
        },
        {
          "indexed": false,
          "internalType": "uint256",
          "name": "genes",
          "type": "uint256"
        }
      ],
      "name": "Birth",
      "type": "event"
    },
    {
      "anonymous": false,
      "inputs": [
        {
          "indexed": false,
          "internalType": "address",
          "name": "owner",
          "type": "address"
        },
        {
          "indexed": false,
          "internalType": "uint256",
          "name": "kittenId",
          "type": "uint256"
        },
        {
          "indexed": false,
          "internalType": "uint256",
          "name": "mumId",
          "type": "uint256"
        },
        {
          "indexed": false,
          "internalType": "uint256",
          "name": "dadId",
          "type": "uint256"
        },
        {
          "indexed": false,
          "internalType": "uint256",
          "name": "genes",
          "type": "uint256"
        },
        {
          "indexed": false,
          "internalType": "uint256",
          "name": "generation",
          "type": "uint256"
        }
      ],
      "name": "Breed",
      "type": "event"
    },
    {
      "anonymous": false,
      "inputs": [
        {
          "indexed": true,
          "internalType": "address",
          "name": "previousOwner",
          "type": "address"
        },
        {
          "indexed": true,
          "internalType": "address",
          "name": "newOwner",
          "type": "address"
        }
      ],
      "name": "OwnershipTransferred",
      "type": "event"
    },
    {
      "anonymous": false,
      "inputs": [
        {
          "indexed": true,
          "internalType": "address",
          "name": "from",
          "type": "address"
        },
        {
          "indexed": true,
          "internalType": "address",
          "name": "to",
          "type": "address"
        },
        {
          "indexed": true,
          "internalType": "uint256",
          "name": "tokenId",
          "type": "uint256"
        }
      ],
      "name": "Transfer",
      "type": "event"
    },
    {
      "inputs": [],
      "name": "Gen0_Kitties_created",
      "outputs": [
        {
          "internalType": "uint256",
          "name": "",
          "type": "uint256"
        }
      ],
      "stateMutability": "view",
      "type": "function",
      "constant": true
    },
    {
      "inputs": [],
      "name": "Gen0_limit",
      "outputs": [
        {
          "internalType": "uint256",
          "name": "",
          "type": "uint256"
        }
      ],
      "stateMutability": "view",
      "type": "function",
      "constant": true
    },
    {
      "inputs": [
        {
          "internalType": "address",
          "name": "",
          "type": "address"
        }
      ],
      "name": "_kittyBalance",
      "outputs": [
        {
          "internalType": "uint256",
          "name": "",
          "type": "uint256"
        }
      ],
      "stateMutability": "view",
      "type": "function",
      "constant": true
    },
    {
      "inputs": [],
      "name": "_name",
      "outputs": [
        {
          "internalType": "string",
          "name": "",
          "type": "string"
        }
      ],
      "stateMutability": "view",
      "type": "function",
      "constant": true
    },
    {
      "inputs": [],
      "name": "_symbol",
      "outputs": [
        {
          "internalType": "string",
          "name": "",
          "type": "string"
        }
      ],
      "stateMutability": "view",
      "type": "function",
      "constant": true
    },
    {
      "inputs": [],
      "name": "owner",
      "outputs": [
        {
          "internalType": "address",
          "name": "",
          "type": "address"
        }
      ],
      "stateMutability": "view",
      "type": "function",
      "constant": true
    },
    {
      "inputs": [],
      "name": "renounceOwnership",
      "outputs": [],
      "stateMutability": "nonpayable",
      "type": "function"
    },
    {
      "inputs": [
        {
          "internalType": "address",
          "name": "newOwner",
          "type": "address"
        }
      ],
      "name": "transferOwnership",
      "outputs": [],
      "stateMutability": "nonpayable",
      "type": "function"
    },
    {
      "inputs": [
        {
          "internalType": "uint256",
          "name": "_genes",
          "type": "uint256"
        }
      ],
      "name": "createKittyGen0",
      "outputs": [
        {
          "internalType": "uint256",
          "name": "",
          "type": "uint256"
        }
      ],
      "stateMutability": "nonpayable",
      "type": "function"
    },
    {
      "inputs": [
        {
          "internalType": "uint256",
          "name": "_id",
          "type": "uint256"
        }
      ],
      "name": "getKitty",
      "outputs": [
        {
          "internalType": "uint256",
          "name": "_genes",
          "type": "uint256"
        },
        {
          "internalType": "uint256",
          "name": "_birthTime",
          "type": "uint256"
        },
        {
          "internalType": "uint256",
          "name": "_mumId",
          "type": "uint256"
        },
        {
          "internalType": "uint256",
          "name": "_dadId",
          "type": "uint256"
        },
        {
          "internalType": "uint256",
          "name": "_generation",
          "type": "uint256"
        }
      ],
      "stateMutability": "view",
      "type": "function",
      "constant": true
    },
    {
      "inputs": [
        {
          "internalType": "address",
          "name": "_owner",
          "type": "address"
        }
      ],
      "name": "balanceOf",
      "outputs": [
        {
          "internalType": "uint256",
          "name": "",
          "type": "uint256"
        }
      ],
      "stateMutability": "view",
      "type": "function",
      "constant": true
    },
    {
      "inputs": [],
      "name": "totalSupply",
      "outputs": [
        {
          "internalType": "uint256",
          "name": "total",
          "type": "uint256"
        }
      ],
      "stateMutability": "view",
      "type": "function",
      "constant": true
    },
    {
      "inputs": [],
      "name": "name",
      "outputs": [
        {
          "internalType": "string",
          "name": "",
          "type": "string"
        }
      ],
      "stateMutability": "pure",
      "type": "function",
      "constant": true
    },
    {
      "inputs": [],
      "name": "symbol",
      "outputs": [
        {
          "internalType": "string",
          "name": "",
          "type": "string"
        }
      ],
      "stateMutability": "pure",
      "type": "function",
      "constant": true
    },
    {
      "inputs": [
        {
          "internalType": "uint256",
          "name": "_tokenId",
          "type": "uint256"
        }
      ],
      "name": "ownerOf",
      "outputs": [
        {
          "internalType": "address",
          "name": "",
          "type": "address"
        }
      ],
      "stateMutability": "view",
      "type": "function",
      "constant": true
    },
    {
      "inputs": [
        {
          "internalType": "address",
          "name": "_to",
          "type": "address"
        },
        {
          "internalType": "uint256",
          "name": "_tokenId",
          "type": "uint256"
        }
      ],
      "name": "transfer",
      "outputs": [],
      "stateMutability": "nonpayable",
      "type": "function"
    }
  ],
  "bytecode": "0x608060405234801561001057600080fd5b5060006100216100c460201b60201c565b9050806000806101000a81548173ffffffffffffffffffffffffffffffffffffffff021916908373ffffffffffffffffffffffffffffffffffffffff1602179055508073ffffffffffffffffffffffffffffffffffffffff16600073ffffffffffffffffffffffffffffffffffffffff167f8be0079c531659141344cd1fd0a4f28419497f9722a3daafe3b4186f6b6457e060405160405180910390a3506100cc565b600033905090565b61147f806100db6000396000f3fe608060405234801561001057600080fd5b50600436106101005760003560e01c806395d89b4111610097578063d5a776ca11610066578063d5a776ca1461027b578063e23b07af146102ab578063e98b7f4d146102db578063f2fde38b1461030f57610100565b806395d89b4114610205578063a9059cbb14610223578063b09f12661461023f578063d28d88521461025d57610100565b80636352211e116100d35780636352211e1461017d57806370a08231146101ad578063715018a6146101dd5780638da5cb5b146101e757610100565b806306fdde031461010557806318160ddd146101235780631d94ab04146101415780633cd331f51461015f575b600080fd5b61010d61032b565b60405161011a9190611083565b60405180910390f35b61012b610368565b6040516101389190611125565b60405180910390f35b610149610375565b6040516101569190611125565b60405180910390f35b61016761037b565b6040516101749190611125565b60405180910390f35b61019760048036038101906101929190610f09565b610380565b6040516101a49190611015565b60405180910390f35b6101c760048036038101906101c29190610ea4565b610432565b6040516101d49190611125565b60405180910390f35b6101e56104ea565b005b6101ef610624565b6040516101fc9190611015565b60405180910390f35b61020d61064d565b60405161021a9190611083565b60405180910390f35b61023d60048036038101906102389190610ecd565b61068a565b005b61024761071f565b6040516102549190611083565b60405180910390f35b610265610758565b6040516102729190611083565b60405180910390f35b61029560048036038101906102909190610f09565b610791565b6040516102a29190611125565b60405180910390f35b6102c560048036038101906102c09190610ea4565b61084c565b6040516102d29190611125565b60405180910390f35b6102f560048036038101906102f09190610f09565b610864565b604051610306959493929190611140565b60405180910390f35b61032960048036038101906103249190610ea4565b610940565b005b60606040518060400160405280600a81526020017f4b69747479437574696500000000000000000000000000000000000000000000815250905090565b6000600180549050905090565b60045481565b601481565b6000806003600084815260200190815260200160002060009054906101000a900473ffffffffffffffffffffffffffffffffffffffff169050600073ffffffffffffffffffffffffffffffffffffffff168173ffffffffffffffffffffffffffffffffffffffff161415610429576040517f08c379a0000000000000000000000000000000000000000000000000000000008152600401610420906110e5565b60405180910390fd5b80915050919050565b60008073ffffffffffffffffffffffffffffffffffffffff168273ffffffffffffffffffffffffffffffffffffffff1614156104a3576040517f08c379a000000000000000000000000000000000000000000000000000000000815260040161049a906110c5565b60405180910390fd5b600260008373ffffffffffffffffffffffffffffffffffffffff1673ffffffffffffffffffffffffffffffffffffffff168152602001908152602001600020549050919050565b6104f2610ae9565b73ffffffffffffffffffffffffffffffffffffffff16610510610624565b73ffffffffffffffffffffffffffffffffffffffff1614610566576040517f08c379a000000000000000000000000000000000000000000000000000000000815260040161055d90611105565b60405180910390fd5b600073ffffffffffffffffffffffffffffffffffffffff1660008054906101000a900473ffffffffffffffffffffffffffffffffffffffff1673ffffffffffffffffffffffffffffffffffffffff167f8be0079c531659141344cd1fd0a4f28419497f9722a3daafe3b4186f6b6457e060405160405180910390a360008060006101000a81548173ffffffffffffffffffffffffffffffffffffffff021916908373ffffffffffffffffffffffffffffffffffffffff160217905550565b60008060009054906101000a900473ffffffffffffffffffffffffffffffffffffffff16905090565b60606040518060400160405280600481526020017f4b54435400000000000000000000000000000000000000000000000000000000815250905090565b8173ffffffffffffffffffffffffffffffffffffffff163073ffffffffffffffffffffffffffffffffffffffff1614156106c357600080fd5b8173ffffffffffffffffffffffffffffffffffffffff16600073ffffffffffffffffffffffffffffffffffffffff1614156106fd57600080fd5b6107073382610af1565b61071057600080fd5b61071b338383610b5d565b5050565b6040518060400160405280600481526020017f4b5443540000000000000000000000000000000000000000000000000000000081525081565b6040518060400160405280600a81526020017f4b6974747943757469650000000000000000000000000000000000000000000081525081565b600061079b610ae9565b73ffffffffffffffffffffffffffffffffffffffff166107b9610624565b73ffffffffffffffffffffffffffffffffffffffff161461080f576040517f08c379a000000000000000000000000000000000000000000000000000000000815260040161080690611105565b60405180910390fd5b60146004541061081e57600080fd5b600460008154809291906108319061127c565b919050555061084560008060008533610cee565b9050919050565b60026020528060005260406000206000915090505481565b600080600080600080600187815481106108a7577f4e487b7100000000000000000000000000000000000000000000000000000000600052603260045260246000fd5b90600052602060002090600202019050806000015495508060010160009054906101000a900467ffffffffffffffff1667ffffffffffffffff1694508060010160089054906101000a900463ffffffff1663ffffffff16935080600101600c9054906101000a900463ffffffff1663ffffffff1692508060010160109054906101000a900461ffff1661ffff1691505091939590929450565b610948610ae9565b73ffffffffffffffffffffffffffffffffffffffff16610966610624565b73ffffffffffffffffffffffffffffffffffffffff16146109bc576040517f08c379a00000000000000000000000000000000000000000000000000000000081526004016109b390611105565b60405180910390fd5b600073ffffffffffffffffffffffffffffffffffffffff168173ffffffffffffffffffffffffffffffffffffffff161415610a2c576040517f08c379a0000000000000000000000000000000000000000000000000000000008152600401610a23906110a5565b60405180910390fd5b8073ffffffffffffffffffffffffffffffffffffffff1660008054906101000a900473ffffffffffffffffffffffffffffffffffffffff1673ffffffffffffffffffffffffffffffffffffffff167f8be0079c531659141344cd1fd0a4f28419497f9722a3daafe3b4186f6b6457e060405160405180910390a3806000806101000a81548173ffffffffffffffffffffffffffffffffffffffff021916908373ffffffffffffffffffffffffffffffffffffffff16021790555050565b600033905090565b60008273ffffffffffffffffffffffffffffffffffffffff166003600084815260200190815260200160002060009054906101000a900473ffffffffffffffffffffffffffffffffffffffff1673ffffffffffffffffffffffffffffffffffffffff1614905092915050565b600260008373ffffffffffffffffffffffffffffffffffffffff1673ffffffffffffffffffffffffffffffffffffffff1681526020019081526020016000206000815480929190610bad9061127c565b9190505550816003600083815260200190815260200160002060006101000a81548173ffffffffffffffffffffffffffffffffffffffff021916908373ffffffffffffffffffffffffffffffffffffffff160217905550600073ffffffffffffffffffffffffffffffffffffffff168373ffffffffffffffffffffffffffffffffffffffff1614610c8e57600260008473ffffffffffffffffffffffffffffffffffffffff1673ffffffffffffffffffffffffffffffffffffffff1681526020019081526020016000206000815480929190610c8890611252565b91905055505b808273ffffffffffffffffffffffffffffffffffffffff168473ffffffffffffffffffffffffffffffffffffffff167fddf252ad1be2c89b69c2b068fc378daa952ba7f163c4a11628f55a4df523b3ef60405160405180910390a4505050565b6000806040518060a001604052808581526020014267ffffffffffffffff1681526020018863ffffffff1681526020018763ffffffff1681526020018661ffff16815250905060018190806001815401808255809150506001900390600052602060002090600202016000909190919091506000820151816000015560208201518160010160006101000a81548167ffffffffffffffff021916908367ffffffffffffffff16021790555060408201518160010160086101000a81548163ffffffff021916908363ffffffff160217905550606082015181600101600c6101000a81548163ffffffff021916908363ffffffff16021790555060808201518160010160106101000a81548161ffff021916908361ffff1602179055505050600060018080549050610e1f91906111af565b90507f0a5311bd2a6608f08a180df2ee7c5946819a649b204b554bb8e39825b2c50ad584828a8a89604051610e58959493929190611030565b60405180910390a1610e6c60008583610b5d565b809250505095945050505050565b600081359050610e898161141b565b92915050565b600081359050610e9e81611432565b92915050565b600060208284031215610eb657600080fd5b6000610ec484828501610e7a565b91505092915050565b60008060408385031215610ee057600080fd5b6000610eee85828601610e7a565b9250506020610eff85828601610e8f565b9150509250929050565b600060208284031215610f1b57600080fd5b6000610f2984828501610e8f565b91505092915050565b610f3b816111e3565b82525050565b6000610f4c82611193565b610f56818561119e565b9350610f6681856020860161121f565b610f6f816112f4565b840191505092915050565b6000610f8760268361119e565b9150610f9282611305565b604082019050919050565b6000610faa602a8361119e565b9150610fb582611354565b604082019050919050565b6000610fcd60298361119e565b9150610fd8826113a3565b604082019050919050565b6000610ff060208361119e565b9150610ffb826113f2565b602082019050919050565b61100f81611215565b82525050565b600060208201905061102a6000830184610f32565b92915050565b600060a0820190506110456000830188610f32565b6110526020830187611006565b61105f6040830186611006565b61106c6060830185611006565b6110796080830184611006565b9695505050505050565b6000602082019050818103600083015261109d8184610f41565b905092915050565b600060208201905081810360008301526110be81610f7a565b9050919050565b600060208201905081810360008301526110de81610f9d565b9050919050565b600060208201905081810360008301526110fe81610fc0565b9050919050565b6000602082019050818103600083015261111e81610fe3565b9050919050565b600060208201905061113a6000830184611006565b92915050565b600060a0820190506111556000830188611006565b6111626020830187611006565b61116f6040830186611006565b61117c6060830185611006565b6111896080830184611006565b9695505050505050565b600081519050919050565b600082825260208201905092915050565b60006111ba82611215565b91506111c583611215565b9250828210156111d8576111d76112c5565b5b828203905092915050565b60006111ee826111f5565b9050919050565b600073ffffffffffffffffffffffffffffffffffffffff82169050919050565b6000819050919050565b60005b8381101561123d578082015181840152602081019050611222565b8381111561124c576000848401525b50505050565b600061125d82611215565b91506000821415611271576112706112c5565b5b600182039050919050565b600061128782611215565b91507fffffffffffffffffffffffffffffffffffffffffffffffffffffffffffffffff8214156112ba576112b96112c5565b5b600182019050919050565b7f4e487b7100000000000000000000000000000000000000000000000000000000600052601160045260246000fd5b6000601f19601f8301169050919050565b7f4f776e61626c653a206e6577206f776e657220697320746865207a65726f206160008201527f6464726573730000000000000000000000000000000000000000000000000000602082015250565b7f4552433732313a2062616c616e636520717565727920666f7220746865207a6560008201527f726f206164647265737300000000000000000000000000000000000000000000602082015250565b7f4552433732313a206f776e657220717565727920666f72206e6f6e657869737460008201527f656e7420746f6b656e0000000000000000000000000000000000000000000000602082015250565b7f4f776e61626c653a2063616c6c6572206973206e6f7420746865206f776e6572600082015250565b611424816111e3565b811461142f57600080fd5b50565b61143b81611215565b811461144657600080fd5b5056fea2646970667358221220bb59cb82e5282481af4fd64421603400dd508c8553c5a6177ea76cfc7a44e3d264736f6c63430008040033",
  "immutableReferences": {},
  "source": "// SPDX-License-Identifier: MIT\r\npragma solidity ^0.8.0;\r\n\r\nimport \"./IERC721.sol\";\r\nimport \"../node_modules/@openzeppelin/contracts/utils/math/SafeMath.sol\";\r\nimport \"../node_modules/@openzeppelin/contracts/access/Ownable.sol\";\r\n\r\ncontract Kittycontract is IERC721, Ownable{\r\n    using SafeMath for uint256;\r\n    \r\n    string public constant _name = \"KittyCutie\";\r\n    string public constant _symbol = \"KTCT\";\r\n    uint public constant Gen0_limit = 20;\r\n\r\n    event Birth(address owner, uint256 kittenId, uint256 mumId, uint256 dadId, uint256 genes);\r\n    \r\n    \r\n    struct Kitty {\r\n        uint256 genes;\r\n        uint64 birthTime;\r\n        uint32 mumId;\r\n        uint32 dadId;\r\n        uint16 generation;\r\n    }\r\n\r\n    Kitty[] kitties;\r\n\r\n    mapping(address => uint256) public _kittyBalance;\r\n    mapping(uint256 => address) _kittyOwners;\r\n\r\n    uint256 public Gen0_Kitties_created;\r\n\r\n    function createKittyGen0(uint256 _genes) public onlyOwner returns(uint256) {\r\n        require(Gen0_Kitties_created < Gen0_limit);\r\n        Gen0_Kitties_created ++;\r\n\r\n        return _createKitty(0, 0, 0, _genes, msg.sender);\r\n    }\r\n\r\n    function _createKitty(uint256 _mumId, uint256 _dadId, uint256 _generation, uint256 _genes, address _owner) private returns (uint256) {\r\n        Kitty memory _kitty = Kitty({\r\n            genes: _genes,\r\n            birthTime: uint64(block.timestamp),\r\n            mumId: uint32(_mumId),\r\n            dadId: uint32(_dadId),\r\n            generation: uint16(_generation)\r\n        });\r\n\r\n        kitties.push(_kitty);\r\n        uint256 newKittenId = kitties.length - 1;\r\n\r\n        emit Birth(_owner, newKittenId, _mumId, _dadId, _genes);\r\n        _transfer(address(0), _owner, newKittenId); //transfer from nowhere(address(0)) means Creation of a Kitty\r\n\r\n        return newKittenId;\r\n    }\r\n\r\n    event Breed(address owner, uint256 kittenId, uint256 mumId, uint256 dadId, uint256 genes, uint256 generation);\r\n\r\n    function getKitty(uint256 _id) external view returns (\r\n        uint256 _genes,\r\n        uint256 _birthTime,\r\n        uint256 _mumId,\r\n        uint256 _dadId,\r\n        uint256 _generation\r\n    ) \r\n    {\r\n        Kitty storage kitty = kitties[_id];\r\n\r\n        _genes = kitty.genes;\r\n        _birthTime = uint256(kitty.birthTime);\r\n        _mumId = uint256(kitty.mumId);\r\n        _dadId = uint256(kitty.dadId);\r\n        _generation = uint256(kitty.generation);       \r\n    }\r\n    \r\n    function balanceOf(address _owner) external view override returns (uint256) {\r\n        require(_owner != address(0), \"ERC721: balance query for the zero address\");\r\n        return _kittyBalance[_owner];\r\n    }\r\n\r\n    function totalSupply() public view override returns (uint256 total) {\r\n        return kitties.length;\r\n    }\r\n\r\n    function name() external pure override returns (string memory) {\r\n        return _name;\r\n    }\r\n\r\n    function symbol() external pure override returns (string memory) {\r\n        return _symbol;\r\n    }\r\n\r\n    function ownerOf(uint256 _tokenId) external view override returns (address) {\r\n        address owner = _kittyOwners[_tokenId];\r\n        require(owner != address(0), \"ERC721: owner query for nonexistent token\");\r\n        return owner;\r\n    }\r\n\r\n    function transfer(address _to, uint256 _tokenId) external override {\r\n        require(address(this) != _to);\r\n        require(address(0) != _to);\r\n        require(_ownedBy(msg.sender, _tokenId));\r\n\r\n        _transfer(msg.sender, _to, _tokenId);\r\n    }\r\n\r\n//re-usable function\r\n    function _ownedBy(address claimant, uint256 _tokenId) internal view returns(bool) {\r\n        return _kittyOwners[_tokenId] == claimant;\r\n    }\r\n\r\n//re-usable function\r\n    function _transfer(address _from, address _to, uint256 _tokenId) internal {\r\n        _kittyBalance[_to]++;\r\n        _kittyOwners[_tokenId] = _to;\r\n        \r\n        if(_from != address(0)){\r\n            _kittyBalance[_from]--;\r\n        }\r\n        \r\n        emit Transfer(_from, _to, _tokenId);\r\n    }\r\n}",
  "sourcePath": "C:/Users/Xyz Fiegalan/OneDrive/Desktop/My Projects/crypto-kitties-clone/Cloning-CryptoKitties/contracts/Kittycontract.sol",
  "compiler": {
    "name": "solc",
    "version": "0.8.4+commit.c7e474f2.Emscripten.clang"
  },
  "schemaVersion": "3.3.4",
  "updatedAt": "2021-06-23T09:11:00.345Z",
  "networkType": "ethereum",
  "devdoc": {
    "kind": "dev",
    "methods": {
      "owner()": {
        "details": "Returns the address of the current owner."
      },
      "renounceOwnership()": {
        "details": "Leaves the contract without owner. It will not be possible to call `onlyOwner` functions anymore. Can only be called by the current owner. NOTE: Renouncing ownership will leave the contract without an owner, thereby removing any functionality that is only available to the owner."
      },
      "transferOwnership(address)": {
        "details": "Transfers ownership of the contract to a new account (`newOwner`). Can only be called by the current owner."
      }
    },
    "version": 1
  },
  "userdoc": {
    "kind": "user",
    "methods": {},
    "version": 1
  }
}