{
  "contractName": "Kittycontract",
  "abi": [
    {
      "anonymous": false,
      "inputs": [
        {
          "indexed": true,
          "internalType": "address",
          "name": "owner",
          "type": "address"
        },
        {
          "indexed": true,
          "internalType": "address",
          "name": "approved",
          "type": "address"
        },
        {
          "indexed": true,
          "internalType": "uint256",
          "name": "tokenId",
          "type": "uint256"
        }
      ],
      "name": "Approval",
      "type": "event"
    },
    {
      "anonymous": false,
      "inputs": [
        {
          "indexed": true,
          "internalType": "address",
          "name": "owner",
          "type": "address"
        },
        {
          "indexed": true,
          "internalType": "address",
          "name": "operator",
          "type": "address"
        },
        {
          "indexed": false,
          "internalType": "bool",
          "name": "approved",
          "type": "bool"
        }
      ],
      "name": "ApprovalForAll",
      "type": "event"
    },
    {
      "anonymous": false,
      "inputs": [
        {
          "indexed": false,
          "internalType": "address",
          "name": "owner",
          "type": "address"
        },
        {
          "indexed": false,
          "internalType": "uint256",
          "name": "kittenId",
          "type": "uint256"
        },
        {
          "indexed": false,
          "internalType": "uint256",
          "name": "mumId",
          "type": "uint256"
        },
        {
          "indexed": false,
          "internalType": "uint256",
          "name": "dadId",
          "type": "uint256"
        },
        {
          "indexed": false,
          "internalType": "uint256",
          "name": "genes",
          "type": "uint256"
        }
      ],
      "name": "Birth",
      "type": "event"
    },
    {
      "anonymous": false,
      "inputs": [
        {
          "indexed": true,
          "internalType": "address",
          "name": "previousOwner",
          "type": "address"
        },
        {
          "indexed": true,
          "internalType": "address",
          "name": "newOwner",
          "type": "address"
        }
      ],
      "name": "OwnershipTransferred",
      "type": "event"
    },
    {
      "anonymous": false,
      "inputs": [
        {
          "indexed": true,
          "internalType": "address",
          "name": "from",
          "type": "address"
        },
        {
          "indexed": true,
          "internalType": "address",
          "name": "to",
          "type": "address"
        },
        {
          "indexed": true,
          "internalType": "uint256",
          "name": "tokenId",
          "type": "uint256"
        }
      ],
      "name": "Transfer",
      "type": "event"
    },
    {
      "inputs": [],
      "name": "Gen0_Kitties_created",
      "outputs": [
        {
          "internalType": "uint256",
          "name": "",
          "type": "uint256"
        }
      ],
      "stateMutability": "view",
      "type": "function"
    },
    {
      "inputs": [],
      "name": "Gen0_limit",
      "outputs": [
        {
          "internalType": "uint256",
          "name": "",
          "type": "uint256"
        }
      ],
      "stateMutability": "view",
      "type": "function"
    },
    {
      "inputs": [
        {
          "internalType": "uint256",
          "name": "",
          "type": "uint256"
        }
      ],
      "name": "_kittyApprovals",
      "outputs": [
        {
          "internalType": "address",
          "name": "",
          "type": "address"
        }
      ],
      "stateMutability": "view",
      "type": "function"
    },
    {
      "inputs": [
        {
          "internalType": "address",
          "name": "",
          "type": "address"
        }
      ],
      "name": "_kittyBalance",
      "outputs": [
        {
          "internalType": "uint256",
          "name": "",
          "type": "uint256"
        }
      ],
      "stateMutability": "view",
      "type": "function"
    },
    {
      "inputs": [],
      "name": "_name",
      "outputs": [
        {
          "internalType": "string",
          "name": "",
          "type": "string"
        }
      ],
      "stateMutability": "view",
      "type": "function"
    },
    {
      "inputs": [],
      "name": "_symbol",
      "outputs": [
        {
          "internalType": "string",
          "name": "",
          "type": "string"
        }
      ],
      "stateMutability": "view",
      "type": "function"
    },
    {
      "inputs": [],
      "name": "owner",
      "outputs": [
        {
          "internalType": "address",
          "name": "",
          "type": "address"
        }
      ],
      "stateMutability": "view",
      "type": "function"
    },
    {
      "inputs": [],
      "name": "renounceOwnership",
      "outputs": [],
      "stateMutability": "nonpayable",
      "type": "function"
    },
    {
      "inputs": [
        {
          "internalType": "address",
          "name": "newOwner",
          "type": "address"
        }
      ],
      "name": "transferOwnership",
      "outputs": [],
      "stateMutability": "nonpayable",
      "type": "function"
    },
    {
      "inputs": [
        {
          "internalType": "uint256",
          "name": "_genes",
          "type": "uint256"
        }
      ],
      "name": "createKittyGen0",
      "outputs": [
        {
          "internalType": "uint256",
          "name": "",
          "type": "uint256"
        }
      ],
      "stateMutability": "nonpayable",
      "type": "function"
    },
    {
      "inputs": [
        {
          "internalType": "uint256",
          "name": "_id",
          "type": "uint256"
        }
      ],
      "name": "getKitty",
      "outputs": [
        {
          "internalType": "uint256",
          "name": "_genes",
          "type": "uint256"
        },
        {
          "internalType": "uint256",
          "name": "_birthTime",
          "type": "uint256"
        },
        {
          "internalType": "uint256",
          "name": "_mumId",
          "type": "uint256"
        },
        {
          "internalType": "uint256",
          "name": "_dadId",
          "type": "uint256"
        },
        {
          "internalType": "uint256",
          "name": "_generation",
          "type": "uint256"
        }
      ],
      "stateMutability": "view",
      "type": "function"
    },
    {
      "inputs": [
        {
          "internalType": "address",
          "name": "_owner",
          "type": "address"
        }
      ],
      "name": "balanceOf",
      "outputs": [
        {
          "internalType": "uint256",
          "name": "",
          "type": "uint256"
        }
      ],
      "stateMutability": "view",
      "type": "function"
    },
    {
      "inputs": [],
      "name": "totalSupply",
      "outputs": [
        {
          "internalType": "uint256",
          "name": "total",
          "type": "uint256"
        }
      ],
      "stateMutability": "view",
      "type": "function"
    },
    {
      "inputs": [],
      "name": "name",
      "outputs": [
        {
          "internalType": "string",
          "name": "",
          "type": "string"
        }
      ],
      "stateMutability": "pure",
      "type": "function"
    },
    {
      "inputs": [],
      "name": "symbol",
      "outputs": [
        {
          "internalType": "string",
          "name": "",
          "type": "string"
        }
      ],
      "stateMutability": "pure",
      "type": "function"
    },
    {
      "inputs": [
        {
          "internalType": "uint256",
          "name": "_tokenId",
          "type": "uint256"
        }
      ],
      "name": "ownerOf",
      "outputs": [
        {
          "internalType": "address",
          "name": "",
          "type": "address"
        }
      ],
      "stateMutability": "view",
      "type": "function"
    },
    {
      "inputs": [
        {
          "internalType": "address",
          "name": "_to",
          "type": "address"
        },
        {
          "internalType": "uint256",
          "name": "_tokenId",
          "type": "uint256"
        }
      ],
      "name": "transfer",
      "outputs": [],
      "stateMutability": "nonpayable",
      "type": "function"
    },
    {
      "inputs": [
        {
          "internalType": "address",
          "name": "_approved",
          "type": "address"
        },
        {
          "internalType": "uint256",
          "name": "_tokenId",
          "type": "uint256"
        }
      ],
      "name": "approve",
      "outputs": [],
      "stateMutability": "nonpayable",
      "type": "function"
    },
    {
      "inputs": [
        {
          "internalType": "address",
          "name": "_operator",
          "type": "address"
        },
        {
          "internalType": "bool",
          "name": "_approved",
          "type": "bool"
        }
      ],
      "name": "setApprovalForAll",
      "outputs": [],
      "stateMutability": "nonpayable",
      "type": "function"
    },
    {
      "inputs": [
        {
          "internalType": "uint256",
          "name": "_tokenId",
          "type": "uint256"
        }
      ],
      "name": "getApproved",
      "outputs": [
        {
          "internalType": "address",
          "name": "",
          "type": "address"
        }
      ],
      "stateMutability": "view",
      "type": "function"
    },
    {
      "inputs": [
        {
          "internalType": "address",
          "name": "_owner",
          "type": "address"
        },
        {
          "internalType": "address",
          "name": "_operator",
          "type": "address"
        }
      ],
      "name": "isApprovedForAll",
      "outputs": [
        {
          "internalType": "bool",
          "name": "",
          "type": "bool"
        }
      ],
      "stateMutability": "view",
      "type": "function"
    },
    {
      "inputs": [
        {
          "internalType": "address",
          "name": "_from",
          "type": "address"
        },
        {
          "internalType": "address",
          "name": "_to",
          "type": "address"
        },
        {
          "internalType": "uint256",
          "name": "_tokenId",
          "type": "uint256"
        }
      ],
      "name": "transferFrom",
      "outputs": [],
      "stateMutability": "nonpayable",
      "type": "function"
    },
    {
      "inputs": [
        {
          "internalType": "address",
          "name": "_from",
          "type": "address"
        },
        {
          "internalType": "address",
          "name": "_to",
          "type": "address"
        },
        {
          "internalType": "uint256",
          "name": "_tokenId",
          "type": "uint256"
        }
      ],
      "name": "safeTransferFrom",
      "outputs": [],
      "stateMutability": "nonpayable",
      "type": "function"
    },
    {
      "inputs": [
        {
          "internalType": "address",
          "name": "_from",
          "type": "address"
        },
        {
          "internalType": "address",
          "name": "_to",
          "type": "address"
        },
        {
          "internalType": "uint256",
          "name": "_tokenId",
          "type": "uint256"
        },
        {
          "internalType": "bytes",
          "name": "_data",
          "type": "bytes"
        }
      ],
      "name": "safeTransferFrom",
      "outputs": [],
      "stateMutability": "nonpayable",
      "type": "function"
    }
  ],
  "bytecode": "0x608060405234801561001057600080fd5b5060006100216100c460201b60201c565b9050806000806101000a81548173ffffffffffffffffffffffffffffffffffffffff021916908373ffffffffffffffffffffffffffffffffffffffff1602179055508073ffffffffffffffffffffffffffffffffffffffff16600073ffffffffffffffffffffffffffffffffffffffff167f8be0079c531659141344cd1fd0a4f28419497f9722a3daafe3b4186f6b6457e060405160405180910390a3506100cc565b600033905090565b6124c9806100db6000396000f3fe608060405234801561001057600080fd5b50600436106101585760003560e01c80638da5cb5b116100c3578063d28d88521161007c578063d28d8852146103a1578063d5a776ca146103bf578063e23b07af146103ef578063e985e9c51461041f578063e98b7f4d1461044f578063f2fde38b1461048357610158565b80638da5cb5b146102f357806395d89b4114610311578063a22cb4651461032f578063a9059cbb1461034b578063b09f126614610367578063b88d4fde1461038557610158565b80633cd331f5116101155780633cd331f51461021f57806342842e0e1461023d5780636352211e1461025957806370a0823114610289578063715018a6146102b957806373719251146102c357610158565b806306fdde031461015d578063081812fc1461017b578063095ea7b3146101ab57806318160ddd146101c75780631d94ab04146101e557806323b872dd14610203575b600080fd5b61016561049f565b6040516101729190611db5565b60405180910390f35b61019560048036038101906101909190611ab6565b6104dc565b6040516101a29190611ce0565b60405180910390f35b6101c560048036038101906101c09190611a49565b610560565b005b6101cf61064b565b6040516101dc9190611f17565b60405180910390f35b6101ed610658565b6040516101fa9190611f17565b60405180910390f35b61021d6004803603810190610218919061192e565b61065e565b005b610227610727565b6040516102349190611f17565b60405180910390f35b6102576004803603810190610252919061192e565b61072c565b005b610273600480360381019061026e9190611ab6565b61073c565b6040516102809190611ce0565b60405180910390f35b6102a3600480360381019061029e91906118c1565b6107ee565b6040516102b09190611f17565b60405180910390f35b6102c16108a6565b005b6102dd60048036038101906102d89190611ab6565b6109e0565b6040516102ea9190611ce0565b60405180910390f35b6102fb610a13565b6040516103089190611ce0565b60405180910390f35b610319610a3c565b6040516103269190611db5565b60405180910390f35b61034960048036038101906103449190611a09565b610a79565b005b61036560048036038101906103609190611a49565b610baf565b005b61036f610c44565b60405161037c9190611db5565b60405180910390f35b61039f600480360381019061039a9190611981565b610c7d565b005b6103a9610d1d565b6040516103b69190611db5565b60405180910390f35b6103d960048036038101906103d49190611ab6565b610d56565b6040516103e69190611f17565b60405180910390f35b610409600480360381019061040491906118c1565b610e11565b6040516104169190611f17565b60405180910390f35b610439600480360381019061043491906118ee565b610e29565b6040516104469190611d9a565b60405180910390f35b61046960048036038101906104649190611ab6565b610ebd565b60405161047a959493929190611f32565b60405180910390f35b61049d600480360381019061049891906118c1565b610f73565b005b60606040518060400160405280600a81526020017f4b69747479437574696500000000000000000000000000000000000000000000815250905090565b60006001805490508210610525576040517f08c379a000000000000000000000000000000000000000000000000000000000815260040161051c90611dd7565b60405180910390fd5b6004600083815260200190815260200160002060009054906101000a900473ffffffffffffffffffffffffffffffffffffffff169050919050565b61056a338261111c565b61057357600080fd5b3373ffffffffffffffffffffffffffffffffffffffff168273ffffffffffffffffffffffffffffffffffffffff1614156105e2576040517f08c379a00000000000000000000000000000000000000000000000000000000081526004016105d990611e97565b60405180910390fd5b6105ec8282611188565b808273ffffffffffffffffffffffffffffffffffffffff163373ffffffffffffffffffffffffffffffffffffffff167f8c5be1e5ebec7d5bd14f71427d1e84f3dd0314c0f7b2291e5b200ac8c7c3b92560405160405180910390a45050565b6000600180549050905090565b60065481565b600073ffffffffffffffffffffffffffffffffffffffff168273ffffffffffffffffffffffffffffffffffffffff1614156106ce576040517f08c379a00000000000000000000000000000000000000000000000000000000081526004016106c590611e17565b60405180910390fd5b6106d833826111de565b610717576040517f08c379a000000000000000000000000000000000000000000000000000000000815260040161070e90611ed7565b60405180910390fd5b6107228383836112f7565b505050565b601481565b61073783838361072c565b505050565b6000806003600084815260200190815260200160002060009054906101000a900473ffffffffffffffffffffffffffffffffffffffff169050600073ffffffffffffffffffffffffffffffffffffffff168173ffffffffffffffffffffffffffffffffffffffff1614156107e5576040517f08c379a00000000000000000000000000000000000000000000000000000000081526004016107dc90611e77565b60405180910390fd5b80915050919050565b60008073ffffffffffffffffffffffffffffffffffffffff168273ffffffffffffffffffffffffffffffffffffffff16141561085f576040517f08c379a000000000000000000000000000000000000000000000000000000000815260040161085690611e57565b60405180910390fd5b600260008373ffffffffffffffffffffffffffffffffffffffff1673ffffffffffffffffffffffffffffffffffffffff168152602001908152602001600020549050919050565b6108ae6114be565b73ffffffffffffffffffffffffffffffffffffffff166108cc610a13565b73ffffffffffffffffffffffffffffffffffffffff1614610922576040517f08c379a000000000000000000000000000000000000000000000000000000000815260040161091990611eb7565b60405180910390fd5b600073ffffffffffffffffffffffffffffffffffffffff1660008054906101000a900473ffffffffffffffffffffffffffffffffffffffff1673ffffffffffffffffffffffffffffffffffffffff167f8be0079c531659141344cd1fd0a4f28419497f9722a3daafe3b4186f6b6457e060405160405180910390a360008060006101000a81548173ffffffffffffffffffffffffffffffffffffffff021916908373ffffffffffffffffffffffffffffffffffffffff160217905550565b60046020528060005260406000206000915054906101000a900473ffffffffffffffffffffffffffffffffffffffff1681565b60008060009054906101000a900473ffffffffffffffffffffffffffffffffffffffff16905090565b60606040518060400160405280600481526020017f4b54435400000000000000000000000000000000000000000000000000000000815250905090565b3373ffffffffffffffffffffffffffffffffffffffff168273ffffffffffffffffffffffffffffffffffffffff161415610ab257600080fd5b80600560003373ffffffffffffffffffffffffffffffffffffffff1673ffffffffffffffffffffffffffffffffffffffff16815260200190815260200160002060008473ffffffffffffffffffffffffffffffffffffffff1673ffffffffffffffffffffffffffffffffffffffff16815260200190815260200160002060006101000a81548160ff0219169083151502179055508173ffffffffffffffffffffffffffffffffffffffff163373ffffffffffffffffffffffffffffffffffffffff167f17307eab39ab6107e8899845ad3d59bd9653f200f220920489ca2b5937696c3183604051610ba39190611d9a565b60405180910390a35050565b8173ffffffffffffffffffffffffffffffffffffffff163073ffffffffffffffffffffffffffffffffffffffff161415610be857600080fd5b8173ffffffffffffffffffffffffffffffffffffffff16600073ffffffffffffffffffffffffffffffffffffffff161415610c2257600080fd5b610c2c338261111c565b610c3557600080fd5b610c403383836112f7565b5050565b6040518060400160405280600481526020017f4b5443540000000000000000000000000000000000000000000000000000000081525081565b610c8733846111de565b610cc6576040517f08c379a0000000000000000000000000000000000000000000000000000000008152600401610cbd90611ed7565b60405180910390fd5b610d1685858585858080601f016020809104026020016040519081016040528093929190818152602001838380828437600081840152601f19601f820116905080830192505050505050506114c6565b5050505050565b6040518060400160405280600a81526020017f4b6974747943757469650000000000000000000000000000000000000000000081525081565b6000610d606114be565b73ffffffffffffffffffffffffffffffffffffffff16610d7e610a13565b73ffffffffffffffffffffffffffffffffffffffff1614610dd4576040517f08c379a0000000000000000000000000000000000000000000000000000000008152600401610dcb90611eb7565b60405180910390fd5b601460065410610de357600080fd5b60066000815480929190610df6906120c2565b9190505550610e0a600080600085336114ec565b9050919050565b60026020528060005260406000206000915090505481565b6000600560008473ffffffffffffffffffffffffffffffffffffffff1673ffffffffffffffffffffffffffffffffffffffff16815260200190815260200160002060008373ffffffffffffffffffffffffffffffffffffffff1673ffffffffffffffffffffffffffffffffffffffff16815260200190815260200160002060009054906101000a900460ff16905092915050565b60008060008060008060018781548110610eda57610ed961213a565b5b90600052602060002090600202019050806000015495508060010160009054906101000a900467ffffffffffffffff1667ffffffffffffffff1694508060010160089054906101000a900463ffffffff1663ffffffff16935080600101600c9054906101000a900463ffffffff1663ffffffff1692508060010160109054906101000a900461ffff1661ffff1691505091939590929450565b610f7b6114be565b73ffffffffffffffffffffffffffffffffffffffff16610f99610a13565b73ffffffffffffffffffffffffffffffffffffffff1614610fef576040517f08c379a0000000000000000000000000000000000000000000000000000000008152600401610fe690611eb7565b60405180910390fd5b600073ffffffffffffffffffffffffffffffffffffffff168173ffffffffffffffffffffffffffffffffffffffff16141561105f576040517f08c379a000000000000000000000000000000000000000000000000000000000815260040161105690611df7565b60405180910390fd5b8073ffffffffffffffffffffffffffffffffffffffff1660008054906101000a900473ffffffffffffffffffffffffffffffffffffffff1673ffffffffffffffffffffffffffffffffffffffff167f8be0079c531659141344cd1fd0a4f28419497f9722a3daafe3b4186f6b6457e060405160405180910390a3806000806101000a81548173ffffffffffffffffffffffffffffffffffffffff021916908373ffffffffffffffffffffffffffffffffffffffff16021790555050565b60008273ffffffffffffffffffffffffffffffffffffffff166003600084815260200190815260200160002060009054906101000a900473ffffffffffffffffffffffffffffffffffffffff1673ffffffffffffffffffffffffffffffffffffffff1614905092915050565b816004600083815260200190815260200160002060006101000a81548173ffffffffffffffffffffffffffffffffffffffff021916908373ffffffffffffffffffffffffffffffffffffffff1602179055505050565b60006111e982611678565b611228576040517f08c379a000000000000000000000000000000000000000000000000000000000815260040161121f90611e37565b60405180910390fd5b611232338361111c565b611271576040517f08c379a000000000000000000000000000000000000000000000000000000000815260040161126890611ef7565b60405180910390fd5b3373ffffffffffffffffffffffffffffffffffffffff168373ffffffffffffffffffffffffffffffffffffffff1614806112de57508273ffffffffffffffffffffffffffffffffffffffff166112c6836104dc565b73ffffffffffffffffffffffffffffffffffffffff16145b806112ef57506112ee3384610e29565b5b905092915050565b600260008373ffffffffffffffffffffffffffffffffffffffff1673ffffffffffffffffffffffffffffffffffffffff1681526020019081526020016000206000815480929190611347906120c2565b9190505550816003600083815260200190815260200160002060006101000a81548173ffffffffffffffffffffffffffffffffffffffff021916908373ffffffffffffffffffffffffffffffffffffffff160217905550600073ffffffffffffffffffffffffffffffffffffffff168373ffffffffffffffffffffffffffffffffffffffff161461145e57600260008473ffffffffffffffffffffffffffffffffffffffff1673ffffffffffffffffffffffffffffffffffffffff168152602001908152602001600020600081548092919061142290612098565b91905055506004600082815260200190815260200160002060006101000a81549073ffffffffffffffffffffffffffffffffffffffff02191690555b808273ffffffffffffffffffffffffffffffffffffffff168473ffffffffffffffffffffffffffffffffffffffff167fddf252ad1be2c89b69c2b068fc378daa952ba7f163c4a11628f55a4df523b3ef60405160405180910390a4505050565b600033905090565b6114d18484846112f7565b6114dd848484846116e4565b6114e657600080fd5b50505050565b6000806040518060a001604052808581526020014267ffffffffffffffff1681526020018863ffffffff1681526020018763ffffffff1681526020018661ffff16815250905060018190806001815401808255809150506001900390600052602060002090600202016000909190919091506000820151816000015560208201518160010160006101000a81548167ffffffffffffffff021916908367ffffffffffffffff16021790555060408201518160010160086101000a81548163ffffffff021916908363ffffffff160217905550606082015181600101600c6101000a81548163ffffffff021916908363ffffffff16021790555060808201518160010160106101000a81548161ffff021916908361ffff160217905550505060006001808054905061161d9190611fbd565b90507f0a5311bd2a6608f08a180df2ee7c5946819a649b204b554bb8e39825b2c50ad584828a8a89604051611656959493929190611d47565b60405180910390a161166a600085836112f7565b809250505095945050505050565b60008073ffffffffffffffffffffffffffffffffffffffff166003600084815260200190815260200160002060009054906101000a900473ffffffffffffffffffffffffffffffffffffffff1673ffffffffffffffffffffffffffffffffffffffff1614159050919050565b60006116ef846117fe565b6116fc57600190506117f6565b60008473ffffffffffffffffffffffffffffffffffffffff1663150b7a02338887876040518563ffffffff1660e01b815260040161173d9493929190611cfb565b602060405180830381600087803b15801561175757600080fd5b505af115801561176b573d6000803e3d6000fd5b505050506040513d601f19601f8201168201806040525081019061178f9190611a89565b90507f150b7a023d4804d13e8c85fb27262cb750cf6ba9f9dd3bb30d90f482ceeb4b1f7bffffffffffffffffffffffffffffffffffffffffffffffffffffffff1916817bffffffffffffffffffffffffffffffffffffffffffffffffffffffff1916149150505b949350505050565b600080823b905060008163ffffffff1611915050919050565b60008135905061182681612437565b92915050565b60008135905061183b8161244e565b92915050565b60008151905061185081612465565b92915050565b60008083601f84011261186c5761186b61216e565b5b8235905067ffffffffffffffff81111561188957611888612169565b5b6020830191508360018202830111156118a5576118a4612173565b5b9250929050565b6000813590506118bb8161247c565b92915050565b6000602082840312156118d7576118d661217d565b5b60006118e584828501611817565b91505092915050565b600080604083850312156119055761190461217d565b5b600061191385828601611817565b925050602061192485828601611817565b9150509250929050565b6000806000606084860312156119475761194661217d565b5b600061195586828701611817565b935050602061196686828701611817565b9250506040611977868287016118ac565b9150509250925092565b60008060008060006080868803121561199d5761199c61217d565b5b60006119ab88828901611817565b95505060206119bc88828901611817565b94505060406119cd888289016118ac565b935050606086013567ffffffffffffffff8111156119ee576119ed612178565b5b6119fa88828901611856565b92509250509295509295909350565b60008060408385031215611a2057611a1f61217d565b5b6000611a2e85828601611817565b9250506020611a3f8582860161182c565b9150509250929050565b60008060408385031215611a6057611a5f61217d565b5b6000611a6e85828601611817565b9250506020611a7f858286016118ac565b9150509250929050565b600060208284031215611a9f57611a9e61217d565b5b6000611aad84828501611841565b91505092915050565b600060208284031215611acc57611acb61217d565b5b6000611ada848285016118ac565b91505092915050565b611aec81611ff1565b82525050565b611afb81612003565b82525050565b6000611b0c82611f85565b611b168185611f9b565b9350611b26818560208601612065565b611b2f81612182565b840191505092915050565b6000611b4582611f90565b611b4f8185611fac565b9350611b5f818560208601612065565b611b6881612182565b840191505092915050565b6000611b80601483611fac565b9150611b8b82612193565b602082019050919050565b6000611ba3602683611fac565b9150611bae826121bc565b604082019050919050565b6000611bc6600f83611fac565b9150611bd18261220b565b602082019050919050565b6000611be9602c83611fac565b9150611bf482612234565b604082019050919050565b6000611c0c602a83611fac565b9150611c1782612283565b604082019050919050565b6000611c2f602983611fac565b9150611c3a826122d2565b604082019050919050565b6000611c52602b83611fac565b9150611c5d82612321565b604082019050919050565b6000611c75602083611fac565b9150611c8082612370565b602082019050919050565b6000611c98603183611fac565b9150611ca382612399565b604082019050919050565b6000611cbb602683611fac565b9150611cc6826123e8565b604082019050919050565b611cda8161205b565b82525050565b6000602082019050611cf56000830184611ae3565b92915050565b6000608082019050611d106000830187611ae3565b611d1d6020830186611ae3565b611d2a6040830185611cd1565b8181036060830152611d3c8184611b01565b905095945050505050565b600060a082019050611d5c6000830188611ae3565b611d696020830187611cd1565b611d766040830186611cd1565b611d836060830185611cd1565b611d906080830184611cd1565b9695505050505050565b6000602082019050611daf6000830184611af2565b92915050565b60006020820190508181036000830152611dcf8184611b3a565b905092915050565b60006020820190508181036000830152611df081611b73565b9050919050565b60006020820190508181036000830152611e1081611b96565b9050919050565b60006020820190508181036000830152611e3081611bb9565b9050919050565b60006020820190508181036000830152611e5081611bdc565b9050919050565b60006020820190508181036000830152611e7081611bff565b9050919050565b60006020820190508181036000830152611e9081611c22565b9050919050565b60006020820190508181036000830152611eb081611c45565b9050919050565b60006020820190508181036000830152611ed081611c68565b9050919050565b60006020820190508181036000830152611ef081611c8b565b9050919050565b60006020820190508181036000830152611f1081611cae565b9050919050565b6000602082019050611f2c6000830184611cd1565b92915050565b600060a082019050611f476000830188611cd1565b611f546020830187611cd1565b611f616040830186611cd1565b611f6e6060830185611cd1565b611f7b6080830184611cd1565b9695505050505050565b600081519050919050565b600081519050919050565b600082825260208201905092915050565b600082825260208201905092915050565b6000611fc88261205b565b9150611fd38361205b565b925082821015611fe657611fe561210b565b5b828203905092915050565b6000611ffc8261203b565b9050919050565b60008115159050919050565b60007fffffffff0000000000000000000000000000000000000000000000000000000082169050919050565b600073ffffffffffffffffffffffffffffffffffffffff82169050919050565b6000819050919050565b60005b83811015612083578082015181840152602081019050612068565b83811115612092576000848401525b50505050565b60006120a38261205b565b915060008214156120b7576120b661210b565b5b600182039050919050565b60006120cd8261205b565b91507fffffffffffffffffffffffffffffffffffffffffffffffffffffffffffffffff821415612100576120ff61210b565b5b600182019050919050565b7f4e487b7100000000000000000000000000000000000000000000000000000000600052601160045260246000fd5b7f4e487b7100000000000000000000000000000000000000000000000000000000600052603260045260246000fd5b600080fd5b600080fd5b600080fd5b600080fd5b600080fd5b6000601f19601f8301169050919050565b7f4b6974747920646f6573206e6f74206578697374000000000000000000000000600082015250565b7f4f776e61626c653a206e6577206f776e657220697320746865207a65726f206160008201527f6464726573730000000000000000000000000000000000000000000000000000602082015250565b7f4164647265737320696e76616c69640000000000000000000000000000000000600082015250565b7f4552433732313a206f70657261746f7220717565727920666f72206e6f6e657860008201527f697374656e7420746f6b656e0000000000000000000000000000000000000000602082015250565b7f4552433732313a2062616c616e636520717565727920666f7220746865207a6560008201527f726f206164647265737300000000000000000000000000000000000000000000602082015250565b7f4552433732313a206f776e657220717565727920666f72206e6f6e657869737460008201527f656e7420746f6b656e0000000000000000000000000000000000000000000000602082015250565b7f4164647265737320746f20617070726f76652069732073616d65206173206f7760008201527f6e65722061646472657373000000000000000000000000000000000000000000602082015250565b7f4f776e61626c653a2063616c6c6572206973206e6f7420746865206f776e6572600082015250565b7f4552433732313a207472616e736665722063616c6c6572206973206e6f74206f60008201527f776e6572206e6f7220617070726f766564000000000000000000000000000000602082015250565b7f4552433732313a2053656e64657220646f6573206e6f74206f776e207468697360008201527f20746f6b656e0000000000000000000000000000000000000000000000000000602082015250565b61244081611ff1565b811461244b57600080fd5b50565b61245781612003565b811461246257600080fd5b50565b61246e8161200f565b811461247957600080fd5b50565b6124858161205b565b811461249057600080fd5b5056fea2646970667358221220795a0d94fe5543da82fd35bd1edbb5dde7b624fd6a77eb80a53ca897a6a534c364736f6c63430008060033",
  "immutableReferences": {},
  "source": "// SPDX-License-Identifier: MIT\r\npragma solidity ^0.8.0;\r\n\r\nimport \"./IERC721.sol\";\r\nimport \"./IERC721Receiver.sol\";\r\nimport \"../node_modules/@openzeppelin/contracts/utils/math/SafeMath.sol\";\r\nimport \"../node_modules/@openzeppelin/contracts/access/Ownable.sol\";\r\n\r\ncontract Kittycontract is IERC721, Ownable{\r\n    using SafeMath for uint256;\r\n    \r\n    string public constant _name = \"KittyCutie\";\r\n    string public constant _symbol = \"KTCT\";\r\n    uint public constant Gen0_limit = 20;\r\n\r\n    bytes4 internal constant MAGIC_ERC721_RECEIVED = bytes4(keccak256(\"onERC721Received(address,address,uint256,bytes)\"));\r\n\r\n    event Birth(address owner, uint256 kittenId, uint256 mumId, uint256 dadId, uint256 genes);\r\n    \r\n    \r\n    struct Kitty {\r\n        uint256 genes;\r\n        uint64 birthTime;\r\n        uint32 mumId;\r\n        uint32 dadId;\r\n        uint16 generation;\r\n    }\r\n\r\n    Kitty[] kitties;\r\n\r\n    mapping(address => uint256) public _kittyBalance;\r\n    mapping(uint256 => address) _kittyOwners;\r\n    mapping(uint256 => address) public _kittyApprovals; //owner approve a specific address to transfer a specific kitty (token) \r\n    mapping(address => mapping(address => bool)) private _operatorApprovals; //owner approve a specific address to transfer all kities owned\r\n\r\n    uint256 public Gen0_Kitties_created;\r\n\r\n    function createKittyGen0(uint256 _genes) public onlyOwner returns(uint256) {\r\n        require(Gen0_Kitties_created < Gen0_limit);\r\n        Gen0_Kitties_created ++;\r\n\r\n        return _createKitty(0, 0, 0, _genes, msg.sender);\r\n    }\r\n\r\n    function _createKitty(uint256 _mumId, uint256 _dadId, uint256 _generation, uint256 _genes, address _owner) private returns (uint256) {\r\n        Kitty memory _kitty = Kitty({\r\n            genes: _genes,\r\n            birthTime: uint64(block.timestamp),\r\n            mumId: uint32(_mumId),\r\n            dadId: uint32(_dadId),\r\n            generation: uint16(_generation)\r\n        });\r\n\r\n        kitties.push(_kitty);\r\n        uint256 newKittenId = kitties.length - 1;\r\n\r\n        emit Birth(_owner, newKittenId, _mumId, _dadId, _genes);\r\n        _transfer(address(0), _owner, newKittenId); //transfer from nowhere(address(0)) means Creation of a Kitty\r\n\r\n        return newKittenId;\r\n    }\r\n\r\n    function getKitty(uint256 _id) public view returns (\r\n        uint256 _genes,\r\n        uint256 _birthTime,\r\n        uint256 _mumId,\r\n        uint256 _dadId,\r\n        uint256 _generation\r\n    ) \r\n    {\r\n        Kitty storage kitty = kitties[_id];\r\n\r\n        _genes = kitty.genes;\r\n        _birthTime = uint256(kitty.birthTime);\r\n        _mumId = uint256(kitty.mumId);\r\n        _dadId = uint256(kitty.dadId);\r\n        _generation = uint256(kitty.generation);       \r\n    }\r\n    \r\n    function balanceOf(address _owner) public view override returns (uint256) {\r\n        require(_owner != address(0), \"ERC721: balance query for the zero address\");\r\n        return _kittyBalance[_owner];\r\n    }\r\n\r\n    function totalSupply() public view override returns (uint256 total) {\r\n        return kitties.length;\r\n    }\r\n\r\n    function name() public pure override returns (string memory) {\r\n        return _name;\r\n    }\r\n\r\n    function symbol() public pure override returns (string memory) {\r\n        return _symbol;\r\n    }\r\n\r\n    function ownerOf(uint256 _tokenId) public view override returns (address) {\r\n        address owner = _kittyOwners[_tokenId];\r\n        require(owner != address(0), \"ERC721: owner query for nonexistent token\");\r\n        return owner;\r\n    }\r\n\r\n    function transfer(address _to, uint256 _tokenId) public override {\r\n        require(address(this) != _to);\r\n        require(address(0) != _to);\r\n        require(_ownedBy(msg.sender, _tokenId));\r\n\r\n        _transfer(msg.sender, _to, _tokenId);\r\n    }\r\n\r\n    function approve(address _approved, uint256 _tokenId) external virtual override {\r\n        require(_ownedBy(msg.sender, _tokenId));\r\n        require(_approved != msg.sender, \"Address to approve is same as owner address\");\r\n\r\n        _approve(_approved, _tokenId);\r\n        emit Approval(msg.sender, _approved, _tokenId);\r\n    }\r\n\r\n    function setApprovalForAll(address _operator, bool _approved) external virtual override{\r\n        require(_operator != msg.sender);\r\n\r\n        _operatorApprovals[msg.sender][_operator] = _approved;\r\n        emit ApprovalForAll(msg.sender, _operator, _approved);\r\n    }\r\n\r\n    function getApproved(uint256 _tokenId) public view override returns (address){\r\n        require(_tokenId < kitties.length, \"Kitty does not exist\");\r\n\r\n        return _kittyApprovals[_tokenId];\r\n    }\r\n\r\n    function isApprovedForAll(address _owner, address _operator) public view override returns (bool) {\r\n        return _operatorApprovals[_owner][_operator];\r\n    }\r\n\r\n    function transferFrom(address _from, address _to, uint256 _tokenId) public override {\r\n        require(_to != address(0), \"Address invalid\");\r\n        require(_isApprovedOrOwner(msg.sender, _tokenId), \"ERC721: transfer caller is not owner nor approved\");\r\n\r\n        _transfer(_from, _to, _tokenId);\r\n    }\r\n\r\n    function safeTransferFrom(address _from, address _to, uint256 _tokenId, bytes calldata _data) public virtual override {\r\n        require(_isApprovedOrOwner(msg.sender, _tokenId), \"ERC721: transfer caller is not owner nor approved\");\r\n        _safeTransfer(_from, _to, _tokenId, _data);\r\n    }\r\n\r\n    function safeTransferFrom(address _from, address _to, uint256 _tokenId) public virtual override {\r\n        safeTransferFrom(_from, _to, _tokenId);\r\n    }\r\n\r\n//re-usable functions\r\n    function _ownedBy(address claimant, uint256 _tokenId) internal view returns(bool) {\r\n        return _kittyOwners[_tokenId] == claimant;\r\n    }\r\n\r\n    function _transfer(address _from, address _to, uint256 _tokenId) internal {\r\n        _kittyBalance[_to]++;\r\n        _kittyOwners[_tokenId] = _to;\r\n        \r\n        if(_from != address(0)){\r\n            _kittyBalance[_from]--;\r\n            delete _kittyApprovals[_tokenId]; //remove approval when token is transferred to another owner\r\n        }\r\n        \r\n        emit Transfer(_from, _to, _tokenId);\r\n    }\r\n\r\n    function _approve(address _to, uint256 _tokenId) internal virtual { \r\n        _kittyApprovals[_tokenId] = _to;\r\n    }\r\n\r\n    function _isApprovedOrOwner(address _spender, uint256 _tokenId) internal view virtual returns (bool) {\r\n        require(_exists(_tokenId), \"ERC721: operator query for nonexistent token\");\r\n        require(_ownedBy(msg.sender, _tokenId), \"ERC721: Sender does not own this token\");\r\n        return (_spender == msg.sender || getApproved(_tokenId) == _spender || isApprovedForAll(msg.sender, _spender));\r\n    }\r\n\r\n    function _exists(uint256 _tokenId) internal view virtual returns (bool) {\r\n        return _kittyOwners[_tokenId] != address(0);\r\n    }\r\n\r\n    function _safeTransfer(address _from, address _to, uint256 _tokenId, bytes memory _data) internal {\r\n        _transfer(_from, _to, _tokenId);\r\n        require(_checkERC721Support(_from, _to, _tokenId, _data) );\r\n    }\r\n\r\n    function _checkERC721Support(address _from, address _to, uint256 _tokenId, bytes memory _data) internal returns(bool) {\r\n        //checks if receiver is a contract\r\n        if(!_isContract(_to) ){\r\n            return true;\r\n        }\r\n        //Call onERC721Received in the _to contract\r\n        bytes4 returnData = IERC721Receiver(_to).onERC721Received(msg.sender, _from, _tokenId, _data);\r\n        //check return value\r\n        return returnData == MAGIC_ERC721_RECEIVED;\r\n    }\r\n\r\n    function _isContract(address _to) internal view returns (bool){\r\n        uint32 size;\r\n        assembly{\r\n            size := extcodesize(_to)\r\n        }\r\n        return size > 0;\r\n    }\r\n}",
  "sourcePath": "C:/Users/Xyz Fiegalan/OneDrive/Desktop/My Projects/crypto-kitties-clone/Cloning-CryptoKitties/contracts/Kittycontract.sol",
  "compiler": {
    "name": "solc",
    "version": "0.8.6+commit.11564f7e.Emscripten.clang"
  },
  "schemaVersion": "3.3.4",
  "updatedAt": "2021-07-02T04:41:01.667Z",
  "devdoc": {
    "kind": "dev",
    "methods": {
      "approve(address,uint256)": {
        "details": "The zero address indicates there is no approved address.  Throws unless `msg.sender` is the current NFT owner, or an authorized  operator of the current owner.",
        "params": {
          "_approved": "The new approved NFT controller",
          "_tokenId": "The NFT to approve"
        }
      },
      "getApproved(uint256)": {
        "details": "Throws if `_tokenId` is not a valid NFT.",
        "params": {
          "_tokenId": "The NFT to find the approved address for"
        },
        "returns": {
          "_0": "The approved address for this NFT, or the zero address if there is none"
        }
      },
      "isApprovedForAll(address,address)": {
        "params": {
          "_operator": "The address that acts on behalf of the owner",
          "_owner": "The address that owns the NFTs"
        },
        "returns": {
          "_0": "True if `_operator` is an approved operator for `_owner`, false otherwise"
        }
      },
      "owner()": {
        "details": "Returns the address of the current owner."
      },
      "renounceOwnership()": {
        "details": "Leaves the contract without owner. It will not be possible to call `onlyOwner` functions anymore. Can only be called by the current owner. NOTE: Renouncing ownership will leave the contract without an owner, thereby removing any functionality that is only available to the owner."
      },
      "safeTransferFrom(address,address,uint256)": {
        "details": "This works identically to the other function with an extra data parameter,  except this function just sets data to \"\".",
        "params": {
          "_from": "The current owner of the NFT",
          "_to": "The new owner",
          "_tokenId": "The NFT to transfer"
        }
      },
      "setApprovalForAll(address,bool)": {
        "details": "Emits the ApprovalForAll event. The contract MUST allow  multiple operators per owner.",
        "params": {
          "_approved": "True if the operator is approved, false to revoke approval",
          "_operator": "Address to add to the set of authorized operators"
        }
      },
      "transferFrom(address,address,uint256)": {
        "details": "Throws unless `msg.sender` is the current owner, an authorized  operator, or the approved address for this NFT. Throws if `_from` is  not the current owner. Throws if `_to` is the zero address. Throws if  `_tokenId` is not a valid NFT.",
        "params": {
          "_from": "The current owner of the NFT",
          "_to": "The new owner",
          "_tokenId": "The NFT to transfer"
        }
      },
      "transferOwnership(address)": {
        "details": "Transfers ownership of the contract to a new account (`newOwner`). Can only be called by the current owner."
      }
    },
    "version": 1
  },
  "userdoc": {
    "kind": "user",
    "methods": {
      "approve(address,uint256)": {
        "notice": "Change or reaffirm the approved address for an NFT"
      },
      "getApproved(uint256)": {
        "notice": "Get the approved address for a single NFT"
      },
      "isApprovedForAll(address,address)": {
        "notice": "Query if an address is an authorized operator for another address"
      },
      "safeTransferFrom(address,address,uint256)": {
        "notice": "Transfers the ownership of an NFT from one address to another address"
      },
      "setApprovalForAll(address,bool)": {
        "notice": "Enable or disable approval for a third party (\"operator\") to manage  all of `msg.sender`'s assets"
      },
      "transferFrom(address,address,uint256)": {
        "notice": "Transfer ownership of an NFT -- THE CALLER IS RESPONSIBLE  TO CONFIRM THAT `_to` IS CAPABLE OF RECEIVING NFTS OR ELSE  THEY MAY BE PERMANENTLY LOST"
      }
    },
    "version": 1
  }
}