{
  "contractName": "Kittycontract",
  "abi": [
    {
      "anonymous": false,
      "inputs": [
        {
          "indexed": true,
          "internalType": "address",
          "name": "owner",
          "type": "address"
        },
        {
          "indexed": true,
          "internalType": "address",
          "name": "approved",
          "type": "address"
        },
        {
          "indexed": true,
          "internalType": "uint256",
          "name": "tokenId",
          "type": "uint256"
        }
      ],
      "name": "Approval",
      "type": "event"
    },
    {
      "anonymous": false,
      "inputs": [
        {
          "indexed": true,
          "internalType": "address",
          "name": "owner",
          "type": "address"
        },
        {
          "indexed": true,
          "internalType": "address",
          "name": "operator",
          "type": "address"
        },
        {
          "indexed": false,
          "internalType": "bool",
          "name": "approved",
          "type": "bool"
        }
      ],
      "name": "ApprovalForAll",
      "type": "event"
    },
    {
      "anonymous": false,
      "inputs": [
        {
          "indexed": false,
          "internalType": "address",
          "name": "owner",
          "type": "address"
        },
        {
          "indexed": false,
          "internalType": "uint256",
          "name": "kittenId",
          "type": "uint256"
        },
        {
          "indexed": false,
          "internalType": "uint256",
          "name": "mumId",
          "type": "uint256"
        },
        {
          "indexed": false,
          "internalType": "uint256",
          "name": "dadId",
          "type": "uint256"
        },
        {
          "indexed": false,
          "internalType": "uint256",
          "name": "genes",
          "type": "uint256"
        }
      ],
      "name": "Birth",
      "type": "event"
    },
    {
      "anonymous": false,
      "inputs": [
        {
          "indexed": true,
          "internalType": "address",
          "name": "previousOwner",
          "type": "address"
        },
        {
          "indexed": true,
          "internalType": "address",
          "name": "newOwner",
          "type": "address"
        }
      ],
      "name": "OwnershipTransferred",
      "type": "event"
    },
    {
      "anonymous": false,
      "inputs": [
        {
          "indexed": true,
          "internalType": "address",
          "name": "from",
          "type": "address"
        },
        {
          "indexed": true,
          "internalType": "address",
          "name": "to",
          "type": "address"
        },
        {
          "indexed": true,
          "internalType": "uint256",
          "name": "tokenId",
          "type": "uint256"
        }
      ],
      "name": "Transfer",
      "type": "event"
    },
    {
      "inputs": [],
      "name": "Gen0_Kitties_created",
      "outputs": [
        {
          "internalType": "uint256",
          "name": "",
          "type": "uint256"
        }
      ],
      "stateMutability": "view",
      "type": "function"
    },
    {
      "inputs": [],
      "name": "Gen0_limit",
      "outputs": [
        {
          "internalType": "uint256",
          "name": "",
          "type": "uint256"
        }
      ],
      "stateMutability": "view",
      "type": "function"
    },
    {
      "inputs": [
        {
          "internalType": "uint256",
          "name": "",
          "type": "uint256"
        }
      ],
      "name": "_kittyApprovals",
      "outputs": [
        {
          "internalType": "address",
          "name": "",
          "type": "address"
        }
      ],
      "stateMutability": "view",
      "type": "function"
    },
    {
      "inputs": [
        {
          "internalType": "address",
          "name": "",
          "type": "address"
        }
      ],
      "name": "_kittyBalance",
      "outputs": [
        {
          "internalType": "uint256",
          "name": "",
          "type": "uint256"
        }
      ],
      "stateMutability": "view",
      "type": "function"
    },
    {
      "inputs": [],
      "name": "_name",
      "outputs": [
        {
          "internalType": "string",
          "name": "",
          "type": "string"
        }
      ],
      "stateMutability": "view",
      "type": "function"
    },
    {
      "inputs": [],
      "name": "_symbol",
      "outputs": [
        {
          "internalType": "string",
          "name": "",
          "type": "string"
        }
      ],
      "stateMutability": "view",
      "type": "function"
    },
    {
      "inputs": [],
      "name": "owner",
      "outputs": [
        {
          "internalType": "address",
          "name": "",
          "type": "address"
        }
      ],
      "stateMutability": "view",
      "type": "function"
    },
    {
      "inputs": [],
      "name": "renounceOwnership",
      "outputs": [],
      "stateMutability": "nonpayable",
      "type": "function"
    },
    {
      "inputs": [
        {
          "internalType": "address",
          "name": "newOwner",
          "type": "address"
        }
      ],
      "name": "transferOwnership",
      "outputs": [],
      "stateMutability": "nonpayable",
      "type": "function"
    },
    {
      "inputs": [
        {
          "internalType": "uint256",
          "name": "_genes",
          "type": "uint256"
        }
      ],
      "name": "createKittyGen0",
      "outputs": [
        {
          "internalType": "uint256",
          "name": "",
          "type": "uint256"
        }
      ],
      "stateMutability": "nonpayable",
      "type": "function"
    },
    {
      "inputs": [
        {
          "internalType": "address",
          "name": "_owner",
          "type": "address"
        }
      ],
      "name": "getKittyByOwner",
      "outputs": [
        {
          "internalType": "uint256[]",
          "name": "",
          "type": "uint256[]"
        }
      ],
      "stateMutability": "view",
      "type": "function"
    },
    {
      "inputs": [
        {
          "internalType": "uint256",
          "name": "_id",
          "type": "uint256"
        }
      ],
      "name": "getKitty",
      "outputs": [
        {
          "internalType": "uint256",
          "name": "_genes",
          "type": "uint256"
        },
        {
          "internalType": "uint256",
          "name": "_birthTime",
          "type": "uint256"
        },
        {
          "internalType": "uint256",
          "name": "_mumId",
          "type": "uint256"
        },
        {
          "internalType": "uint256",
          "name": "_dadId",
          "type": "uint256"
        },
        {
          "internalType": "uint256",
          "name": "_generation",
          "type": "uint256"
        }
      ],
      "stateMutability": "view",
      "type": "function"
    },
    {
      "inputs": [
        {
          "internalType": "address",
          "name": "_owner",
          "type": "address"
        }
      ],
      "name": "balanceOf",
      "outputs": [
        {
          "internalType": "uint256",
          "name": "",
          "type": "uint256"
        }
      ],
      "stateMutability": "view",
      "type": "function"
    },
    {
      "inputs": [],
      "name": "totalSupply",
      "outputs": [
        {
          "internalType": "uint256",
          "name": "total",
          "type": "uint256"
        }
      ],
      "stateMutability": "view",
      "type": "function"
    },
    {
      "inputs": [],
      "name": "name",
      "outputs": [
        {
          "internalType": "string",
          "name": "",
          "type": "string"
        }
      ],
      "stateMutability": "pure",
      "type": "function"
    },
    {
      "inputs": [],
      "name": "symbol",
      "outputs": [
        {
          "internalType": "string",
          "name": "",
          "type": "string"
        }
      ],
      "stateMutability": "pure",
      "type": "function"
    },
    {
      "inputs": [
        {
          "internalType": "uint256",
          "name": "_tokenId",
          "type": "uint256"
        }
      ],
      "name": "ownerOf",
      "outputs": [
        {
          "internalType": "address",
          "name": "",
          "type": "address"
        }
      ],
      "stateMutability": "view",
      "type": "function"
    },
    {
      "inputs": [
        {
          "internalType": "address",
          "name": "_to",
          "type": "address"
        },
        {
          "internalType": "uint256",
          "name": "_tokenId",
          "type": "uint256"
        }
      ],
      "name": "transfer",
      "outputs": [],
      "stateMutability": "nonpayable",
      "type": "function"
    },
    {
      "inputs": [
        {
          "internalType": "address",
          "name": "_to",
          "type": "address"
        },
        {
          "internalType": "uint256",
          "name": "_tokenId",
          "type": "uint256"
        }
      ],
      "name": "approve",
      "outputs": [],
      "stateMutability": "nonpayable",
      "type": "function"
    },
    {
      "inputs": [
        {
          "internalType": "address",
          "name": "_operator",
          "type": "address"
        },
        {
          "internalType": "bool",
          "name": "_approved",
          "type": "bool"
        }
      ],
      "name": "setApprovalForAll",
      "outputs": [],
      "stateMutability": "nonpayable",
      "type": "function"
    },
    {
      "inputs": [
        {
          "internalType": "uint256",
          "name": "_tokenId",
          "type": "uint256"
        }
      ],
      "name": "getApproved",
      "outputs": [
        {
          "internalType": "address",
          "name": "",
          "type": "address"
        }
      ],
      "stateMutability": "view",
      "type": "function"
    },
    {
      "inputs": [
        {
          "internalType": "address",
          "name": "_owner",
          "type": "address"
        },
        {
          "internalType": "address",
          "name": "_operator",
          "type": "address"
        }
      ],
      "name": "isApprovedForAll",
      "outputs": [
        {
          "internalType": "bool",
          "name": "",
          "type": "bool"
        }
      ],
      "stateMutability": "view",
      "type": "function"
    },
    {
      "inputs": [
        {
          "internalType": "address",
          "name": "_from",
          "type": "address"
        },
        {
          "internalType": "address",
          "name": "_to",
          "type": "address"
        },
        {
          "internalType": "uint256",
          "name": "_tokenId",
          "type": "uint256"
        }
      ],
      "name": "transferFrom",
      "outputs": [],
      "stateMutability": "nonpayable",
      "type": "function"
    },
    {
      "inputs": [
        {
          "internalType": "address",
          "name": "_from",
          "type": "address"
        },
        {
          "internalType": "address",
          "name": "_to",
          "type": "address"
        },
        {
          "internalType": "uint256",
          "name": "_tokenId",
          "type": "uint256"
        }
      ],
      "name": "safeTransferFrom",
      "outputs": [],
      "stateMutability": "nonpayable",
      "type": "function"
    },
    {
      "inputs": [
        {
          "internalType": "address",
          "name": "_from",
          "type": "address"
        },
        {
          "internalType": "address",
          "name": "_to",
          "type": "address"
        },
        {
          "internalType": "uint256",
          "name": "_tokenId",
          "type": "uint256"
        },
        {
          "internalType": "bytes",
          "name": "_data",
          "type": "bytes"
        }
      ],
      "name": "safeTransferFrom",
      "outputs": [],
      "stateMutability": "nonpayable",
      "type": "function"
    },
    {
      "inputs": [
        {
          "internalType": "bytes4",
          "name": "_interfaceId",
          "type": "bytes4"
        }
      ],
      "name": "supportsInterface",
      "outputs": [
        {
          "internalType": "bool",
          "name": "",
          "type": "bool"
        }
      ],
      "stateMutability": "pure",
      "type": "function"
    }
  ],
  "bytecode": "0x608060405234801561001057600080fd5b5060006100216100c460201b60201c565b9050806000806101000a81548173ffffffffffffffffffffffffffffffffffffffff021916908373ffffffffffffffffffffffffffffffffffffffff1602179055508073ffffffffffffffffffffffffffffffffffffffff16600073ffffffffffffffffffffffffffffffffffffffff167f8be0079c531659141344cd1fd0a4f28419497f9722a3daafe3b4186f6b6457e060405160405180910390a3506100cc565b600033905090565b6127ad806100db6000396000f3fe608060405234801561001057600080fd5b506004361061018e5760003560e01c80638da5cb5b116100de578063b88d4fde11610097578063e23b07af11610071578063e23b07af14610485578063e985e9c5146104b5578063e98b7f4d146104e5578063f2fde38b146105195761018e565b8063b88d4fde1461041b578063d28d885214610437578063d5a776ca146104555761018e565b80638da5cb5b1461035957806395d89b411461037757806395e6c62f14610395578063a22cb465146103c5578063a9059cbb146103e1578063b09f1266146103fd5761018e565b806323b872dd1161014b5780636352211e116101255780636352211e146102bf57806370a08231146102ef578063715018a61461031f57806373719251146103295761018e565b806323b872dd146102695780633cd331f51461028557806342842e0e146102a35761018e565b806301ffc9a71461019357806306fdde03146101c3578063081812fc146101e1578063095ea7b31461021157806318160ddd1461022d5780631d94ab041461024b575b600080fd5b6101ad60048036038101906101a89190611d09565b610535565b6040516101ba91906120a8565b60405180910390f35b6101cb6105d5565b6040516101d891906120c3565b60405180910390f35b6101fb60048036038101906101f69190611d63565b610612565b6040516102089190611fcc565b60405180910390f35b61022b60048036038101906102269190611cc9565b6106a8565b005b610235610793565b60405161024291906121e5565b60405180910390f35b6102536107a0565b60405161026091906121e5565b60405180910390f35b610283600480360381019061027e9190611bae565b6107a6565b005b61028d610801565b60405161029a91906121e5565b60405180910390f35b6102bd60048036038101906102b89190611bae565b610806565b005b6102d960048036038101906102d49190611d63565b610816565b6040516102e69190611fcc565b60405180910390f35b61030960048036038101906103049190611b41565b6108c8565b60405161031691906121e5565b60405180910390f35b610327610980565b005b610343600480360381019061033e9190611d63565b610aba565b6040516103509190611fcc565b60405180910390f35b610361610aed565b60405161036e9190611fcc565b60405180910390f35b61037f610b16565b60405161038c91906120c3565b60405180910390f35b6103af60048036038101906103aa9190611b41565b610b53565b6040516103bc9190612086565b60405180910390f35b6103df60048036038101906103da9190611c89565b610ca6565b005b6103fb60048036038101906103f69190611cc9565b610ddc565b005b610405610e71565b60405161041291906120c3565b60405180910390f35b61043560048036038101906104309190611c01565b610eaa565b005b61043f610f4c565b60405161044c91906120c3565b60405180910390f35b61046f600480360381019061046a9190611d63565b610f85565b60405161047c91906121e5565b60405180910390f35b61049f600480360381019061049a9190611b41565b611040565b6040516104ac91906121e5565b60405180910390f35b6104cf60048036038101906104ca9190611b6e565b611058565b6040516104dc91906120a8565b60405180910390f35b6104ff60048036038101906104fa9190611d63565b6110ec565b604051610510959493929190612200565b60405180910390f35b610533600480360381019061052e9190611b41565b6111a2565b005b60006380ac58cd60e01b7bffffffffffffffffffffffffffffffffffffffffffffffffffffffff1916827bffffffffffffffffffffffffffffffffffffffffffffffffffffffff191614806105ce57506301ffc9a760e01b7bffffffffffffffffffffffffffffffffffffffffffffffffffffffff1916827bffffffffffffffffffffffffffffffffffffffffffffffffffffffff1916145b9050919050565b60606040518060400160405280600a81526020017f4b69747479437574696500000000000000000000000000000000000000000000815250905090565b600061061d8261134b565b61065c576040517f08c379a000000000000000000000000000000000000000000000000000000000815260040161065390612105565b60405180910390fd5b600180549050821061066d57600080fd5b6004600083815260200190815260200160002060009054906101000a900473ffffffffffffffffffffffffffffffffffffffff169050919050565b6106b233826113b7565b6106bb57600080fd5b3373ffffffffffffffffffffffffffffffffffffffff168273ffffffffffffffffffffffffffffffffffffffff16141561072a576040517f08c379a000000000000000000000000000000000000000000000000000000000815260040161072190612165565b60405180910390fd5b6107348282611423565b808273ffffffffffffffffffffffffffffffffffffffff163373ffffffffffffffffffffffffffffffffffffffff167f8c5be1e5ebec7d5bd14f71427d1e84f3dd0314c0f7b2291e5b200ac8c7c3b92560405160405180910390a45050565b6000600180549050905090565b60065481565b6107b233848484611479565b6107f1576040517f08c379a00000000000000000000000000000000000000000000000000000000081526004016107e8906121a5565b60405180910390fd5b6107fc8383836115ce565b505050565b601481565b610811838383610806565b505050565b6000806003600084815260200190815260200160002060009054906101000a900473ffffffffffffffffffffffffffffffffffffffff169050600073ffffffffffffffffffffffffffffffffffffffff168173ffffffffffffffffffffffffffffffffffffffff1614156108bf576040517f08c379a00000000000000000000000000000000000000000000000000000000081526004016108b690612145565b60405180910390fd5b80915050919050565b60008073ffffffffffffffffffffffffffffffffffffffff168273ffffffffffffffffffffffffffffffffffffffff161415610939576040517f08c379a000000000000000000000000000000000000000000000000000000000815260040161093090612125565b60405180910390fd5b600260008373ffffffffffffffffffffffffffffffffffffffff1673ffffffffffffffffffffffffffffffffffffffff168152602001908152602001600020549050919050565b610988611795565b73ffffffffffffffffffffffffffffffffffffffff166109a6610aed565b73ffffffffffffffffffffffffffffffffffffffff16146109fc576040517f08c379a00000000000000000000000000000000000000000000000000000000081526004016109f390612185565b60405180910390fd5b600073ffffffffffffffffffffffffffffffffffffffff1660008054906101000a900473ffffffffffffffffffffffffffffffffffffffff1673ffffffffffffffffffffffffffffffffffffffff167f8be0079c531659141344cd1fd0a4f28419497f9722a3daafe3b4186f6b6457e060405160405180910390a360008060006101000a81548173ffffffffffffffffffffffffffffffffffffffff021916908373ffffffffffffffffffffffffffffffffffffffff160217905550565b60046020528060005260406000206000915054906101000a900473ffffffffffffffffffffffffffffffffffffffff1681565b60008060009054906101000a900473ffffffffffffffffffffffffffffffffffffffff16905090565b60606040518060400160405280600481526020017f4b54435400000000000000000000000000000000000000000000000000000000815250905090565b60606000600260008473ffffffffffffffffffffffffffffffffffffffff1673ffffffffffffffffffffffffffffffffffffffff1681526020019081526020016000205467ffffffffffffffff811115610bb057610baf612470565b5b604051908082528060200260200182016040528015610bde5781602001602082028036833780820191505090505b5090506000805b600180549050811015610c9b578473ffffffffffffffffffffffffffffffffffffffff166003600083815260200190815260200160002060009054906101000a900473ffffffffffffffffffffffffffffffffffffffff1673ffffffffffffffffffffffffffffffffffffffff161415610c885780838381518110610c6d57610c6c612441565b5b6020026020010181815250508180610c84906123c9565b9250505b8080610c93906123c9565b915050610be5565b508192505050919050565b3373ffffffffffffffffffffffffffffffffffffffff168273ffffffffffffffffffffffffffffffffffffffff161415610cdf57600080fd5b80600560003373ffffffffffffffffffffffffffffffffffffffff1673ffffffffffffffffffffffffffffffffffffffff16815260200190815260200160002060008473ffffffffffffffffffffffffffffffffffffffff1673ffffffffffffffffffffffffffffffffffffffff16815260200190815260200160002060006101000a81548160ff0219169083151502179055508173ffffffffffffffffffffffffffffffffffffffff163373ffffffffffffffffffffffffffffffffffffffff167f17307eab39ab6107e8899845ad3d59bd9653f200f220920489ca2b5937696c3183604051610dd091906120a8565b60405180910390a35050565b8173ffffffffffffffffffffffffffffffffffffffff163073ffffffffffffffffffffffffffffffffffffffff161415610e1557600080fd5b8173ffffffffffffffffffffffffffffffffffffffff16600073ffffffffffffffffffffffffffffffffffffffff161415610e4f57600080fd5b610e5933826113b7565b610e6257600080fd5b610e6d3383836115ce565b5050565b6040518060400160405280600481526020017f4b5443540000000000000000000000000000000000000000000000000000000081525081565b610eb633868686611479565b610ef5576040517f08c379a0000000000000000000000000000000000000000000000000000000008152600401610eec906121a5565b60405180910390fd5b610f4585858585858080601f016020809104026020016040519081016040528093929190818152602001838380828437600081840152601f19601f8201169050808301925050505050505061179d565b5050505050565b6040518060400160405280600a81526020017f4b6974747943757469650000000000000000000000000000000000000000000081525081565b6000610f8f611795565b73ffffffffffffffffffffffffffffffffffffffff16610fad610aed565b73ffffffffffffffffffffffffffffffffffffffff1614611003576040517f08c379a0000000000000000000000000000000000000000000000000000000008152600401610ffa90612185565b60405180910390fd5b60146006541061101257600080fd5b60066000815480929190611025906123c9565b9190505550611039600080600085336117c3565b9050919050565b60026020528060005260406000206000915090505481565b6000600560008473ffffffffffffffffffffffffffffffffffffffff1673ffffffffffffffffffffffffffffffffffffffff16815260200190815260200160002060008373ffffffffffffffffffffffffffffffffffffffff1673ffffffffffffffffffffffffffffffffffffffff16815260200190815260200160002060009054906101000a900460ff16905092915050565b6000806000806000806001878154811061110957611108612441565b5b90600052602060002090600202019050806000015495508060010160009054906101000a900467ffffffffffffffff1667ffffffffffffffff1694508060010160089054906101000a900463ffffffff1663ffffffff16935080600101600c9054906101000a900463ffffffff1663ffffffff1692508060010160109054906101000a900461ffff1661ffff1691505091939590929450565b6111aa611795565b73ffffffffffffffffffffffffffffffffffffffff166111c8610aed565b73ffffffffffffffffffffffffffffffffffffffff161461121e576040517f08c379a000000000000000000000000000000000000000000000000000000000815260040161121590612185565b60405180910390fd5b600073ffffffffffffffffffffffffffffffffffffffff168173ffffffffffffffffffffffffffffffffffffffff16141561128e576040517f08c379a0000000000000000000000000000000000000000000000000000000008152600401611285906120e5565b60405180910390fd5b8073ffffffffffffffffffffffffffffffffffffffff1660008054906101000a900473ffffffffffffffffffffffffffffffffffffffff1673ffffffffffffffffffffffffffffffffffffffff167f8be0079c531659141344cd1fd0a4f28419497f9722a3daafe3b4186f6b6457e060405160405180910390a3806000806101000a81548173ffffffffffffffffffffffffffffffffffffffff021916908373ffffffffffffffffffffffffffffffffffffffff16021790555050565b60008073ffffffffffffffffffffffffffffffffffffffff166003600084815260200190815260200160002060009054906101000a900473ffffffffffffffffffffffffffffffffffffffff1673ffffffffffffffffffffffffffffffffffffffff1614159050919050565b60008273ffffffffffffffffffffffffffffffffffffffff166003600084815260200190815260200160002060009054906101000a900473ffffffffffffffffffffffffffffffffffffffff1673ffffffffffffffffffffffffffffffffffffffff1614905092915050565b816004600083815260200190815260200160002060006101000a81548173ffffffffffffffffffffffffffffffffffffffff021916908373ffffffffffffffffffffffffffffffffffffffff1602179055505050565b60006114848261134b565b6114c3576040517f08c379a00000000000000000000000000000000000000000000000000000000081526004016114ba90612105565b60405180910390fd5b6114cd84836113b7565b61150c576040517f08c379a0000000000000000000000000000000000000000000000000000000008152600401611503906121c5565b60405180910390fd5b600073ffffffffffffffffffffffffffffffffffffffff168373ffffffffffffffffffffffffffffffffffffffff16141561154657600080fd5b8373ffffffffffffffffffffffffffffffffffffffff168573ffffffffffffffffffffffffffffffffffffffff1614806115b357508473ffffffffffffffffffffffffffffffffffffffff1661159b83610612565b73ffffffffffffffffffffffffffffffffffffffff16145b806115c457506115c38486611058565b5b9050949350505050565b600260008373ffffffffffffffffffffffffffffffffffffffff1673ffffffffffffffffffffffffffffffffffffffff168152602001908152602001600020600081548092919061161e906123c9565b9190505550816003600083815260200190815260200160002060006101000a81548173ffffffffffffffffffffffffffffffffffffffff021916908373ffffffffffffffffffffffffffffffffffffffff160217905550600073ffffffffffffffffffffffffffffffffffffffff168373ffffffffffffffffffffffffffffffffffffffff161461173557600260008473ffffffffffffffffffffffffffffffffffffffff1673ffffffffffffffffffffffffffffffffffffffff16815260200190815260200160002060008154809291906116f99061239f565b91905055506004600082815260200190815260200160002060006101000a81549073ffffffffffffffffffffffffffffffffffffffff02191690555b808273ffffffffffffffffffffffffffffffffffffffff168473ffffffffffffffffffffffffffffffffffffffff167fddf252ad1be2c89b69c2b068fc378daa952ba7f163c4a11628f55a4df523b3ef60405160405180910390a4505050565b600033905090565b6117a88484846115ce565b6117b48484848461194f565b6117bd57600080fd5b50505050565b6000806040518060a001604052808581526020014267ffffffffffffffff1681526020018863ffffffff1681526020018763ffffffff1681526020018661ffff16815250905060018190806001815401808255809150506001900390600052602060002090600202016000909190919091506000820151816000015560208201518160010160006101000a81548167ffffffffffffffff021916908367ffffffffffffffff16021790555060408201518160010160086101000a81548163ffffffff021916908363ffffffff160217905550606082015181600101600c6101000a81548163ffffffff021916908363ffffffff16021790555060808201518160010160106101000a81548161ffff021916908361ffff16021790555050506000600180805490506118f491906122c4565b90507f0a5311bd2a6608f08a180df2ee7c5946819a649b204b554bb8e39825b2c50ad584828a8a8960405161192d959493929190612033565b60405180910390a1611941600085836115ce565b809250505095945050505050565b600061195a84611a69565b6119675760019050611a61565b60008473ffffffffffffffffffffffffffffffffffffffff1663150b7a02338887876040518563ffffffff1660e01b81526004016119a89493929190611fe7565b602060405180830381600087803b1580156119c257600080fd5b505af11580156119d6573d6000803e3d6000fd5b505050506040513d601f19601f820116820180604052508101906119fa9190611d36565b90507f150b7a023d4804d13e8c85fb27262cb750cf6ba9f9dd3bb30d90f482ceeb4b1f7bffffffffffffffffffffffffffffffffffffffffffffffffffffffff1916817bffffffffffffffffffffffffffffffffffffffffffffffffffffffff1916149150505b949350505050565b600080823b905060008163ffffffff1611915050919050565b600081359050611a918161271b565b92915050565b600081359050611aa681612732565b92915050565b600081359050611abb81612749565b92915050565b600081519050611ad081612749565b92915050565b60008083601f840112611aec57611aeb6124a4565b5b8235905067ffffffffffffffff811115611b0957611b0861249f565b5b602083019150836001820283011115611b2557611b246124a9565b5b9250929050565b600081359050611b3b81612760565b92915050565b600060208284031215611b5757611b566124b3565b5b6000611b6584828501611a82565b91505092915050565b60008060408385031215611b8557611b846124b3565b5b6000611b9385828601611a82565b9250506020611ba485828601611a82565b9150509250929050565b600080600060608486031215611bc757611bc66124b3565b5b6000611bd586828701611a82565b9350506020611be686828701611a82565b9250506040611bf786828701611b2c565b9150509250925092565b600080600080600060808688031215611c1d57611c1c6124b3565b5b6000611c2b88828901611a82565b9550506020611c3c88828901611a82565b9450506040611c4d88828901611b2c565b935050606086013567ffffffffffffffff811115611c6e57611c6d6124ae565b5b611c7a88828901611ad6565b92509250509295509295909350565b60008060408385031215611ca057611c9f6124b3565b5b6000611cae85828601611a82565b9250506020611cbf85828601611a97565b9150509250929050565b60008060408385031215611ce057611cdf6124b3565b5b6000611cee85828601611a82565b9250506020611cff85828601611b2c565b9150509250929050565b600060208284031215611d1f57611d1e6124b3565b5b6000611d2d84828501611aac565b91505092915050565b600060208284031215611d4c57611d4b6124b3565b5b6000611d5a84828501611ac1565b91505092915050565b600060208284031215611d7957611d786124b3565b5b6000611d8784828501611b2c565b91505092915050565b6000611d9c8383611fae565b60208301905092915050565b611db1816122f8565b82525050565b6000611dc282612263565b611dcc8185612291565b9350611dd783612253565b8060005b83811015611e08578151611def8882611d90565b9750611dfa83612284565b925050600181019050611ddb565b5085935050505092915050565b611e1e8161230a565b82525050565b6000611e2f8261226e565b611e3981856122a2565b9350611e4981856020860161236c565b611e52816124b8565b840191505092915050565b6000611e6882612279565b611e7281856122b3565b9350611e8281856020860161236c565b611e8b816124b8565b840191505092915050565b6000611ea36026836122b3565b9150611eae826124c9565b604082019050919050565b6000611ec6602c836122b3565b9150611ed182612518565b604082019050919050565b6000611ee9602a836122b3565b9150611ef482612567565b604082019050919050565b6000611f0c6029836122b3565b9150611f17826125b6565b604082019050919050565b6000611f2f602b836122b3565b9150611f3a82612605565b604082019050919050565b6000611f526020836122b3565b9150611f5d82612654565b602082019050919050565b6000611f756031836122b3565b9150611f808261267d565b604082019050919050565b6000611f986026836122b3565b9150611fa3826126cc565b604082019050919050565b611fb781612362565b82525050565b611fc681612362565b82525050565b6000602082019050611fe16000830184611da8565b92915050565b6000608082019050611ffc6000830187611da8565b6120096020830186611da8565b6120166040830185611fbd565b81810360608301526120288184611e24565b905095945050505050565b600060a0820190506120486000830188611da8565b6120556020830187611fbd565b6120626040830186611fbd565b61206f6060830185611fbd565b61207c6080830184611fbd565b9695505050505050565b600060208201905081810360008301526120a08184611db7565b905092915050565b60006020820190506120bd6000830184611e15565b92915050565b600060208201905081810360008301526120dd8184611e5d565b905092915050565b600060208201905081810360008301526120fe81611e96565b9050919050565b6000602082019050818103600083015261211e81611eb9565b9050919050565b6000602082019050818103600083015261213e81611edc565b9050919050565b6000602082019050818103600083015261215e81611eff565b9050919050565b6000602082019050818103600083015261217e81611f22565b9050919050565b6000602082019050818103600083015261219e81611f45565b9050919050565b600060208201905081810360008301526121be81611f68565b9050919050565b600060208201905081810360008301526121de81611f8b565b9050919050565b60006020820190506121fa6000830184611fbd565b92915050565b600060a0820190506122156000830188611fbd565b6122226020830187611fbd565b61222f6040830186611fbd565b61223c6060830185611fbd565b6122496080830184611fbd565b9695505050505050565b6000819050602082019050919050565b600081519050919050565b600081519050919050565b600081519050919050565b6000602082019050919050565b600082825260208201905092915050565b600082825260208201905092915050565b600082825260208201905092915050565b60006122cf82612362565b91506122da83612362565b9250828210156122ed576122ec612412565b5b828203905092915050565b600061230382612342565b9050919050565b60008115159050919050565b60007fffffffff0000000000000000000000000000000000000000000000000000000082169050919050565b600073ffffffffffffffffffffffffffffffffffffffff82169050919050565b6000819050919050565b60005b8381101561238a57808201518184015260208101905061236f565b83811115612399576000848401525b50505050565b60006123aa82612362565b915060008214156123be576123bd612412565b5b600182039050919050565b60006123d482612362565b91507fffffffffffffffffffffffffffffffffffffffffffffffffffffffffffffffff82141561240757612406612412565b5b600182019050919050565b7f4e487b7100000000000000000000000000000000000000000000000000000000600052601160045260246000fd5b7f4e487b7100000000000000000000000000000000000000000000000000000000600052603260045260246000fd5b7f4e487b7100000000000000000000000000000000000000000000000000000000600052604160045260246000fd5b600080fd5b600080fd5b600080fd5b600080fd5b600080fd5b6000601f19601f8301169050919050565b7f4f776e61626c653a206e6577206f776e657220697320746865207a65726f206160008201527f6464726573730000000000000000000000000000000000000000000000000000602082015250565b7f4552433732313a206f70657261746f7220717565727920666f72206e6f6e657860008201527f697374656e7420746f6b656e0000000000000000000000000000000000000000602082015250565b7f4552433732313a2062616c616e636520717565727920666f7220746865207a6560008201527f726f206164647265737300000000000000000000000000000000000000000000602082015250565b7f4552433732313a206f776e657220717565727920666f72206e6f6e657869737460008201527f656e7420746f6b656e0000000000000000000000000000000000000000000000602082015250565b7f4164647265737320746f20617070726f76652069732073616d65206173206f7760008201527f6e65722061646472657373000000000000000000000000000000000000000000602082015250565b7f4f776e61626c653a2063616c6c6572206973206e6f7420746865206f776e6572600082015250565b7f4552433732313a207472616e736665722063616c6c6572206973206e6f74206f60008201527f776e6572206e6f7220617070726f766564000000000000000000000000000000602082015250565b7f4552433732313a2053656e64657220646f6573206e6f74206f776e207468697360008201527f20746f6b656e0000000000000000000000000000000000000000000000000000602082015250565b612724816122f8565b811461272f57600080fd5b50565b61273b8161230a565b811461274657600080fd5b50565b61275281612316565b811461275d57600080fd5b50565b61276981612362565b811461277457600080fd5b5056fea2646970667358221220542680892551efbd93ea7f4b96fabaa6554bc85acff3e8561614f12c5b5d615064736f6c63430008060033",
  "immutableReferences": {},
  "source": "// SPDX-License-Identifier: MIT\r\npragma solidity ^0.8.0;\r\n\r\nimport \"./IERC721.sol\";\r\nimport \"./IERC721Receiver.sol\";\r\nimport \"../node_modules/@openzeppelin/contracts/utils/math/SafeMath.sol\";\r\nimport \"../node_modules/@openzeppelin/contracts/access/Ownable.sol\";\r\n\r\ncontract Kittycontract is IERC721, Ownable{\r\n    using SafeMath for uint256;\r\n    \r\n    string public constant _name = \"KittyCutie\";\r\n    string public constant _symbol = \"KTCT\";\r\n    uint public constant Gen0_limit = 20;\r\n\r\n    bytes4 internal constant MAGIC_ERC721_RECEIVED = bytes4(keccak256(\"onERC721Received(address,address,uint256,bytes)\"));\r\n\r\n    //interfaces supported\r\n    bytes4 private constant _INTERFACE_ID_ERC721 = 0x80ac58cd;\r\n    bytes4 private constant _INTERFACE_ID_ERC165 = 0x01ffc9a7;\r\n\r\n    event Birth(address owner, uint256 kittenId, uint256 mumId, uint256 dadId, uint256 genes);\r\n    \r\n    \r\n    struct Kitty {\r\n        uint256 genes;\r\n        uint64 birthTime;\r\n        uint32 mumId;\r\n        uint32 dadId;\r\n        uint16 generation;\r\n    }\r\n\r\n    Kitty[] kitties;\r\n\r\n    mapping(address => uint256) public _kittyBalance;\r\n    mapping(uint256 => address) _kittyOwners;\r\n    mapping(uint256 => address) public _kittyApprovals; //owner approve a specific address to transfer a specific kitty (token) \r\n    mapping(address => mapping(address => bool)) private _operatorApprovals; //owner approve a specific address to transfer all kities owned\r\n\r\n    uint256 public Gen0_Kitties_created;\r\n\r\n    function createKittyGen0(uint256 _genes) public onlyOwner returns(uint256) {\r\n        require(Gen0_Kitties_created < Gen0_limit);\r\n        Gen0_Kitties_created ++;\r\n\r\n        return _createKitty(0, 0, 0, _genes, msg.sender);\r\n    }\r\n\r\n    function _createKitty(uint256 _mumId, uint256 _dadId, uint256 _generation, uint256 _genes, address _owner) private returns (uint256) {\r\n        Kitty memory _kitty = Kitty({\r\n            genes: _genes,\r\n            birthTime: uint64(block.timestamp),\r\n            mumId: uint32(_mumId),\r\n            dadId: uint32(_dadId),\r\n            generation: uint16(_generation)\r\n        });\r\n\r\n        kitties.push(_kitty);\r\n        uint256 newKittenId = kitties.length - 1;\r\n\r\n        emit Birth(_owner, newKittenId, _mumId, _dadId, _genes);\r\n        _transfer(address(0), _owner, newKittenId); //transfer from nowhere(address(0)) means Creation of a Kitty\r\n\r\n        return newKittenId;\r\n    }\r\n\r\n    function getKittyByOwner(address _owner) external view returns(uint[] memory) {\r\n        uint[] memory result = new uint[](_kittyBalance[_owner]);\r\n        uint counter = 0;\r\n        for (uint i = 0; i < kitties.length; i++) {\r\n            if (_kittyOwners[i] == _owner) {\r\n                result[counter] = i;\r\n                counter++;\r\n            }\r\n        }\r\n        return result;\r\n    }\r\n\r\n    function getKitty(uint256 _id) public view returns (\r\n        uint256 _genes,\r\n        uint256 _birthTime,\r\n        uint256 _mumId,\r\n        uint256 _dadId,\r\n        uint256 _generation\r\n    ) \r\n    {\r\n        Kitty storage kitty = kitties[_id];\r\n\r\n        _genes = kitty.genes;\r\n        _birthTime = uint256(kitty.birthTime);\r\n        _mumId = uint256(kitty.mumId);\r\n        _dadId = uint256(kitty.dadId);\r\n        _generation = uint256(kitty.generation);       \r\n    }\r\n    \r\n    function balanceOf(address _owner) external view override returns (uint256) {\r\n        require(_owner != address(0), \"ERC721: balance query for the zero address\");\r\n        return _kittyBalance[_owner];\r\n    }\r\n\r\n    function totalSupply() public view override returns (uint256 total) {\r\n        return kitties.length;\r\n    }\r\n\r\n    function name() public pure override returns (string memory) {\r\n        return _name;\r\n    }\r\n\r\n    function symbol() public pure override returns (string memory) {\r\n        return _symbol;\r\n    }\r\n\r\n    function ownerOf(uint256 _tokenId) external view override returns (address) {\r\n        address owner = _kittyOwners[_tokenId];\r\n        require(owner != address(0), \"ERC721: owner query for nonexistent token\");\r\n        return owner;\r\n    }\r\n\r\n    function transfer(address _to, uint256 _tokenId) external override {\r\n        require(address(this) != _to);\r\n        require(address(0) != _to);\r\n        require(_ownedBy(msg.sender, _tokenId));\r\n\r\n        _transfer(msg.sender, _to, _tokenId);\r\n    }\r\n\r\n    function approve(address _to, uint256 _tokenId) external override {\r\n        require(_ownedBy(msg.sender, _tokenId));\r\n        require(_to != msg.sender, \"Address to approve is same as owner address\");\r\n\r\n        _approve(_to, _tokenId);\r\n        emit Approval(msg.sender, _to, _tokenId);\r\n    }\r\n\r\n    function setApprovalForAll(address _operator, bool _approved) external override {\r\n        require(_operator != msg.sender);\r\n\r\n        _operatorApprovals[msg.sender][_operator] = _approved;\r\n        emit ApprovalForAll(msg.sender, _operator, _approved);\r\n    }\r\n\r\n    function getApproved(uint256 _tokenId) public view override returns (address){\r\n        require(_exists(_tokenId), \"ERC721: operator query for nonexistent token\"); //added\r\n        require(_tokenId < kitties.length);\r\n        return _kittyApprovals[_tokenId];\r\n    }\r\n\r\n    function isApprovedForAll(address _owner, address _operator) public view override returns (bool) {\r\n        return _operatorApprovals[_owner][_operator];\r\n    }\r\n\r\n    function transferFrom(address _from, address _to, uint256 _tokenId) public override {\r\n        require(_isApprovedOrOwner(msg.sender, _from, _to, _tokenId), \"ERC721: transfer caller is not owner nor approved\");\r\n\r\n        _transfer(_from, _to, _tokenId);\r\n    }\r\n\r\n    function safeTransferFrom(address _from, address _to, uint256 _tokenId) public override {\r\n        safeTransferFrom(_from, _to, _tokenId);\r\n    }\r\n    \r\n    function safeTransferFrom(address _from, address _to, uint256 _tokenId, bytes calldata _data) public override{\r\n        require(_isApprovedOrOwner(msg.sender, _from, _to, _tokenId), \"ERC721: transfer caller is not owner nor approved\");\r\n        _safeTransfer(_from, _to, _tokenId, _data);\r\n    }\r\n\r\n    function supportsInterface(bytes4 _interfaceId) external pure returns (bool) {\r\n        return (_interfaceId == _INTERFACE_ID_ERC721 || _interfaceId == _INTERFACE_ID_ERC165);\r\n    }\r\n\r\n//re-usable functions\r\n    function _ownedBy(address claimant, uint256 _tokenId) internal view returns(bool) {\r\n        return _kittyOwners[_tokenId] == claimant;\r\n    }\r\n\r\n    function _transfer(address _from, address _to, uint256 _tokenId) internal {\r\n        _kittyBalance[_to]++;\r\n        _kittyOwners[_tokenId] = _to;\r\n        \r\n        if(_from != address(0)){\r\n            _kittyBalance[_from]--;\r\n            delete _kittyApprovals[_tokenId]; //remove approval when token is transferred to another owner\r\n        }\r\n        \r\n        emit Transfer(_from, _to, _tokenId);\r\n    }\r\n\r\n    function _approve(address _to, uint256 _tokenId) internal { \r\n        _kittyApprovals[_tokenId] = _to;\r\n    }\r\n\r\n    function _isApprovedOrOwner(address _spender, address _from, address _to, uint256 _tokenId) internal view returns (bool) {\r\n        require(_exists(_tokenId), \"ERC721: operator query for nonexistent token\");\r\n        require(_ownedBy(_from, _tokenId), \"ERC721: Sender does not own this token\");\r\n        require(_to != address(0));\r\n        return (_spender == _from || getApproved(_tokenId) == _spender || isApprovedForAll(_from, _spender));\r\n    }\r\n\r\n    function _exists(uint256 _tokenId) internal view returns (bool) {\r\n        return _kittyOwners[_tokenId] != address(0);\r\n    }\r\n\r\n    function _safeTransfer(address _from, address _to, uint256 _tokenId, bytes memory _data) internal {\r\n        _transfer(_from, _to, _tokenId);\r\n        require(_checkERC721Support(_from, _to, _tokenId, _data) );\r\n    }\r\n\r\n    function _checkERC721Support(address _from, address _to, uint256 _tokenId, bytes memory _data) internal returns(bool) {\r\n        //checks if receiver is a contract\r\n        if(!_isContract(_to) ){\r\n            return true;\r\n        }\r\n        //Call onERC721Received in the _to contract\r\n        bytes4 returnData = IERC721Receiver(_to).onERC721Received(msg.sender, _from, _tokenId, _data);\r\n        //check return value\r\n        return returnData == MAGIC_ERC721_RECEIVED;\r\n    }\r\n\r\n    function _isContract(address _to) internal view returns (bool){\r\n        uint32 size;\r\n        assembly{\r\n            size := extcodesize(_to)\r\n        }\r\n        return size > 0;\r\n    }\r\n}",
  "sourcePath": "C:/Users/Xyz Fiegalan/OneDrive/Desktop/My Projects/crypto-kitties-clone/Cloning-CryptoKitties/contracts/Kittycontract.sol",
  "compiler": {
    "name": "solc",
    "version": "0.8.6+commit.11564f7e.Emscripten.clang"
  },
  "schemaVersion": "3.3.4",
  "updatedAt": "2021-07-02T08:34:27.704Z",
  "devdoc": {
    "kind": "dev",
    "methods": {
      "balanceOf(address)": {
        "details": "Returns the number of tokens in ``owner``'s account."
      },
      "getApproved(uint256)": {
        "details": "Throws if `_tokenId` is not a valid NFT.",
        "params": {
          "_tokenId": "The NFT to find the approved address for"
        },
        "returns": {
          "_0": "The approved address for this NFT, or the zero address if there is none"
        }
      },
      "isApprovedForAll(address,address)": {
        "params": {
          "_operator": "The address that acts on behalf of the owner",
          "_owner": "The address that owns the NFTs"
        },
        "returns": {
          "_0": "True if `_operator` is an approved operator for `_owner`, false otherwise"
        }
      },
      "owner()": {
        "details": "Returns the address of the current owner."
      },
      "ownerOf(uint256)": {
        "details": "Returns the owner of the `tokenId` token. Requirements: - `tokenId` must exist."
      },
      "renounceOwnership()": {
        "details": "Leaves the contract without owner. It will not be possible to call `onlyOwner` functions anymore. Can only be called by the current owner. NOTE: Renouncing ownership will leave the contract without an owner, thereby removing any functionality that is only available to the owner."
      },
      "safeTransferFrom(address,address,uint256)": {
        "details": "This works identically to the other function with an extra data parameter,  except this function just sets data to \"\".",
        "params": {
          "_from": "The current owner of the NFT",
          "_to": "The new owner",
          "_tokenId": "The NFT to transfer"
        }
      },
      "setApprovalForAll(address,bool)": {
        "details": "Emits the ApprovalForAll event. The contract MUST allow  multiple operators per owner.",
        "params": {
          "_approved": "True if the operator is approved, false to revoke approval",
          "_operator": "Address to add to the set of authorized operators"
        }
      },
      "transferFrom(address,address,uint256)": {
        "details": "Throws unless `msg.sender` is the current owner, an authorized  operator, or the approved address for this NFT. Throws if `_from` is  not the current owner. Throws if `_to` is the zero address. Throws if  `_tokenId` is not a valid NFT.",
        "params": {
          "_from": "The current owner of the NFT",
          "_to": "The new owner",
          "_tokenId": "The NFT to transfer"
        }
      },
      "transferOwnership(address)": {
        "details": "Transfers ownership of the contract to a new account (`newOwner`). Can only be called by the current owner."
      }
    },
    "version": 1
  },
  "userdoc": {
    "kind": "user",
    "methods": {
      "getApproved(uint256)": {
        "notice": "Get the approved address for a single NFT"
      },
      "isApprovedForAll(address,address)": {
        "notice": "Query if an address is an authorized operator for another address"
      },
      "safeTransferFrom(address,address,uint256)": {
        "notice": "Transfers the ownership of an NFT from one address to another address"
      },
      "setApprovalForAll(address,bool)": {
        "notice": "Enable or disable approval for a third party (\"operator\") to manage  all of `msg.sender`'s assets"
      },
      "transferFrom(address,address,uint256)": {
        "notice": "Transfer ownership of an NFT -- THE CALLER IS RESPONSIBLE  TO CONFIRM THAT `_to` IS CAPABLE OF RECEIVING NFTS OR ELSE  THEY MAY BE PERMANENTLY LOST"
      }
    },
    "version": 1
  }
}